{
  "contractName": "PropertyToken",
  "abi": [
    {
      "inputs": [
        {
          "internalType": "address",
          "name": "_oracle",
          "type": "address"
        }
      ],
      "stateMutability": "nonpayable",
      "type": "constructor"
    },
    {
      "anonymous": false,
      "inputs": [
        {
          "indexed": true,
          "internalType": "address",
          "name": "owner",
          "type": "address"
        },
        {
          "indexed": true,
          "internalType": "address",
          "name": "approved",
          "type": "address"
        },
        {
          "indexed": true,
          "internalType": "uint256",
          "name": "tokenId",
          "type": "uint256"
        }
      ],
      "name": "Approval",
      "type": "event"
    },
    {
      "anonymous": false,
      "inputs": [
        {
          "indexed": true,
          "internalType": "address",
          "name": "owner",
          "type": "address"
        },
        {
          "indexed": true,
          "internalType": "address",
          "name": "operator",
          "type": "address"
        },
        {
          "indexed": false,
          "internalType": "bool",
          "name": "approved",
          "type": "bool"
        }
      ],
      "name": "ApprovalForAll",
      "type": "event"
    },
    {
      "anonymous": false,
      "inputs": [
        {
          "indexed": true,
          "internalType": "address",
          "name": "from",
          "type": "address"
        },
        {
          "indexed": true,
          "internalType": "address",
          "name": "to",
          "type": "address"
        },
        {
          "indexed": true,
          "internalType": "uint256",
          "name": "tokenId",
          "type": "uint256"
        }
      ],
      "name": "Transfer",
      "type": "event"
    },
    {
      "inputs": [
        {
          "internalType": "address",
          "name": "to",
          "type": "address"
        },
        {
          "internalType": "uint256",
          "name": "tokenId",
          "type": "uint256"
        }
      ],
      "name": "approve",
      "outputs": [],
      "stateMutability": "nonpayable",
      "type": "function"
    },
    {
      "inputs": [
        {
          "internalType": "uint256",
          "name": "",
          "type": "uint256"
        }
      ],
      "name": "auctions",
      "outputs": [
        {
          "internalType": "contract PropertyAuction",
          "name": "",
          "type": "address"
        }
      ],
      "stateMutability": "view",
      "type": "function",
      "constant": true
    },
    {
      "inputs": [
        {
          "internalType": "address",
          "name": "owner",
          "type": "address"
        }
      ],
      "name": "balanceOf",
      "outputs": [
        {
          "internalType": "uint256",
          "name": "",
          "type": "uint256"
        }
      ],
      "stateMutability": "view",
      "type": "function",
      "constant": true
    },
    {
      "inputs": [
        {
          "internalType": "uint256",
          "name": "tokenId",
          "type": "uint256"
        }
      ],
      "name": "getApproved",
      "outputs": [
        {
          "internalType": "address",
          "name": "",
          "type": "address"
        }
      ],
      "stateMutability": "view",
      "type": "function",
      "constant": true
    },
    {
      "inputs": [
        {
          "internalType": "address",
          "name": "owner",
          "type": "address"
        },
        {
          "internalType": "address",
          "name": "operator",
          "type": "address"
        }
      ],
      "name": "isApprovedForAll",
      "outputs": [
        {
          "internalType": "bool",
          "name": "",
          "type": "bool"
        }
      ],
      "stateMutability": "view",
      "type": "function",
      "constant": true
    },
    {
      "inputs": [],
      "name": "name",
      "outputs": [
        {
          "internalType": "string",
          "name": "",
          "type": "string"
        }
      ],
      "stateMutability": "view",
      "type": "function",
      "constant": true
    },
    {
      "inputs": [
        {
          "internalType": "uint256",
          "name": "tokenId",
          "type": "uint256"
        }
      ],
      "name": "ownerOf",
      "outputs": [
        {
          "internalType": "address",
          "name": "",
          "type": "address"
        }
      ],
      "stateMutability": "view",
      "type": "function",
      "constant": true
    },
    {
      "inputs": [
        {
          "internalType": "address",
          "name": "from",
          "type": "address"
        },
        {
          "internalType": "address",
          "name": "to",
          "type": "address"
        },
        {
          "internalType": "uint256",
          "name": "tokenId",
          "type": "uint256"
        }
      ],
      "name": "safeTransferFrom",
      "outputs": [],
      "stateMutability": "nonpayable",
      "type": "function"
    },
    {
      "inputs": [
        {
          "internalType": "address",
          "name": "from",
          "type": "address"
        },
        {
          "internalType": "address",
          "name": "to",
          "type": "address"
        },
        {
          "internalType": "uint256",
          "name": "tokenId",
          "type": "uint256"
        },
        {
          "internalType": "bytes",
          "name": "data",
          "type": "bytes"
        }
      ],
      "name": "safeTransferFrom",
      "outputs": [],
      "stateMutability": "nonpayable",
      "type": "function"
    },
    {
      "inputs": [
        {
          "internalType": "address",
          "name": "operator",
          "type": "address"
        },
        {
          "internalType": "bool",
          "name": "approved",
          "type": "bool"
        }
      ],
      "name": "setApprovalForAll",
      "outputs": [],
      "stateMutability": "nonpayable",
      "type": "function"
    },
    {
      "inputs": [
        {
          "internalType": "bytes4",
          "name": "interfaceId",
          "type": "bytes4"
        }
      ],
      "name": "supportsInterface",
      "outputs": [
        {
          "internalType": "bool",
          "name": "",
          "type": "bool"
        }
      ],
      "stateMutability": "view",
      "type": "function",
      "constant": true
    },
    {
      "inputs": [],
      "name": "symbol",
      "outputs": [
        {
          "internalType": "string",
          "name": "",
          "type": "string"
        }
      ],
      "stateMutability": "view",
      "type": "function",
      "constant": true
    },
    {
      "inputs": [
        {
          "internalType": "uint256",
          "name": "tokenId",
          "type": "uint256"
        }
      ],
      "name": "tokenURI",
      "outputs": [
        {
          "internalType": "string",
          "name": "",
          "type": "string"
        }
      ],
      "stateMutability": "view",
      "type": "function",
      "constant": true
    },
    {
      "inputs": [
        {
          "internalType": "address",
          "name": "from",
          "type": "address"
        },
        {
          "internalType": "address",
          "name": "to",
          "type": "address"
        },
        {
          "internalType": "uint256",
          "name": "tokenId",
          "type": "uint256"
        }
      ],
      "name": "transferFrom",
      "outputs": [],
      "stateMutability": "nonpayable",
      "type": "function"
    },
    {
      "inputs": [
        {
          "internalType": "address",
          "name": "owner",
          "type": "address"
        },
        {
          "internalType": "uint256",
          "name": "newItemId",
          "type": "uint256"
        }
      ],
      "name": "DigitiseProperty",
      "outputs": [
        {
          "internalType": "uint256",
          "name": "",
          "type": "uint256"
        }
      ],
      "stateMutability": "nonpayable",
      "type": "function"
    },
    {
      "inputs": [
        {
          "internalType": "address",
          "name": "userAddr",
          "type": "address"
        }
      ],
      "name": "VerifySignature",
      "outputs": [
        {
          "internalType": "bool",
          "name": "success",
          "type": "bool"
        }
      ],
      "stateMutability": "view",
      "type": "function",
      "constant": true
    },
    {
      "inputs": [
        {
          "internalType": "uint256",
          "name": "_start",
          "type": "uint256"
        },
        {
          "internalType": "uint256",
          "name": "_end",
          "type": "uint256"
        },
        {
          "internalType": "uint256",
          "name": "_min",
          "type": "uint256"
        },
        {
          "internalType": "uint256",
          "name": "_propId",
          "type": "uint256"
        }
      ],
      "name": "NewAuction",
      "outputs": [
        {
          "internalType": "contract PropertyAuction",
          "name": "addr",
          "type": "address"
        }
      ],
      "stateMutability": "nonpayable",
      "type": "function"
    },
    {
      "inputs": [
        {
          "internalType": "uint256",
          "name": "_propId",
          "type": "uint256"
        }
      ],
      "name": "TransferOwnership",
      "outputs": [
        {
          "internalType": "bool",
          "name": "success",
          "type": "bool"
        }
      ],
      "stateMutability": "nonpayable",
      "type": "function"
    }
  ],
  "bytecode": "0x60806040523480156200001157600080fd5b50604051620056353803806200563583398181016040528101906200003791906200024f565b6040518060400160405280600881526020017f50726f70657274790000000000000000000000000000000000000000000000008152506040518060400160405280600381526020017f50545900000000000000000000000000000000000000000000000000000000008152508160009081620000b49190620004fb565b508060019081620000c69190620004fb565b50505080600860006101000a81548173ffffffffffffffffffffffffffffffffffffffff021916908373ffffffffffffffffffffffffffffffffffffffff160217905550600860009054906101000a900473ffffffffffffffffffffffffffffffffffffffff1673ffffffffffffffffffffffffffffffffffffffff16639605a04c6040518163ffffffff1660e01b8152600401602060405180830381865afa15801562000178573d6000803e3d6000fd5b505050506040513d601f19601f820116820180604052508101906200019e91906200024f565b600760006101000a81548173ffffffffffffffffffffffffffffffffffffffff021916908373ffffffffffffffffffffffffffffffffffffffff16021790555050620005e2565b600080fd5b600073ffffffffffffffffffffffffffffffffffffffff82169050919050565b60006200021782620001ea565b9050919050565b62000229816200020a565b81146200023557600080fd5b50565b60008151905062000249816200021e565b92915050565b600060208284031215620002685762000267620001e5565b5b6000620002788482850162000238565b91505092915050565b600081519050919050565b7f4e487b7100000000000000000000000000000000000000000000000000000000600052604160045260246000fd5b7f4e487b7100000000000000000000000000000000000000000000000000000000600052602260045260246000fd5b600060028204905060018216806200030357607f821691505b602082108103620003195762000318620002bb565b5b50919050565b60008190508160005260206000209050919050565b60006020601f8301049050919050565b600082821b905092915050565b600060088302620003837fffffffffffffffffffffffffffffffffffffffffffffffffffffffffffffffff8262000344565b6200038f868362000344565b95508019841693508086168417925050509392505050565b6000819050919050565b6000819050919050565b6000620003dc620003d6620003d084620003a7565b620003b1565b620003a7565b9050919050565b6000819050919050565b620003f883620003bb565b620004106200040782620003e3565b84845462000351565b825550505050565b600090565b6200042762000418565b62000434818484620003ed565b505050565b5b818110156200045c57620004506000826200041d565b6001810190506200043a565b5050565b601f821115620004ab5762000475816200031f565b620004808462000334565b8101602085101562000490578190505b620004a86200049f8562000334565b83018262000439565b50505b505050565b600082821c905092915050565b6000620004d060001984600802620004b0565b1980831691505092915050565b6000620004eb8383620004bd565b9150826002028217905092915050565b620005068262000281565b67ffffffffffffffff8111156200052257620005216200028c565b5b6200052e8254620002ea565b6200053b82828562000460565b600060209050601f8311600181146200057357600084156200055e578287015190505b6200056a8582620004dd565b865550620005da565b601f19841662000583866200031f565b60005b82811015620005ad5784890151825560018201915060208501945060208101905062000586565b86831015620005cd5784890151620005c9601f891682620004bd565b8355505b6001600288020188555050505b505050505050565b61504380620005f26000396000f3fe60806040523480156200001157600080fd5b5060043610620001305760003560e01c806370a0823111620000b1578063a3e9c29f116200007b578063a3e9c29f1462000373578063b88d4fde14620003a9578063c87b56dd14620003c9578063e985e9c514620003ff578063f6918d6914620004355762000130565b806370a0823114620002c557806395d89b4114620002fb5780639ac2b9a8146200031d578063a22cb46514620003535762000130565b8063095ea7b311620000ff578063095ea7b314620001f957806323b872dd146200021957806342842e0e1462000239578063571a26a014620002595780636352211e146200028f5762000130565b806301ffc9a71462000135578063055a72be146200016b57806306fdde0314620001a1578063081812fc14620001c3575b600080fd5b6200015360048036038101906200014d9190620021e8565b6200046b565b60405162000162919062002237565b60405180910390f35b620001896004803603810190620001839190620022f4565b62000551565b6040516200019891906200234c565b60405180910390f35b620001ab620006ac565b604051620001ba91906200240d565b60405180910390f35b620001e16004803603810190620001db919062002431565b62000746565b604051620001f0919062002474565b60405180910390f35b620002176004803603810190620002119190620022f4565b6200078e565b005b62000237600480360381019062000231919062002491565b620008b6565b005b62000257600480360381019062000251919062002491565b6200091f565b005b62000277600480360381019062000271919062002431565b62000941565b60405162000286919062002558565b60405180910390f35b620002ad6004803603810190620002a7919062002431565b62000974565b604051620002bc919062002474565b60405180910390f35b620002e36004803603810190620002dd919062002575565b62000a28565b604051620002f291906200234c565b60405180910390f35b6200030562000ae2565b6040516200031491906200240d565b60405180910390f35b6200033b600480360381019062000335919062002431565b62000b7c565b6040516200034a919062002237565b60405180910390f35b6200037160048036038101906200036b9190620025d8565b62000dac565b005b6200039160048036038101906200038b91906200261f565b62000dc6565b604051620003a0919062002558565b60405180910390f35b620003c76004803603810190620003c19190620027e2565b6200103e565b005b620003e76004803603810190620003e1919062002431565b620010a9565b604051620003f691906200240d565b60405180910390f35b6200041d600480360381019062000417919062002873565b620011cf565b6040516200042c919062002237565b60405180910390f35b6200045360048036038101906200044d919062002575565b62001263565b60405162000462919062002237565b60405180910390f35b60007f80ac58cd000000000000000000000000000000000000000000000000000000007bffffffffffffffffffffffffffffffffffffffffffffffffffffffff1916827bffffffffffffffffffffffffffffffffffffffffffffffffffffffff191614806200053757507f5b5e139f000000000000000000000000000000000000000000000000000000007bffffffffffffffffffffffffffffffffffffffffffffffffffffffff1916827bffffffffffffffffffffffffffffffffffffffffffffffffffffffff1916145b806200054a5750620005498262001475565b5b9050919050565b6000600760009054906101000a900473ffffffffffffffffffffffffffffffffffffffff1673ffffffffffffffffffffffffffffffffffffffff163373ffffffffffffffffffffffffffffffffffffffff1614620005e6576040517f08c379a0000000000000000000000000000000000000000000000000000000008152600401620005dd906200290a565b60405180910390fd5b620005f28383620014df565b620006a382600860009054906101000a900473ffffffffffffffffffffffffffffffffffffffff1673ffffffffffffffffffffffffffffffffffffffff1663c70a43d4856040518263ffffffff1660e01b81526004016200065491906200234c565b600060405180830381865afa15801562000672573d6000803e3d6000fd5b505050506040513d6000823e3d601f19601f820116820180604052508101906200069d9190620029e0565b620016c6565b81905092915050565b606060008054620006bd9062002a60565b80601f0160208091040260200160405190810160405280929190818152602001828054620006eb9062002a60565b80156200073c5780601f1062000710576101008083540402835291602001916200073c565b820191906000526020600020905b8154815290600101906020018083116200071e57829003601f168201915b5050505050905090565b600062000753826200173a565b6004600083815260200190815260200160002060009054906101000a900473ffffffffffffffffffffffffffffffffffffffff169050919050565b60006200079b8262000974565b90508073ffffffffffffffffffffffffffffffffffffffff168373ffffffffffffffffffffffffffffffffffffffff16036200080e576040517f08c379a0000000000000000000000000000000000000000000000000000000008152600401620008059062002b0b565b60405180910390fd5b8073ffffffffffffffffffffffffffffffffffffffff166200082f6200178a565b73ffffffffffffffffffffffffffffffffffffffff16148062000863575062000862816200085c6200178a565b620011cf565b5b620008a5576040517f08c379a00000000000000000000000000000000000000000000000000000000081526004016200089c9062002ba3565b60405180910390fd5b620008b1838362001792565b505050565b620008cb620008c46200178a565b826200184d565b6200090d576040517f08c379a0000000000000000000000000000000000000000000000000000000008152600401620009049062002c3b565b60405180910390fd5b6200091a838383620018ea565b505050565b6200093c838383604051806020016040528060008152506200103e565b505050565b60096020528060005260406000206000915054906101000a900473ffffffffffffffffffffffffffffffffffffffff1681565b6000806002600084815260200190815260200160002060009054906101000a900473ffffffffffffffffffffffffffffffffffffffff169050600073ffffffffffffffffffffffffffffffffffffffff168173ffffffffffffffffffffffffffffffffffffffff160362000a1f576040517f08c379a000000000000000000000000000000000000000000000000000000000815260040162000a169062002cad565b60405180910390fd5b80915050919050565b60008073ffffffffffffffffffffffffffffffffffffffff168273ffffffffffffffffffffffffffffffffffffffff160362000a9b576040517f08c379a000000000000000000000000000000000000000000000000000000000815260040162000a929062002d45565b60405180910390fd5b600360008373ffffffffffffffffffffffffffffffffffffffff1673ffffffffffffffffffffffffffffffffffffffff168152602001908152602001600020549050919050565b60606001805462000af39062002a60565b80601f016020809104026020016040519081016040528092919081815260200182805462000b219062002a60565b801562000b725780601f1062000b465761010080835404028352916020019162000b72565b820191906000526020600020905b81548152906001019060200180831162000b5457829003601f168201915b5050505050905090565b6000806009600084815260200190815260200160002060009054906101000a900473ffffffffffffffffffffffffffffffffffffffff16905060008173ffffffffffffffffffffffffffffffffffffffff16630ae50a396040518163ffffffff1660e01b8152600401602060405180830381865afa15801562000c03573d6000803e3d6000fd5b505050506040513d601f19601f8201168201806040525081019062000c29919062002d7e565b90508173ffffffffffffffffffffffffffffffffffffffff163373ffffffffffffffffffffffffffffffffffffffff161462000c6457600080fd5b600073ffffffffffffffffffffffffffffffffffffffff168173ffffffffffffffffffffffffffffffffffffffff160362000cd6576040517f08c379a000000000000000000000000000000000000000000000000000000000815260040162000ccd9062002e00565b60405180910390fd5b8073ffffffffffffffffffffffffffffffffffffffff1662000cf88562000974565b73ffffffffffffffffffffffffffffffffffffffff160362000da45760008273ffffffffffffffffffffffffffffffffffffffff16639f6c4e6c6040518163ffffffff1660e01b8152600401602060405180830381865afa15801562000d62573d6000803e3d6000fd5b505050506040513d601f19601f8201168201806040525081019062000d88919062002d7e565b905062000d97828287620008b6565b6001935050505062000da7565b50505b919050565b62000dc262000dba6200178a565b838362001b62565b5050565b6000803390508073ffffffffffffffffffffffffffffffffffffffff1662000dee8462000974565b73ffffffffffffffffffffffffffffffffffffffff161462000e47576040517f08c379a000000000000000000000000000000000000000000000000000000000815260040162000e3e9062002e72565b60405180910390fd5b600073ffffffffffffffffffffffffffffffffffffffff166009600085815260200190815260200160002060009054906101000a900473ffffffffffffffffffffffffffffffffffffffff1673ffffffffffffffffffffffffffffffffffffffff16630ae50a396040518163ffffffff1660e01b8152600401602060405180830381865afa15801562000ede573d6000803e3d6000fd5b505050506040513d601f19601f8201168201806040525081019062000f04919062002d7e565b73ffffffffffffffffffffffffffffffffffffffff161462000f5d576040517f08c379a000000000000000000000000000000000000000000000000000000000815260040162000f549062002ee4565b60405180910390fd5b84861062000fa2576040517f08c379a000000000000000000000000000000000000000000000000000000000815260040162000f999062002f56565b60405180910390fd5b808686868660405162000fb59062002169565b62000fc595949392919062002f78565b604051809103906000f08015801562000fe2573d6000803e3d6000fd5b506009600085815260200190815260200160002060006101000a81548173ffffffffffffffffffffffffffffffffffffffff021916908373ffffffffffffffffffffffffffffffffffffffff1602179055915050949350505050565b620010536200104c6200178a565b836200184d565b62001095576040517f08c379a00000000000000000000000000000000000000000000000000000000081526004016200108c9062002c3b565b60405180910390fd5b620010a38484848462001cd3565b50505050565b6060620010b6826200173a565b6000600660008481526020019081526020016000208054620010d89062002a60565b80601f0160208091040260200160405190810160405280929190818152602001828054620011069062002a60565b8015620011575780601f106200112b5761010080835404028352916020019162001157565b820191906000526020600020905b8154815290600101906020018083116200113957829003601f168201915b5050505050905060006200116a62001d36565b9050600081510362001181578192505050620011ca565b600082511115620011ba578082604051602001620011a192919062003017565b60405160208183030381529060405292505050620011ca565b620011c58462001d4d565b925050505b919050565b6000600560008473ffffffffffffffffffffffffffffffffffffffff1673ffffffffffffffffffffffffffffffffffffffff16815260200190815260200160002060008373ffffffffffffffffffffffffffffffffffffffff1673ffffffffffffffffffffffffffffffffffffffff16815260200190815260200160002060009054906101000a900460ff16905092915050565b600080600860009054906101000a900473ffffffffffffffffffffffffffffffffffffffff1673ffffffffffffffffffffffffffffffffffffffff166374f8b52e846040518263ffffffff1660e01b8152600401620012c3919062002474565b600060405180830381865afa158015620012e1573d6000803e3d6000fd5b505050506040513d6000823e3d601f19601f820116820180604052508101906200130c9190620030bd565b9050600083604051602001620013239190620031fe565b604051602081830303815290604052805190602001206040516020016200134b9190620032b4565b6040516020818303038152906040528051906020012090506041825114620013aa576040517f08c379a0000000000000000000000000000000000000000000000000000000008152600401620013a1906200332e565b60405180910390fd5b60008060006020850151915060408501519050606085015160001a925060018484848460405160008152602001604052604051620013ec94939291906200337f565b6020604051602081039080840390855afa1580156200140f573d6000803e3d6000fd5b5050506020604051035173ffffffffffffffffffffffffffffffffffffffff16600760009054906101000a900473ffffffffffffffffffffffffffffffffffffffff1673ffffffffffffffffffffffffffffffffffffffff161495505050505050919050565b60007f01ffc9a7000000000000000000000000000000000000000000000000000000007bffffffffffffffffffffffffffffffffffffffffffffffffffffffff1916827bffffffffffffffffffffffffffffffffffffffffffffffffffffffff1916149050919050565b600073ffffffffffffffffffffffffffffffffffffffff168273ffffffffffffffffffffffffffffffffffffffff160362001551576040517f08c379a000000000000000000000000000000000000000000000000000000000815260040162001548906200341c565b60405180910390fd5b6200155c8162001dbf565b156200159f576040517f08c379a000000000000000000000000000000000000000000000000000000000815260040162001596906200348e565b60405180910390fd5b620015ad6000838362001e2b565b6001600360008473ffffffffffffffffffffffffffffffffffffffff1673ffffffffffffffffffffffffffffffffffffffff1681526020019081526020016000206000828254620015ff9190620034df565b92505081905550816002600083815260200190815260200160002060006101000a81548173ffffffffffffffffffffffffffffffffffffffff021916908373ffffffffffffffffffffffffffffffffffffffff160217905550808273ffffffffffffffffffffffffffffffffffffffff16600073ffffffffffffffffffffffffffffffffffffffff167fddf252ad1be2c89b69c2b068fc378daa952ba7f163c4a11628f55a4df523b3ef60405160405180910390a4620016c26000838362001e30565b5050565b620016d18262001dbf565b62001713576040517f08c379a00000000000000000000000000000000000000000000000000000000081526004016200170a90620035b2565b60405180910390fd5b806006600084815260200190815260200160002090816200173591906200379c565b505050565b620017458162001dbf565b62001787576040517f08c379a00000000000000000000000000000000000000000000000000000000081526004016200177e9062002cad565b60405180910390fd5b50565b600033905090565b816004600083815260200190815260200160002060006101000a81548173ffffffffffffffffffffffffffffffffffffffff021916908373ffffffffffffffffffffffffffffffffffffffff160217905550808273ffffffffffffffffffffffffffffffffffffffff16620018078362000974565b73ffffffffffffffffffffffffffffffffffffffff167f8c5be1e5ebec7d5bd14f71427d1e84f3dd0314c0f7b2291e5b200ac8c7c3b92560405160405180910390a45050565b6000806200185b8362000974565b90508073ffffffffffffffffffffffffffffffffffffffff168473ffffffffffffffffffffffffffffffffffffffff161480620018a057506200189f8185620011cf565b5b80620018e157508373ffffffffffffffffffffffffffffffffffffffff16620018c98462000746565b73ffffffffffffffffffffffffffffffffffffffff16145b91505092915050565b8273ffffffffffffffffffffffffffffffffffffffff166200190c8262000974565b73ffffffffffffffffffffffffffffffffffffffff161462001965576040517f08c379a00000000000000000000000000000000000000000000000000000000081526004016200195c90620038f9565b60405180910390fd5b600073ffffffffffffffffffffffffffffffffffffffff168273ffffffffffffffffffffffffffffffffffffffff1603620019d7576040517f08c379a0000000000000000000000000000000000000000000000000000000008152600401620019ce9062003991565b60405180910390fd5b620019e483838362001e2b565b620019f160008262001792565b6001600360008573ffffffffffffffffffffffffffffffffffffffff1673ffffffffffffffffffffffffffffffffffffffff168152602001908152602001600020600082825462001a439190620039b3565b925050819055506001600360008473ffffffffffffffffffffffffffffffffffffffff1673ffffffffffffffffffffffffffffffffffffffff168152602001908152602001600020600082825462001a9c9190620034df565b92505081905550816002600083815260200190815260200160002060006101000a81548173ffffffffffffffffffffffffffffffffffffffff021916908373ffffffffffffffffffffffffffffffffffffffff160217905550808273ffffffffffffffffffffffffffffffffffffffff168473ffffffffffffffffffffffffffffffffffffffff167fddf252ad1be2c89b69c2b068fc378daa952ba7f163c4a11628f55a4df523b3ef60405160405180910390a462001b5d83838362001e30565b505050565b8173ffffffffffffffffffffffffffffffffffffffff168373ffffffffffffffffffffffffffffffffffffffff160362001bd3576040517f08c379a000000000000000000000000000000000000000000000000000000000815260040162001bca9062003a3e565b60405180910390fd5b80600560008573ffffffffffffffffffffffffffffffffffffffff1673ffffffffffffffffffffffffffffffffffffffff16815260200190815260200160002060008473ffffffffffffffffffffffffffffffffffffffff1673ffffffffffffffffffffffffffffffffffffffff16815260200190815260200160002060006101000a81548160ff0219169083151502179055508173ffffffffffffffffffffffffffffffffffffffff168373ffffffffffffffffffffffffffffffffffffffff167f17307eab39ab6107e8899845ad3d59bd9653f200f220920489ca2b5937696c318360405162001cc6919062002237565b60405180910390a3505050565b62001ce0848484620018ea565b62001cee8484848462001e35565b62001d30576040517f08c379a000000000000000000000000000000000000000000000000000000000815260040162001d279062003ad6565b60405180910390fd5b50505050565b606060405180602001604052806000815250905090565b606062001d5a826200173a565b600062001d6662001d36565b9050600081511162001d88576040518060200160405280600081525062001db7565b8062001d948462001fcd565b60405160200162001da792919062003017565b6040516020818303038152906040525b915050919050565b60008073ffffffffffffffffffffffffffffffffffffffff166002600084815260200190815260200160002060009054906101000a900473ffffffffffffffffffffffffffffffffffffffff1673ffffffffffffffffffffffffffffffffffffffff1614159050919050565b505050565b505050565b600062001e588473ffffffffffffffffffffffffffffffffffffffff1662002146565b1562001fc0578373ffffffffffffffffffffffffffffffffffffffff1663150b7a0262001e846200178a565b8786866040518563ffffffff1660e01b815260040162001ea8949392919062003b55565b6020604051808303816000875af192505050801562001ee757506040513d601f19601f8201168201806040525081019062001ee4919062003bc0565b60015b62001f6f573d806000811462001f1a576040519150601f19603f3d011682016040523d82523d6000602084013e62001f1f565b606091505b50600081510362001f67576040517f08c379a000000000000000000000000000000000000000000000000000000000815260040162001f5e9062003ad6565b60405180910390fd5b805181602001fd5b63150b7a0260e01b7bffffffffffffffffffffffffffffffffffffffffffffffffffffffff1916817bffffffffffffffffffffffffffffffffffffffffffffffffffffffff19161491505062001fc5565b600190505b949350505050565b60606000820362002016576040518060400160405280600181526020017f3000000000000000000000000000000000000000000000000000000000000000815250905062002141565b600082905060005b600082146200204e578080620020349062003bf2565b915050600a8262002046919062003c6e565b91506200201e565b60008167ffffffffffffffff8111156200206d576200206c6200269b565b5b6040519080825280601f01601f191660200182016040528015620020a05781602001600182028036833780820191505090505b5090505b600085146200213a57600182620020bc9190620039b3565b9150600a85620020cd919062003ca6565b6030620020db9190620034df565b60f81b818381518110620020f457620020f362003cde565b5b60200101907effffffffffffffffffffffffffffffffffffffffffffffffffffffffffffff1916908160001a905350600a8562002132919062003c6e565b9450620020a4565b8093505050505b919050565b6000808273ffffffffffffffffffffffffffffffffffffffff163b119050919050565b6113008062003d0e83390190565b6000604051905090565b600080fd5b600080fd5b60007fffffffff0000000000000000000000000000000000000000000000000000000082169050919050565b620021c2816200218b565b8114620021ce57600080fd5b50565b600081359050620021e281620021b7565b92915050565b60006020828403121562002201576200220062002181565b5b60006200221184828501620021d1565b91505092915050565b60008115159050919050565b62002231816200221a565b82525050565b60006020820190506200224e600083018462002226565b92915050565b600073ffffffffffffffffffffffffffffffffffffffff82169050919050565b6000620022818262002254565b9050919050565b620022938162002274565b81146200229f57600080fd5b50565b600081359050620022b38162002288565b92915050565b6000819050919050565b620022ce81620022b9565b8114620022da57600080fd5b50565b600081359050620022ee81620022c3565b92915050565b600080604083850312156200230e576200230d62002181565b5b60006200231e85828601620022a2565b92505060206200233185828601620022dd565b9150509250929050565b6200234681620022b9565b82525050565b60006020820190506200236360008301846200233b565b92915050565b600081519050919050565b600082825260208201905092915050565b60005b83811015620023a557808201518184015260208101905062002388565b83811115620023b5576000848401525b50505050565b6000601f19601f8301169050919050565b6000620023d98262002369565b620023e5818562002374565b9350620023f781856020860162002385565b6200240281620023bb565b840191505092915050565b60006020820190508181036000830152620024298184620023cc565b905092915050565b6000602082840312156200244a576200244962002181565b5b60006200245a84828501620022dd565b91505092915050565b6200246e8162002274565b82525050565b60006020820190506200248b600083018462002463565b92915050565b600080600060608486031215620024ad57620024ac62002181565b5b6000620024bd86828701620022a2565b9350506020620024d086828701620022a2565b9250506040620024e386828701620022dd565b9150509250925092565b6000819050919050565b600062002518620025126200250c8462002254565b620024ed565b62002254565b9050919050565b60006200252c82620024f7565b9050919050565b600062002540826200251f565b9050919050565b620025528162002533565b82525050565b60006020820190506200256f600083018462002547565b92915050565b6000602082840312156200258e576200258d62002181565b5b60006200259e84828501620022a2565b91505092915050565b620025b2816200221a565b8114620025be57600080fd5b50565b600081359050620025d281620025a7565b92915050565b60008060408385031215620025f257620025f162002181565b5b60006200260285828601620022a2565b92505060206200261585828601620025c1565b9150509250929050565b600080600080608085870312156200263c576200263b62002181565b5b60006200264c87828801620022dd565b94505060206200265f87828801620022dd565b93505060406200267287828801620022dd565b92505060606200268587828801620022dd565b91505092959194509250565b600080fd5b600080fd5b7f4e487b7100000000000000000000000000000000000000000000000000000000600052604160045260246000fd5b620026d582620023bb565b810181811067ffffffffffffffff82111715620026f757620026f66200269b565b5b80604052505050565b60006200270c62002177565b90506200271a8282620026ca565b919050565b600067ffffffffffffffff8211156200273d576200273c6200269b565b5b6200274882620023bb565b9050602081019050919050565b82818337600083830152505050565b60006200277b62002775846200271f565b62002700565b9050828152602081018484840111156200279a576200279962002696565b5b620027a784828562002755565b509392505050565b600082601f830112620027c757620027c662002691565b5b8135620027d984826020860162002764565b91505092915050565b60008060008060808587031215620027ff57620027fe62002181565b5b60006200280f87828801620022a2565b94505060206200282287828801620022a2565b93505060406200283587828801620022dd565b925050606085013567ffffffffffffffff81111562002859576200285862002186565b5b6200286787828801620027af565b91505092959194509250565b600080604083850312156200288d576200288c62002181565b5b60006200289d85828601620022a2565b9250506020620028b085828601620022a2565b9150509250929050565b7f4e6f7420436f6d6d6f6e7765616c746800000000000000000000000000000000600082015250565b6000620028f260108362002374565b9150620028ff82620028ba565b602082019050919050565b600060208201905081810360008301526200292581620028e3565b9050919050565b600067ffffffffffffffff8211156200294a57620029496200269b565b5b6200295582620023bb565b9050602081019050919050565b60006200297962002973846200292c565b62002700565b90508281526020810184848401111562002998576200299762002696565b5b620029a584828562002385565b509392505050565b600082601f830112620029c557620029c462002691565b5b8151620029d784826020860162002962565b91505092915050565b600060208284031215620029f957620029f862002181565b5b600082015167ffffffffffffffff81111562002a1a5762002a1962002186565b5b62002a2884828501620029ad565b91505092915050565b7f4e487b7100000000000000000000000000000000000000000000000000000000600052602260045260246000fd5b6000600282049050600182168062002a7957607f821691505b60208210810362002a8f5762002a8e62002a31565b5b50919050565b7f4552433732313a20617070726f76616c20746f2063757272656e74206f776e6560008201527f7200000000000000000000000000000000000000000000000000000000000000602082015250565b600062002af360218362002374565b915062002b008262002a95565b604082019050919050565b6000602082019050818103600083015262002b268162002ae4565b9050919050565b7f4552433732313a20617070726f76652063616c6c6572206973206e6f7420746f60008201527f6b656e206f776e6572206e6f7220617070726f76656420666f7220616c6c0000602082015250565b600062002b8b603e8362002374565b915062002b988262002b2d565b604082019050919050565b6000602082019050818103600083015262002bbe8162002b7c565b9050919050565b7f4552433732313a2063616c6c6572206973206e6f7420746f6b656e206f776e6560008201527f72206e6f7220617070726f766564000000000000000000000000000000000000602082015250565b600062002c23602e8362002374565b915062002c308262002bc5565b604082019050919050565b6000602082019050818103600083015262002c568162002c14565b9050919050565b7f4552433732313a20696e76616c696420746f6b656e2049440000000000000000600082015250565b600062002c9560188362002374565b915062002ca28262002c5d565b602082019050919050565b6000602082019050818103600083015262002cc88162002c86565b9050919050565b7f4552433732313a2061646472657373207a65726f206973206e6f74206120766160008201527f6c6964206f776e65720000000000000000000000000000000000000000000000602082015250565b600062002d2d60298362002374565b915062002d3a8262002ccf565b604082019050919050565b6000602082019050818103600083015262002d608162002d1e565b9050919050565b60008151905062002d788162002288565b92915050565b60006020828403121562002d975762002d9662002181565b5b600062002da78482850162002d67565b91505092915050565b7f496e76616c69642041756374696f6e0000000000000000000000000000000000600082015250565b600062002de8600f8362002374565b915062002df58262002db0565b602082019050919050565b6000602082019050818103600083015262002e1b8162002dd9565b9050919050565b7f446f65736e2774204f776e20546869732050726f706572747900000000000000600082015250565b600062002e5a60198362002374565b915062002e678262002e22565b602082019050919050565b6000602082019050818103600083015262002e8d8162002e4b565b9050919050565b7f416c726561647920696e2041756374696f6e0000000000000000000000000000600082015250565b600062002ecc60128362002374565b915062002ed98262002e94565b602082019050919050565b6000602082019050818103600083015262002eff8162002ebd565b9050919050565b7f4261642041756374696f6e205265717565737400000000000000000000000000600082015250565b600062002f3e60138362002374565b915062002f4b8262002f06565b602082019050919050565b6000602082019050818103600083015262002f718162002f2f565b9050919050565b600060a08201905062002f8f600083018862002463565b62002f9e60208301876200233b565b62002fad60408301866200233b565b62002fbc60608301856200233b565b62002fcb60808301846200233b565b9695505050505050565b600081905092915050565b600062002fed8262002369565b62002ff9818562002fd5565b93506200300b81856020860162002385565b80840191505092915050565b600062003025828562002fe0565b915062003033828462002fe0565b91508190509392505050565b60006200305662003050846200271f565b62002700565b90508281526020810184848401111562003075576200307462002696565b5b6200308284828562002385565b509392505050565b600082601f830112620030a257620030a162002691565b5b8151620030b48482602086016200303f565b91505092915050565b600060208284031215620030d657620030d562002181565b5b600082015167ffffffffffffffff811115620030f757620030f662002186565b5b62003105848285016200308a565b91505092915050565b7f54686520466f6c6c6f77696e672045746820416464726573733a200000000000600082015250565b600062003146601b8362002fd5565b915062003153826200310e565b601b82019050919050565b60008160601b9050919050565b600062003178826200315e565b9050919050565b60006200318c826200316b565b9050919050565b620031a8620031a28262002274565b6200317f565b82525050565b7f2049732043657274696669656420546f2050617274696369706174652e000000600082015250565b6000620031e6601d8362002fd5565b9150620031f382620031ae565b601d82019050919050565b60006200320b8262003137565b915062003219828462003193565b6014820191506200322a82620031d7565b915081905092915050565b7f19457468657265756d205369676e6564204d6573736167653a0a333200000000600082015250565b60006200326d601c8362002fd5565b91506200327a8262003235565b601c82019050919050565b6000819050919050565b6000819050919050565b620032ae620032a88262003285565b6200328f565b82525050565b6000620032c1826200325e565b9150620032cf828462003299565b60208201915081905092915050565b7f496e76616c6964205369676e617475726520466f726d61740000000000000000600082015250565b60006200331660188362002374565b91506200332382620032de565b602082019050919050565b60006020820190508181036000830152620033498162003307565b9050919050565b6200335b8162003285565b82525050565b600060ff82169050919050565b620033798162003361565b82525050565b600060808201905062003396600083018762003350565b620033a560208301866200336e565b620033b4604083018562003350565b620033c3606083018462003350565b95945050505050565b7f4552433732313a206d696e7420746f20746865207a65726f2061646472657373600082015250565b60006200340460208362002374565b91506200341182620033cc565b602082019050919050565b600060208201905081810360008301526200343781620033f5565b9050919050565b7f4552433732313a20746f6b656e20616c7265616479206d696e74656400000000600082015250565b600062003476601c8362002374565b915062003483826200343e565b602082019050919050565b60006020820190508181036000830152620034a98162003467565b9050919050565b7f4e487b7100000000000000000000000000000000000000000000000000000000600052601160045260246000fd5b6000620034ec82620022b9565b9150620034f983620022b9565b9250827fffffffffffffffffffffffffffffffffffffffffffffffffffffffffffffffff03821115620035315762003530620034b0565b5b828201905092915050565b7f45524337323155524953746f726167653a2055524920736574206f66206e6f6e60008201527f6578697374656e7420746f6b656e000000000000000000000000000000000000602082015250565b60006200359a602e8362002374565b9150620035a7826200353c565b604082019050919050565b60006020820190508181036000830152620035cd816200358b565b9050919050565b60008190508160005260206000209050919050565b60006020601f8301049050919050565b600082821b905092915050565b600060088302620036387fffffffffffffffffffffffffffffffffffffffffffffffffffffffffffffffff82620035f9565b620036448683620035f9565b95508019841693508086168417925050509392505050565b60006200367d620036776200367184620022b9565b620024ed565b620022b9565b9050919050565b6000819050919050565b62003699836200365c565b620036b1620036a88262003684565b84845462003606565b825550505050565b600090565b620036c8620036b9565b620036d58184846200368e565b505050565b5b81811015620036fd57620036f1600082620036be565b600181019050620036db565b5050565b601f8211156200374c576200371681620035d4565b6200372184620035e9565b8101602085101562003731578190505b620037496200374085620035e9565b830182620036da565b50505b505050565b600082821c905092915050565b6000620037716000198460080262003751565b1980831691505092915050565b60006200378c83836200375e565b9150826002028217905092915050565b620037a78262002369565b67ffffffffffffffff811115620037c357620037c26200269b565b5b620037cf825462002a60565b620037dc82828562003701565b600060209050601f831160018114620038145760008415620037ff578287015190505b6200380b85826200377e565b8655506200387b565b601f1984166200382486620035d4565b60005b828110156200384e5784890151825560018201915060208501945060208101905062003827565b868310156200386e57848901516200386a601f8916826200375e565b8355505b6001600288020188555050505b505050505050565b7f4552433732313a207472616e736665722066726f6d20696e636f72726563742060008201527f6f776e6572000000000000000000000000000000000000000000000000000000602082015250565b6000620038e160258362002374565b9150620038ee8262003883565b604082019050919050565b600060208201905081810360008301526200391481620038d2565b9050919050565b7f4552433732313a207472616e7366657220746f20746865207a65726f2061646460008201527f7265737300000000000000000000000000000000000000000000000000000000602082015250565b60006200397960248362002374565b915062003986826200391b565b604082019050919050565b60006020820190508181036000830152620039ac816200396a565b9050919050565b6000620039c082620022b9565b9150620039cd83620022b9565b925082821015620039e357620039e2620034b0565b5b828203905092915050565b7f4552433732313a20617070726f766520746f2063616c6c657200000000000000600082015250565b600062003a2660198362002374565b915062003a3382620039ee565b602082019050919050565b6000602082019050818103600083015262003a598162003a17565b9050919050565b7f4552433732313a207472616e7366657220746f206e6f6e20455243373231526560008201527f63656976657220696d706c656d656e7465720000000000000000000000000000602082015250565b600062003abe60328362002374565b915062003acb8262003a60565b604082019050919050565b6000602082019050818103600083015262003af18162003aaf565b9050919050565b600081519050919050565b600082825260208201905092915050565b600062003b218262003af8565b62003b2d818562003b03565b935062003b3f81856020860162002385565b62003b4a81620023bb565b840191505092915050565b600060808201905062003b6c600083018762002463565b62003b7b602083018662002463565b62003b8a60408301856200233b565b818103606083015262003b9e818462003b14565b905095945050505050565b60008151905062003bba81620021b7565b92915050565b60006020828403121562003bd95762003bd862002181565b5b600062003be98482850162003ba9565b91505092915050565b600062003bff82620022b9565b91507fffffffffffffffffffffffffffffffffffffffffffffffffffffffffffffffff820362003c345762003c33620034b0565b5b600182019050919050565b7f4e487b7100000000000000000000000000000000000000000000000000000000600052601260045260246000fd5b600062003c7b82620022b9565b915062003c8883620022b9565b92508262003c9b5762003c9a62003c3f565b5b828204905092915050565b600062003cb382620022b9565b915062003cc083620022b9565b92508262003cd35762003cd262003c3f565b5b828206905092915050565b7f4e487b7100000000000000000000000000000000000000000000000000000000600052603260045260246000fdfe60806040523480156200001157600080fd5b506040516200130038038062001300833981810160405281019062000037919062000185565b84600460006101000a81548173ffffffffffffffffffffffffffffffffffffffff021916908373ffffffffffffffffffffffffffffffffffffffff1602179055508360008190555082600181905550816002819055508060058190555033600360006101000a81548173ffffffffffffffffffffffffffffffffffffffff021916908373ffffffffffffffffffffffffffffffffffffffff16021790555050505050506200020d565b600080fd5b600073ffffffffffffffffffffffffffffffffffffffff82169050919050565b60006200011282620000e5565b9050919050565b620001248162000105565b81146200013057600080fd5b50565b600081519050620001448162000119565b92915050565b6000819050919050565b6200015f816200014a565b81146200016b57600080fd5b50565b6000815190506200017f8162000154565b92915050565b600080600080600060a08688031215620001a457620001a3620000e0565b5b6000620001b48882890162000133565b9550506020620001c7888289016200016e565b9450506040620001da888289016200016e565b9350506060620001ed888289016200016e565b925050608062000200888289016200016e565b9150509295509295909350565b6110e3806200021d6000396000f3fe6080604052600436106100dd5760003560e01c806362ea82db1161007f5780638da5cb5b116100595780638da5cb5b146102a25780639f6c4e6c146102cd578063dc201dc2146102f8578063ee7a3b8e14610316576100dd565b806362ea82db1461020f578063636bf7301461024c5780636a0eba9614610277576100dd565b80630ae50a39116100bb5780630ae50a39146101635780633e109a191461018e57806348cd4cb1146101b957806355a373d6146101e4576100dd565b806305be0cd1146100e25780630706ee181461010d578063083c632314610138575b600080fd5b3480156100ee57600080fd5b506100f7610341565b6040516101049190610b01565b60405180910390f35b34801561011957600080fd5b5061012261052c565b60405161012f9190610b01565b60405180910390f35b34801561014457600080fd5b5061014d6106e1565b60405161015a9190610b35565b60405180910390f35b34801561016f57600080fd5b506101786106e7565b6040516101859190610b91565b60405180910390f35b34801561019a57600080fd5b506101a3610711565b6040516101b09190610b35565b60405180910390f35b3480156101c557600080fd5b506101ce610717565b6040516101db9190610b35565b60405180910390f35b3480156101f057600080fd5b506101f961071d565b6040516102069190610c0b565b60405180910390f35b34801561021b57600080fd5b5061023660048036038101906102319190610c57565b610743565b6040516102439190610b35565b60405180910390f35b34801561025857600080fd5b5061026161075b565b60405161026e9190610b35565b60405180910390f35b34801561028357600080fd5b5061028c610761565b6040516102999190610b91565b60405180910390f35b3480156102ae57600080fd5b506102b7610787565b6040516102c49190610b91565b60405180910390f35b3480156102d957600080fd5b506102e26107ad565b6040516102ef9190610b91565b60405180910390f35b6103006107d7565b60405161030d9190610b01565b60405180910390f35b34801561032257600080fd5b5061032b610ae0565b6040516103389190610b35565b60405180910390f35b60006001544311610387576040517f08c379a000000000000000000000000000000000000000000000000000000000815260040161037e90610ce1565b60405180910390fd5b600760009054906101000a900473ffffffffffffffffffffffffffffffffffffffff1673ffffffffffffffffffffffffffffffffffffffff163373ffffffffffffffffffffffffffffffffffffffff1614806104305750600460009054906101000a900473ffffffffffffffffffffffffffffffffffffffff1673ffffffffffffffffffffffffffffffffffffffff163373ffffffffffffffffffffffffffffffffffffffff16145b61046f576040517f08c379a000000000000000000000000000000000000000000000000000000000815260040161046690610d4d565b60405180910390fd5b600060065414610528576000600681905550600360009054906101000a900473ffffffffffffffffffffffffffffffffffffffff1673ffffffffffffffffffffffffffffffffffffffff16639ac2b9a86005546040518263ffffffff1660e01b81526004016104de9190610b35565b6020604051808303816000875af11580156104fd573d6000803e3d6000fd5b505050506040513d601f19601f820116820180604052508101906105219190610d99565b9050610529565b5b90565b60006001544311610572576040517f08c379a000000000000000000000000000000000000000000000000000000000815260040161056990610ce1565b60405180910390fd5b60003390506000600860008373ffffffffffffffffffffffffffffffffffffffff1673ffffffffffffffffffffffffffffffffffffffff1681526020019081526020016000205490506000811415801561061a5750600760009054906101000a900473ffffffffffffffffffffffffffffffffffffffff1673ffffffffffffffffffffffffffffffffffffffff168273ffffffffffffffffffffffffffffffffffffffff1614155b156106db576000905060008273ffffffffffffffffffffffffffffffffffffffff168260405161064990610df7565b60006040518083038185875af1925050503d8060008114610686576040519150601f19603f3d011682016040523d82523d6000602084013e61068b565b606091505b50509050806106cf576040517f08c379a00000000000000000000000000000000000000000000000000000000081526004016106c690610e58565b60405180910390fd5b600193505050506106de565b50505b90565b60015481565b6000600460009054906101000a900473ffffffffffffffffffffffffffffffffffffffff16905090565b60025481565b60005481565b600360009054906101000a900473ffffffffffffffffffffffffffffffffffffffff1681565b60086020528060005260406000206000915090505481565b60065481565b600760009054906101000a900473ffffffffffffffffffffffffffffffffffffffff1681565b600460009054906101000a900473ffffffffffffffffffffffffffffffffffffffff1681565b6000600760009054906101000a900473ffffffffffffffffffffffffffffffffffffffff16905090565b6000803390506000439050600054811180156107f4575060015481105b610833576040517f08c379a000000000000000000000000000000000000000000000000000000000815260040161082a90610ec4565b60405180910390fd5b600460009054906101000a900473ffffffffffffffffffffffffffffffffffffffff1673ffffffffffffffffffffffffffffffffffffffff168273ffffffffffffffffffffffffffffffffffffffff16036108c3576040517f08c379a00000000000000000000000000000000000000000000000000000000081526004016108ba90610f30565b60405180910390fd5b600360009054906101000a900473ffffffffffffffffffffffffffffffffffffffff1673ffffffffffffffffffffffffffffffffffffffff1663f6918d69836040518263ffffffff1660e01b815260040161091e9190610b91565b602060405180830381865afa15801561093b573d6000803e3d6000fd5b505050506040513d601f19601f8201168201806040525081019061095f9190610d99565b61099e576040517f08c379a000000000000000000000000000000000000000000000000000000000815260040161099590610f9c565b60405180910390fd5b6000600860008473ffffffffffffffffffffffffffffffffffffffff1673ffffffffffffffffffffffffffffffffffffffff1681526020019081526020016000205403610a2a576006543411610a29576040517f08c379a0000000000000000000000000000000000000000000000000000000008152600401610a2090611008565b60405180910390fd5b5b600034600860008573ffffffffffffffffffffffffffffffffffffffff1673ffffffffffffffffffffffffffffffffffffffff1681526020019081526020016000206000828254610a7b9190611057565b9250508190559050600654811115610ad6578060068190555082600760006101000a81548173ffffffffffffffffffffffffffffffffffffffff021916908373ffffffffffffffffffffffffffffffffffffffff1602179055505b6001935050505090565b60055481565b60008115159050919050565b610afb81610ae6565b82525050565b6000602082019050610b166000830184610af2565b92915050565b6000819050919050565b610b2f81610b1c565b82525050565b6000602082019050610b4a6000830184610b26565b92915050565b600073ffffffffffffffffffffffffffffffffffffffff82169050919050565b6000610b7b82610b50565b9050919050565b610b8b81610b70565b82525050565b6000602082019050610ba66000830184610b82565b92915050565b6000819050919050565b6000610bd1610bcc610bc784610b50565b610bac565b610b50565b9050919050565b6000610be382610bb6565b9050919050565b6000610bf582610bd8565b9050919050565b610c0581610bea565b82525050565b6000602082019050610c206000830184610bfc565b92915050565b600080fd5b610c3481610b70565b8114610c3f57600080fd5b50565b600081359050610c5181610c2b565b92915050565b600060208284031215610c6d57610c6c610c26565b5b6000610c7b84828501610c42565b91505092915050565b600082825260208201905092915050565b7f41756374696f6e20686173206e6f7420656e6465640000000000000000000000600082015250565b6000610ccb601583610c84565b9150610cd682610c95565b602082019050919050565b60006020820190508181036000830152610cfa81610cbe565b9050919050565b7f4e6f7420417574686f72697a6564000000000000000000000000000000000000600082015250565b6000610d37600e83610c84565b9150610d4282610d01565b602082019050919050565b60006020820190508181036000830152610d6681610d2a565b9050919050565b610d7681610ae6565b8114610d8157600080fd5b50565b600081519050610d9381610d6d565b92915050565b600060208284031215610daf57610dae610c26565b5b6000610dbd84828501610d84565b91505092915050565b600081905092915050565b50565b6000610de1600083610dc6565b9150610dec82610dd1565b600082019050919050565b6000610e0282610dd4565b9150819050919050565b7f4661696c656420746f2073656e64204574686572000000000000000000000000600082015250565b6000610e42601483610c84565b9150610e4d82610e0c565b602082019050919050565b60006020820190508181036000830152610e7181610e35565b9050919050565b7f43616e6e6f7420706c6163652062696400000000000000000000000000000000600082015250565b6000610eae601083610c84565b9150610eb982610e78565b602082019050919050565b60006020820190508181036000830152610edd81610ea1565b9050919050565b7f4f776e65722063616e6e6f742062696400000000000000000000000000000000600082015250565b6000610f1a601083610c84565b9150610f2582610ee4565b602082019050919050565b60006020820190508181036000830152610f4981610f0d565b9050919050565b7f496e76616c6964205369676e6174757265000000000000000000000000000000600082015250565b6000610f86601183610c84565b9150610f9182610f50565b602082019050919050565b60006020820190508181036000830152610fb581610f79565b9050919050565b7f4269642076616c756520746f6f206c6f77000000000000000000000000000000600082015250565b6000610ff2601183610c84565b9150610ffd82610fbc565b602082019050919050565b6000602082019050818103600083015261102181610fe5565b9050919050565b7f4e487b7100000000000000000000000000000000000000000000000000000000600052601160045260246000fd5b600061106282610b1c565b915061106d83610b1c565b9250827fffffffffffffffffffffffffffffffffffffffffffffffffffffffffffffffff038211156110a2576110a1611028565b5b82820190509291505056fea26469706673582212208cb6ba877d584e2353e896c41c9f8deafae0818a04efbbb5d6a42a7b627d041164736f6c634300080f0033a2646970667358221220e32901285bb08173e305801ee685eec78e8ff0020feeaa2b0981000655a74ea664736f6c634300080f0033",
  "immutableReferences": {},
  "source": "// SPDX-License-Identifier: MIT\npragma solidity ^0.8.0;\nimport \"./PropertyAuction.sol\";\nimport \"./PropertyOracle.sol\";\nimport \"../node_modules/@openzeppelin/contracts/token/ERC721/extensions/ERC721URIStorage.sol\";\n\n/*\n(Useful doc to eventually use)\nkey words when writing doc (RFC 2119)\nMUST, MUST NOT, REQUIRED, SHALL, \nSHALL NOT, SHOULD NOT, RECOMMENDED, \nMAY,OPTIONAL \n*/\n\ncontract PropertyToken is ERC721URIStorage {\n\n    // Address of contract creator\n    address private commonwealth;\n\n    // Address of oracle contract\n    PropertyOracle private oracle;\n\n    // Mapping of all properties and their auctions\n    mapping (uint256 => PropertyAuction) public auctions;\n\n    // Constructor for ERC721 contract and Property contract\n    constructor(\n        address _oracle\n    ) ERC721(\"Property\", \"PTY\") {\n        oracle = PropertyOracle(_oracle);\n        commonwealth = oracle.GetCommonwealth();\n    }\n\n\n    function DigitiseProperty(address owner, uint256 newItemId) external returns(uint256) {\n        require(msg.sender == commonwealth, \"Not Commonwealth\");\n        \n        // mint NFT to represent property\n        // GetPropertyInfo will return the base64 JSON URI\n        _mint(owner, newItemId);\n        _setTokenURI(newItemId, oracle.GetPropertyInfo(newItemId));\n        return newItemId;\n    }\n\n\n    function VerifySignature(address userAddr) external view returns(bool success) {\n        // verification of signature occurs....\n        bytes memory signature = oracle.GetPublicSign(userAddr);\n\n        // step 1: create signed message verification\n        bytes32 signedMessageVerification = keccak256(abi.encodePacked(\n            \"\\x19Ethereum Signed Message:\\n32\",\n            keccak256(abi.encodePacked(\n                \"The Following Eth Address: \",\n                /// @notice To dynamically ensure that the certificate is owned by the investor calling the function\n                userAddr,\n                \" Is Certified To Participate.\"\n            ))\n        ));\n\n        // step 2: ensure correct format for signature:\n        require(signature.length == 65, \"Invalid Signature Format\");\n        \n        // step 3: derive _publicKey from byte segments\n        uint8 v;\n        bytes32 r;\n        bytes32 s;\n        assembly {\n            /// @notice After skipping the first 32 bytes of message length, value for r stored in next 32 bytes.\n            r := mload(add(signature, 32))\n            /// @notice Skip another 32 bytes of data length that holds r, to get the value of s\n            s := mload(add(signature, 64))\n            /// @notice Skip another 32 bytes of data length that holds r and s, to get the value of v\n            v := byte(0, mload(add(signature, 96)))\n        }\n\n        // step 4: return true, the user is certified, can participate in bid, else cannot\n        /// @notice This acts as proof that the investor a) controls the address in the certificate and b) the certificate is valid\n        return commonwealth == ecrecover(signedMessageVerification, v, r, s);\n    }\n\n\n    function NewAuction(uint256 _start, uint256 _end, uint256 _min, uint256 _propId) external returns(PropertyAuction addr) {\n        // Verify property ownership\n        // Verify if property already auctioned\n        // Verify provided timings make sense\n        address sender = msg.sender;\n        require(ownerOf(_propId) == sender, \"Doesn't Own This Property\");\n        require(auctions[_propId].GetOwner() == address(0), \"Already in Auction\");\n        require(_start < _end, \"Bad Auction Request\");\n\n        return auctions[_propId] = new PropertyAuction(\n            sender,\n            _start,\n            _end,\n            _min,\n            _propId\n        );\n    }\n\n\n    function TransferOwnership(uint256 _propId) external returns(bool success) {\n        // Get auction and property ownership information\n        PropertyAuction auction = auctions[_propId];\n        address currentOwner = auction.GetOwner();\n        \n        // Verify that auction is valid (created by this contract)\n        require(msg.sender == address(auction));\n        // Verify that the auction has been setup properly\n        require (currentOwner != address(0), \"Invalid Auction\");\n        \n        // Check that owner owns the property listed on the auction\n        if (ownerOf(_propId) == currentOwner) {\n            // use ERC721 interface to call transferFrom()\n            address winner = auction.GetWinner();\n            transferFrom(currentOwner, winner, _propId);\n            return true;\n        }\n    }\n}",
  "sourcePath": "/home/kanishka/Documents/GitHub/COMP6452-Blockchain-Boogaloo/contracts/PropertyToken.sol",
  "compiler": {
    "name": "solc",
    "version": "0.8.15+commit.e14f2714.Emscripten.clang"
  },
  "schemaVersion": "3.4.8",
  "updatedAt": "2022-07-06T03:20:22.137Z",
  "networkType": "ethereum",
  "devdoc": {
    "kind": "dev",
    "methods": {
      "approve(address,uint256)": {
        "details": "See {IERC721-approve}."
      },
      "balanceOf(address)": {
        "details": "See {IERC721-balanceOf}."
      },
      "getApproved(uint256)": {
        "details": "See {IERC721-getApproved}."
      },
      "isApprovedForAll(address,address)": {
        "details": "See {IERC721-isApprovedForAll}."
      },
      "name()": {
        "details": "See {IERC721Metadata-name}."
      },
      "ownerOf(uint256)": {
        "details": "See {IERC721-ownerOf}."
      },
      "safeTransferFrom(address,address,uint256)": {
        "details": "See {IERC721-safeTransferFrom}."
      },
      "safeTransferFrom(address,address,uint256,bytes)": {
        "details": "See {IERC721-safeTransferFrom}."
      },
      "setApprovalForAll(address,bool)": {
        "details": "See {IERC721-setApprovalForAll}."
      },
      "supportsInterface(bytes4)": {
        "details": "See {IERC165-supportsInterface}."
      },
      "symbol()": {
        "details": "See {IERC721Metadata-symbol}."
      },
      "tokenURI(uint256)": {
        "details": "See {IERC721Metadata-tokenURI}."
      },
      "transferFrom(address,address,uint256)": {
        "details": "See {IERC721-transferFrom}."
      }
    },
    "version": 1
  },
  "userdoc": {
    "kind": "user",
    "methods": {},
    "version": 1
  }
}