{
  "contractName": "PropertyAuction",
  "abi": [
    {
      "inputs": [],
      "stateMutability": "nonpayable",
      "type": "constructor"
    },
    {
      "inputs": [],
      "name": "PlaceBid",
      "outputs": [
        {
          "internalType": "bool",
          "name": "success",
          "type": "bool"
        }
      ],
      "stateMutability": "payable",
      "type": "function"
    },
    {
      "inputs": [],
      "name": "ClaimProperty",
      "outputs": [
        {
          "internalType": "bool",
          "name": "success",
          "type": "bool"
        }
      ],
      "stateMutability": "nonpayable",
      "type": "function"
    },
    {
      "inputs": [],
      "name": "ClaimDeposit",
      "outputs": [
        {
          "internalType": "bool",
          "name": "success",
          "type": "bool"
        }
      ],
      "stateMutability": "nonpayable",
      "type": "function"
    },
    {
      "inputs": [],
      "name": "GetWinner",
      "outputs": [
        {
          "internalType": "address",
          "name": "addr",
          "type": "address"
        }
      ],
      "stateMutability": "view",
      "type": "function"
    },
    {
      "inputs": [],
      "name": "GetOwner",
      "outputs": [
        {
          "internalType": "address",
          "name": "addr",
          "type": "address"
        }
      ],
      "stateMutability": "view",
      "type": "function"
    }
  ],
  "bytecode": "0x608060405234801561001057600080fd5b506101fa806100206000396000f3fe60806040526004361061004a5760003560e01c806305be0cd11461004f5780630706ee181461007a5780630ae50a39146100a55780639f6c4e6c146100d0578063dc201dc2146100fb575b600080fd5b34801561005b57600080fd5b50610064610119565b604051610071919061014d565b60405180910390f35b34801561008657600080fd5b5061008f61011e565b60405161009c919061014d565b60405180910390f35b3480156100b157600080fd5b506100ba610123565b6040516100c791906101a9565b60405180910390f35b3480156100dc57600080fd5b506100e5610128565b6040516100f291906101a9565b60405180910390f35b61010361012d565b604051610110919061014d565b60405180910390f35b600090565b600090565b600090565b600090565b600090565b60008115159050919050565b61014781610132565b82525050565b6000602082019050610162600083018461013e565b92915050565b600073ffffffffffffffffffffffffffffffffffffffff82169050919050565b600061019382610168565b9050919050565b6101a381610188565b82525050565b60006020820190506101be600083018461019a565b9291505056fea2646970667358221220ef5f32c9f667e0221facb687ee489cf6af0bde16ef84a8afc0c922724aa086ba64736f6c634300080f0033",
  "immutableReferences": {},
  "source": "// SPDX-License-Identifier: MIT\npragma solidity ^0.8.0;\nimport \"./PropertyToken.sol\";\n\ncontract PropertyAuction {\n\n    // Auction details \n    /*\n        To Implement\n    */\n\n    // property seller\n    /*\n        To Implement\n    */\n\n    // Bidding details\n    /*\n        To Implement\n    */\n    \n    constructor() {\n        // To Implement\n    }\n\n    function PlaceBid() external payable returns(bool success) {\n        // To Implement\n    }\n\n    function ClaimProperty() external returns(bool success) {\n        // To Implement\n    }\n\n    function ClaimDeposit() external returns(bool success) {\n        // To Implement\n    }\n    \n    function GetWinner() external view returns(address addr) {\n        // To Implement\n    }\n\n    function GetOwner() external view returns(address addr) {\n        // To Implement\n    }\n}",
  "sourcePath": "/home/kanishka/Documents/GitHub/COMP6452-Blockchain-Boogaloo/contracts/PropertyAuction.sol",
  "compiler": {
    "name": "solc",
    "version": "0.8.15+commit.e14f2714.Emscripten.clang"
  },
  "schemaVersion": "3.4.8",
  "updatedAt": "2022-07-05T06:36:53.913Z",
  "devdoc": {
    "kind": "dev",
    "methods": {},
    "version": 1
  },
  "userdoc": {
    "kind": "user",
    "methods": {},
    "version": 1
  }
}