{
  "contractName": "PropertyOracle",
  "abi": [
    {
      "inputs": [
        {
          "internalType": "address",
          "name": "_cw",
          "type": "address"
        }
      ],
      "stateMutability": "nonpayable",
      "type": "constructor"
    },
    {
      "inputs": [],
      "name": "commonwealth",
      "outputs": [
        {
          "internalType": "address",
          "name": "",
          "type": "address"
        }
      ],
      "stateMutability": "view",
      "type": "function"
    },
    {
      "inputs": [],
      "name": "propertyCount",
      "outputs": [
        {
          "internalType": "uint256",
          "name": "",
          "type": "uint256"
        }
      ],
      "stateMutability": "view",
      "type": "function"
    },
    {
      "inputs": [
        {
          "internalType": "address",
          "name": "userAddr",
          "type": "address"
        },
        {
          "internalType": "bytes",
          "name": "signature",
          "type": "bytes"
        }
      ],
      "name": "AddPublicSign",
      "outputs": [],
      "stateMutability": "nonpayable",
      "type": "function"
    },
    {
      "inputs": [
        {
          "internalType": "string",
          "name": "encodedInfo",
          "type": "string"
        }
      ],
      "name": "AddPropertyInfo",
      "outputs": [],
      "stateMutability": "nonpayable",
      "type": "function"
    },
    {
      "inputs": [
        {
          "internalType": "uint256",
          "name": "propId",
          "type": "uint256"
        },
        {
          "internalType": "string",
          "name": "encodedInfo",
          "type": "string"
        }
      ],
      "name": "UpdatePropertyInfo",
      "outputs": [],
      "stateMutability": "nonpayable",
      "type": "function"
    },
    {
      "inputs": [
        {
          "internalType": "address",
          "name": "userAddr",
          "type": "address"
        }
      ],
      "name": "GetPublicSign",
      "outputs": [
        {
          "internalType": "bytes",
          "name": "sign",
          "type": "bytes"
        }
      ],
      "stateMutability": "view",
      "type": "function"
    },
    {
      "inputs": [
        {
          "internalType": "uint256",
          "name": "propertyId",
          "type": "uint256"
        }
      ],
      "name": "GetPropertyInfo",
      "outputs": [
        {
          "internalType": "string",
          "name": "info",
          "type": "string"
        }
      ],
      "stateMutability": "view",
      "type": "function"
    },
    {
      "inputs": [],
      "name": "GetPropertyCount",
      "outputs": [
        {
          "internalType": "uint256",
          "name": "count",
          "type": "uint256"
        }
      ],
      "stateMutability": "view",
      "type": "function"
    },
    {
      "inputs": [],
      "name": "GetCommonwealth",
      "outputs": [
        {
          "internalType": "address",
          "name": "cw",
          "type": "address"
        }
      ],
      "stateMutability": "view",
      "type": "function"
    }
  ],
  "bytecode": "0x60806040523480156200001157600080fd5b506040516200119c3803806200119c8339818101604052810190620000379190620000e8565b806000806101000a81548173ffffffffffffffffffffffffffffffffffffffff021916908373ffffffffffffffffffffffffffffffffffffffff160217905550506200011a565b600080fd5b600073ffffffffffffffffffffffffffffffffffffffff82169050919050565b6000620000b08262000083565b9050919050565b620000c281620000a3565b8114620000ce57600080fd5b50565b600081519050620000e281620000b7565b92915050565b6000602082840312156200010157620001006200007e565b5b60006200011184828501620000d1565b91505092915050565b611072806200012a6000396000f3fe608060405234801561001057600080fd5b50600436106100935760003560e01c8063a957a10011610066578063a957a1001461011e578063be8e81671461013a578063c361a33514610158578063c70a43d414610176578063e36cc08e146101a657610093565b8063713f99941461009857806374f8b52e146100b45780639181c829146100e45780639605a04c14610100575b600080fd5b6100b260048036038101906100ad9190610749565b6101c4565b005b6100ce60048036038101906100c991906107f0565b61028a565b6040516100db91906108a5565b60405180910390f35b6100fe60048036038101906100f99190610968565b61035b565b005b61010861043a565b60405161011591906109d3565b60405180910390f35b61013860048036038101906101339190610a24565b610463565b005b610142610516565b60405161014f9190610a8f565b60405180910390f35b610160610520565b60405161016d9190610a8f565b60405180910390f35b610190600480360381019061018b9190610aaa565b610526565b60405161019d9190610b2c565b60405180910390f35b6101ae6105cb565b6040516101bb91906109d3565b60405180910390f35b60008054906101000a900473ffffffffffffffffffffffffffffffffffffffff1673ffffffffffffffffffffffffffffffffffffffff163373ffffffffffffffffffffffffffffffffffffffff1614610252576040517f08c379a000000000000000000000000000000000000000000000000000000000815260040161024990610b9a565b60405180910390fd5b806003600060026000815461026690610be9565b919050819055815260200190815260200160002090816102869190610e3d565b5050565b6060600160008373ffffffffffffffffffffffffffffffffffffffff1673ffffffffffffffffffffffffffffffffffffffff16815260200190815260200160002080546102d690610c60565b80601f016020809104026020016040519081016040528092919081815260200182805461030290610c60565b801561034f5780601f106103245761010080835404028352916020019161034f565b820191906000526020600020905b81548152906001019060200180831161033257829003601f168201915b50505050509050919050565b60008054906101000a900473ffffffffffffffffffffffffffffffffffffffff1673ffffffffffffffffffffffffffffffffffffffff163373ffffffffffffffffffffffffffffffffffffffff16146103e9576040517f08c379a00000000000000000000000000000000000000000000000000000000081526004016103e090610b9a565b60405180910390fd5b80600160008473ffffffffffffffffffffffffffffffffffffffff1673ffffffffffffffffffffffffffffffffffffffff16815260200190815260200160002090816104359190610f6a565b505050565b60008060009054906101000a900473ffffffffffffffffffffffffffffffffffffffff16905090565b60008054906101000a900473ffffffffffffffffffffffffffffffffffffffff1673ffffffffffffffffffffffffffffffffffffffff163373ffffffffffffffffffffffffffffffffffffffff16146104f1576040517f08c379a00000000000000000000000000000000000000000000000000000000081526004016104e890610b9a565b60405180910390fd5b806003600084815260200190815260200160002090816105119190610e3d565b505050565b6000600254905090565b60025481565b606060036000838152602001908152602001600020805461054690610c60565b80601f016020809104026020016040519081016040528092919081815260200182805461057290610c60565b80156105bf5780601f10610594576101008083540402835291602001916105bf565b820191906000526020600020905b8154815290600101906020018083116105a257829003601f168201915b50505050509050919050565b60008054906101000a900473ffffffffffffffffffffffffffffffffffffffff1681565b6000604051905090565b600080fd5b600080fd5b600080fd5b600080fd5b6000601f19601f8301169050919050565b7f4e487b7100000000000000000000000000000000000000000000000000000000600052604160045260246000fd5b6106568261060d565b810181811067ffffffffffffffff821117156106755761067461061e565b5b80604052505050565b60006106886105ef565b9050610694828261064d565b919050565b600067ffffffffffffffff8211156106b4576106b361061e565b5b6106bd8261060d565b9050602081019050919050565b82818337600083830152505050565b60006106ec6106e784610699565b61067e565b90508281526020810184848401111561070857610707610608565b5b6107138482856106ca565b509392505050565b600082601f8301126107305761072f610603565b5b81356107408482602086016106d9565b91505092915050565b60006020828403121561075f5761075e6105f9565b5b600082013567ffffffffffffffff81111561077d5761077c6105fe565b5b6107898482850161071b565b91505092915050565b600073ffffffffffffffffffffffffffffffffffffffff82169050919050565b60006107bd82610792565b9050919050565b6107cd816107b2565b81146107d857600080fd5b50565b6000813590506107ea816107c4565b92915050565b600060208284031215610806576108056105f9565b5b6000610814848285016107db565b91505092915050565b600081519050919050565b600082825260208201905092915050565b60005b8381101561085757808201518184015260208101905061083c565b83811115610866576000848401525b50505050565b60006108778261081d565b6108818185610828565b9350610891818560208601610839565b61089a8161060d565b840191505092915050565b600060208201905081810360008301526108bf818461086c565b905092915050565b600067ffffffffffffffff8211156108e2576108e161061e565b5b6108eb8261060d565b9050602081019050919050565b600061090b610906846108c7565b61067e565b90508281526020810184848401111561092757610926610608565b5b6109328482856106ca565b509392505050565b600082601f83011261094f5761094e610603565b5b813561095f8482602086016108f8565b91505092915050565b6000806040838503121561097f5761097e6105f9565b5b600061098d858286016107db565b925050602083013567ffffffffffffffff8111156109ae576109ad6105fe565b5b6109ba8582860161093a565b9150509250929050565b6109cd816107b2565b82525050565b60006020820190506109e860008301846109c4565b92915050565b6000819050919050565b610a01816109ee565b8114610a0c57600080fd5b50565b600081359050610a1e816109f8565b92915050565b60008060408385031215610a3b57610a3a6105f9565b5b6000610a4985828601610a0f565b925050602083013567ffffffffffffffff811115610a6a57610a696105fe565b5b610a768582860161071b565b9150509250929050565b610a89816109ee565b82525050565b6000602082019050610aa46000830184610a80565b92915050565b600060208284031215610ac057610abf6105f9565b5b6000610ace84828501610a0f565b91505092915050565b600081519050919050565b600082825260208201905092915050565b6000610afe82610ad7565b610b088185610ae2565b9350610b18818560208601610839565b610b218161060d565b840191505092915050565b60006020820190508181036000830152610b468184610af3565b905092915050565b7f4e6f7420417574686f72697a6564000000000000000000000000000000000000600082015250565b6000610b84600e83610ae2565b9150610b8f82610b4e565b602082019050919050565b60006020820190508181036000830152610bb381610b77565b9050919050565b7f4e487b7100000000000000000000000000000000000000000000000000000000600052601160045260246000fd5b6000610bf4826109ee565b91507fffffffffffffffffffffffffffffffffffffffffffffffffffffffffffffffff8203610c2657610c25610bba565b5b600182019050919050565b7f4e487b7100000000000000000000000000000000000000000000000000000000600052602260045260246000fd5b60006002820490506001821680610c7857607f821691505b602082108103610c8b57610c8a610c31565b5b50919050565b60008190508160005260206000209050919050565b60006020601f8301049050919050565b600082821b905092915050565b600060088302610cf37fffffffffffffffffffffffffffffffffffffffffffffffffffffffffffffffff82610cb6565b610cfd8683610cb6565b95508019841693508086168417925050509392505050565b6000819050919050565b6000610d3a610d35610d30846109ee565b610d15565b6109ee565b9050919050565b6000819050919050565b610d5483610d1f565b610d68610d6082610d41565b848454610cc3565b825550505050565b600090565b610d7d610d70565b610d88818484610d4b565b505050565b5b81811015610dac57610da1600082610d75565b600181019050610d8e565b5050565b601f821115610df157610dc281610c91565b610dcb84610ca6565b81016020851015610dda578190505b610dee610de685610ca6565b830182610d8d565b50505b505050565b600082821c905092915050565b6000610e1460001984600802610df6565b1980831691505092915050565b6000610e2d8383610e03565b9150826002028217905092915050565b610e4682610ad7565b67ffffffffffffffff811115610e5f57610e5e61061e565b5b610e698254610c60565b610e74828285610db0565b600060209050601f831160018114610ea75760008415610e95578287015190505b610e9f8582610e21565b865550610f07565b601f198416610eb586610c91565b60005b82811015610edd57848901518255600182019150602085019450602081019050610eb8565b86831015610efa5784890151610ef6601f891682610e03565b8355505b6001600288020188555050505b505050505050565b60008190508160005260206000209050919050565b601f821115610f6557610f3681610f0f565b610f3f84610ca6565b81016020851015610f4e578190505b610f62610f5a85610ca6565b830182610d8d565b50505b505050565b610f738261081d565b67ffffffffffffffff811115610f8c57610f8b61061e565b5b610f968254610c60565b610fa1828285610f24565b600060209050601f831160018114610fd45760008415610fc2578287015190505b610fcc8582610e21565b865550611034565b601f198416610fe286610f0f565b60005b8281101561100a57848901518255600182019150602085019450602081019050610fe5565b868310156110275784890151611023601f891682610e03565b8355505b6001600288020188555050505b50505050505056fea264697066735822122089cba7a58d1f4adb447ba2b7f14874964708301e3a99da2f9926731c31e9c0e564736f6c634300080f0033",
  "immutableReferences": {},
  "source": "// SPDX-License-Identifier: MIT\npragma solidity ^0.8.0;\n\ncontract PropertyOracle {\n\n    // Oracle Data\n    address public commonwealth;\n    mapping (address => bytes) private publicSigns; // map of all public signatures\n\n    // Total property count\n    uint256 public propertyCount;\n    mapping (uint256 => string) private propertyInfo; // map of all property info (tokenURI)\n\n    modifier authorized() {\n        require(msg.sender == commonwealth, \"Not Authorized\");\n        _;\n    }\n\n    constructor(\n        address _cw\n    ) {\n        commonwealth = _cw;\n    }\n\n    function AddPublicSign(address userAddr, bytes memory signature) authorized external {\n        publicSigns[userAddr] = signature;\n    }\n\n    function AddPropertyInfo(string memory encodedInfo) authorized external {\n        propertyInfo[++propertyCount] = encodedInfo;\n    }\n\n    function UpdatePropertyInfo(uint256 propId, string memory encodedInfo) authorized external {\n        propertyInfo[propId] = encodedInfo;\n    }\n\n    function GetPublicSign(address userAddr) external view returns(bytes memory sign) {\n        return publicSigns[userAddr];\n    }\n\n    function GetPropertyInfo(uint256 propertyId) external view returns(string memory info) {\n        return propertyInfo[propertyId];\n    }\n\n    function GetPropertyCount() external view returns(uint256 count) {\n        return propertyCount;\n    }\n\n    function GetCommonwealth() external view returns(address cw) {\n        return commonwealth;\n    }\n}",
  "sourcePath": "/home/kanishka/Documents/GitHub/COMP6452-Blockchain-Boogaloo/contracts/PropertyOracle.sol",
  "compiler": {
    "name": "solc",
    "version": "0.8.15+commit.e14f2714.Emscripten.clang"
  },
  "schemaVersion": "3.4.8",
  "updatedAt": "2022-07-05T08:24:37.050Z",
  "devdoc": {
    "kind": "dev",
    "methods": {},
    "version": 1
  },
  "userdoc": {
    "kind": "user",
    "methods": {},
    "version": 1
  }
}