{
  "contractName": "PropertyAuction",
  "abi": [
    {
      "inputs": [
        {
          "internalType": "address",
          "name": "_owner",
          "type": "address"
        },
        {
          "internalType": "uint256",
          "name": "_startBlock",
          "type": "uint256"
        },
        {
          "internalType": "uint256",
          "name": "_endBlock",
          "type": "uint256"
        },
        {
          "internalType": "uint256",
          "name": "_minBid",
          "type": "uint256"
        },
        {
          "internalType": "uint256",
          "name": "_prop",
          "type": "uint256"
        }
      ],
      "stateMutability": "nonpayable",
      "type": "constructor"
    },
    {
      "inputs": [
        {
          "internalType": "address",
          "name": "",
          "type": "address"
        }
      ],
      "name": "bids",
      "outputs": [
        {
          "internalType": "uint256",
          "name": "",
          "type": "uint256"
        }
      ],
      "stateMutability": "view",
      "type": "function"
    },
    {
      "inputs": [],
      "name": "endBlock",
      "outputs": [
        {
          "internalType": "uint256",
          "name": "",
          "type": "uint256"
        }
      ],
      "stateMutability": "view",
      "type": "function"
    },
    {
      "inputs": [],
      "name": "minBid",
      "outputs": [
        {
          "internalType": "uint256",
          "name": "",
          "type": "uint256"
        }
      ],
      "stateMutability": "view",
      "type": "function"
    },
    {
      "inputs": [],
      "name": "owner",
      "outputs": [
        {
          "internalType": "address",
          "name": "",
          "type": "address"
        }
      ],
      "stateMutability": "view",
      "type": "function"
    },
    {
      "inputs": [],
      "name": "propertyId",
      "outputs": [
        {
          "internalType": "uint256",
          "name": "",
          "type": "uint256"
        }
      ],
      "stateMutability": "view",
      "type": "function"
    },
    {
      "inputs": [],
      "name": "startBlock",
      "outputs": [
        {
          "internalType": "uint256",
          "name": "",
          "type": "uint256"
        }
      ],
      "stateMutability": "view",
      "type": "function"
    },
    {
      "inputs": [],
      "name": "tokenContract",
      "outputs": [
        {
          "internalType": "contract PropertyToken",
          "name": "",
          "type": "address"
        }
      ],
      "stateMutability": "view",
      "type": "function"
    },
    {
      "inputs": [],
      "name": "topAddr",
      "outputs": [
        {
          "internalType": "address",
          "name": "",
          "type": "address"
        }
      ],
      "stateMutability": "view",
      "type": "function"
    },
    {
      "inputs": [],
      "name": "topBid",
      "outputs": [
        {
          "internalType": "uint256",
          "name": "",
          "type": "uint256"
        }
      ],
      "stateMutability": "view",
      "type": "function"
    },
    {
      "inputs": [],
      "name": "PlaceBid",
      "outputs": [
        {
          "internalType": "bool",
          "name": "success",
          "type": "bool"
        }
      ],
      "stateMutability": "payable",
      "type": "function"
    },
    {
      "inputs": [],
      "name": "ClaimProperty",
      "outputs": [
        {
          "internalType": "bool",
          "name": "success",
          "type": "bool"
        }
      ],
      "stateMutability": "nonpayable",
      "type": "function"
    },
    {
      "inputs": [],
      "name": "ClaimDeposit",
      "outputs": [
        {
          "internalType": "bool",
          "name": "success",
          "type": "bool"
        }
      ],
      "stateMutability": "nonpayable",
      "type": "function"
    },
    {
      "inputs": [],
      "name": "GetWinner",
      "outputs": [
        {
          "internalType": "address",
          "name": "addr",
          "type": "address"
        }
      ],
      "stateMutability": "view",
      "type": "function"
    },
    {
      "inputs": [],
      "name": "GetOwner",
      "outputs": [
        {
          "internalType": "address",
          "name": "addr",
          "type": "address"
        }
      ],
      "stateMutability": "view",
      "type": "function"
    }
  ],
  "bytecode": "0x60806040523480156200001157600080fd5b506040516200130f3803806200130f833981810160405281019062000037919062000185565b84600460006101000a81548173ffffffffffffffffffffffffffffffffffffffff021916908373ffffffffffffffffffffffffffffffffffffffff1602179055508360008190555082600181905550816002819055508060058190555033600360006101000a81548173ffffffffffffffffffffffffffffffffffffffff021916908373ffffffffffffffffffffffffffffffffffffffff16021790555050505050506200020d565b600080fd5b600073ffffffffffffffffffffffffffffffffffffffff82169050919050565b60006200011282620000e5565b9050919050565b620001248162000105565b81146200013057600080fd5b50565b600081519050620001448162000119565b92915050565b6000819050919050565b6200015f816200014a565b81146200016b57600080fd5b50565b6000815190506200017f8162000154565b92915050565b600080600080600060a08688031215620001a457620001a3620000e0565b5b6000620001b48882890162000133565b9550506020620001c7888289016200016e565b9450506040620001da888289016200016e565b9350506060620001ed888289016200016e565b925050608062000200888289016200016e565b9150509295509295909350565b6110f2806200021d6000396000f3fe6080604052600436106100dd5760003560e01c806362ea82db1161007f5780638da5cb5b116100595780638da5cb5b146102a25780639f6c4e6c146102cd578063dc201dc2146102f8578063ee7a3b8e14610316576100dd565b806362ea82db1461020f578063636bf7301461024c5780636a0eba9614610277576100dd565b80630ae50a39116100bb5780630ae50a39146101635780633e109a191461018e57806348cd4cb1146101b957806355a373d6146101e4576100dd565b806305be0cd1146100e25780630706ee181461010d578063083c632314610138575b600080fd5b3480156100ee57600080fd5b506100f7610341565b6040516101049190610b10565b60405180910390f35b34801561011957600080fd5b5061012261052c565b60405161012f9190610b10565b60405180910390f35b34801561014457600080fd5b5061014d6106dd565b60405161015a9190610b44565b60405180910390f35b34801561016f57600080fd5b506101786106e3565b6040516101859190610ba0565b60405180910390f35b34801561019a57600080fd5b506101a361070d565b6040516101b09190610b44565b60405180910390f35b3480156101c557600080fd5b506101ce610713565b6040516101db9190610b44565b60405180910390f35b3480156101f057600080fd5b506101f9610719565b6040516102069190610c1a565b60405180910390f35b34801561021b57600080fd5b5061023660048036038101906102319190610c66565b61073f565b6040516102439190610b44565b60405180910390f35b34801561025857600080fd5b50610261610757565b60405161026e9190610b44565b60405180910390f35b34801561028357600080fd5b5061028c61075d565b6040516102999190610ba0565b60405180910390f35b3480156102ae57600080fd5b506102b7610783565b6040516102c49190610ba0565b60405180910390f35b3480156102d957600080fd5b506102e26107a9565b6040516102ef9190610ba0565b60405180910390f35b6103006107d3565b60405161030d9190610b10565b60405180910390f35b34801561032257600080fd5b5061032b610aef565b6040516103389190610b44565b60405180910390f35b60006001544311610387576040517f08c379a000000000000000000000000000000000000000000000000000000000815260040161037e90610cf0565b60405180910390fd5b600760009054906101000a900473ffffffffffffffffffffffffffffffffffffffff1673ffffffffffffffffffffffffffffffffffffffff163373ffffffffffffffffffffffffffffffffffffffff1614806104305750600460009054906101000a900473ffffffffffffffffffffffffffffffffffffffff1673ffffffffffffffffffffffffffffffffffffffff163373ffffffffffffffffffffffffffffffffffffffff16145b61046f576040517f08c379a000000000000000000000000000000000000000000000000000000000815260040161046690610d5c565b60405180910390fd5b600060065414610528576000600681905550600360009054906101000a900473ffffffffffffffffffffffffffffffffffffffff1673ffffffffffffffffffffffffffffffffffffffff16639ac2b9a86005546040518263ffffffff1660e01b81526004016104de9190610b44565b6020604051808303816000875af11580156104fd573d6000803e3d6000fd5b505050506040513d601f19601f820116820180604052508101906105219190610da8565b9050610529565b5b90565b6000803390506000600860008373ffffffffffffffffffffffffffffffffffffffff1673ffffffffffffffffffffffffffffffffffffffff168152602001908152602001600020549050600081141580156105d55750600760009054906101000a900473ffffffffffffffffffffffffffffffffffffffff1673ffffffffffffffffffffffffffffffffffffffff168273ffffffffffffffffffffffffffffffffffffffff1614155b156106d7576000600860008473ffffffffffffffffffffffffffffffffffffffff1673ffffffffffffffffffffffffffffffffffffffff1681526020019081526020016000208190555060008273ffffffffffffffffffffffffffffffffffffffff168260405161064590610e06565b60006040518083038185875af1925050503d8060008114610682576040519150601f19603f3d011682016040523d82523d6000602084013e610687565b606091505b50509050806106cb576040517f08c379a00000000000000000000000000000000000000000000000000000000081526004016106c290610e67565b60405180910390fd5b600193505050506106da565b50505b90565b60015481565b6000600460009054906101000a900473ffffffffffffffffffffffffffffffffffffffff16905090565b60025481565b60005481565b600360009054906101000a900473ffffffffffffffffffffffffffffffffffffffff1681565b60086020528060005260406000206000915090505481565b60065481565b600760009054906101000a900473ffffffffffffffffffffffffffffffffffffffff1681565b600460009054906101000a900473ffffffffffffffffffffffffffffffffffffffff1681565b6000600760009054906101000a900473ffffffffffffffffffffffffffffffffffffffff16905090565b6000803390506000439050600054811180156107f0575060015481105b61082f576040517f08c379a000000000000000000000000000000000000000000000000000000000815260040161082690610ed3565b60405180910390fd5b600460009054906101000a900473ffffffffffffffffffffffffffffffffffffffff1673ffffffffffffffffffffffffffffffffffffffff168273ffffffffffffffffffffffffffffffffffffffff16036108bf576040517f08c379a00000000000000000000000000000000000000000000000000000000081526004016108b690610f3f565b60405180910390fd5b600360009054906101000a900473ffffffffffffffffffffffffffffffffffffffff1673ffffffffffffffffffffffffffffffffffffffff1663f6918d69836040518263ffffffff1660e01b815260040161091a9190610ba0565b602060405180830381865afa158015610937573d6000803e3d6000fd5b505050506040513d601f19601f8201168201806040525081019061095b9190610da8565b61099a576040517f08c379a000000000000000000000000000000000000000000000000000000000815260040161099190610fab565b60405180910390fd5b60003490506000600860008573ffffffffffffffffffffffffffffffffffffffff1673ffffffffffffffffffffffffffffffffffffffff1681526020019081526020016000205403610a3857600654811180156109f8575060025481115b610a37576040517f08c379a0000000000000000000000000000000000000000000000000000000008152600401610a2e90611017565b60405180910390fd5b5b600034600860008673ffffffffffffffffffffffffffffffffffffffff1673ffffffffffffffffffffffffffffffffffffffff1681526020019081526020016000206000828254610a899190611066565b9250508190559050600654811115610ae4578060068190555083600760006101000a81548173ffffffffffffffffffffffffffffffffffffffff021916908373ffffffffffffffffffffffffffffffffffffffff1602179055505b600194505050505090565b60055481565b60008115159050919050565b610b0a81610af5565b82525050565b6000602082019050610b256000830184610b01565b92915050565b6000819050919050565b610b3e81610b2b565b82525050565b6000602082019050610b596000830184610b35565b92915050565b600073ffffffffffffffffffffffffffffffffffffffff82169050919050565b6000610b8a82610b5f565b9050919050565b610b9a81610b7f565b82525050565b6000602082019050610bb56000830184610b91565b92915050565b6000819050919050565b6000610be0610bdb610bd684610b5f565b610bbb565b610b5f565b9050919050565b6000610bf282610bc5565b9050919050565b6000610c0482610be7565b9050919050565b610c1481610bf9565b82525050565b6000602082019050610c2f6000830184610c0b565b92915050565b600080fd5b610c4381610b7f565b8114610c4e57600080fd5b50565b600081359050610c6081610c3a565b92915050565b600060208284031215610c7c57610c7b610c35565b5b6000610c8a84828501610c51565b91505092915050565b600082825260208201905092915050565b7f41756374696f6e20686173206e6f7420656e6465640000000000000000000000600082015250565b6000610cda601583610c93565b9150610ce582610ca4565b602082019050919050565b60006020820190508181036000830152610d0981610ccd565b9050919050565b7f4e6f7420417574686f72697a6564000000000000000000000000000000000000600082015250565b6000610d46600e83610c93565b9150610d5182610d10565b602082019050919050565b60006020820190508181036000830152610d7581610d39565b9050919050565b610d8581610af5565b8114610d9057600080fd5b50565b600081519050610da281610d7c565b92915050565b600060208284031215610dbe57610dbd610c35565b5b6000610dcc84828501610d93565b91505092915050565b600081905092915050565b50565b6000610df0600083610dd5565b9150610dfb82610de0565b600082019050919050565b6000610e1182610de3565b9150819050919050565b7f4661696c656420746f2073656e64204574686572000000000000000000000000600082015250565b6000610e51601483610c93565b9150610e5c82610e1b565b602082019050919050565b60006020820190508181036000830152610e8081610e44565b9050919050565b7f43616e6e6f7420706c6163652062696400000000000000000000000000000000600082015250565b6000610ebd601083610c93565b9150610ec882610e87565b602082019050919050565b60006020820190508181036000830152610eec81610eb0565b9050919050565b7f4f776e65722063616e6e6f742062696400000000000000000000000000000000600082015250565b6000610f29601083610c93565b9150610f3482610ef3565b602082019050919050565b60006020820190508181036000830152610f5881610f1c565b9050919050565b7f496e76616c6964205369676e6174757265000000000000000000000000000000600082015250565b6000610f95601183610c93565b9150610fa082610f5f565b602082019050919050565b60006020820190508181036000830152610fc481610f88565b9050919050565b7f4269642076616c756520746f6f206c6f77000000000000000000000000000000600082015250565b6000611001601183610c93565b915061100c82610fcb565b602082019050919050565b6000602082019050818103600083015261103081610ff4565b9050919050565b7f4e487b7100000000000000000000000000000000000000000000000000000000600052601160045260246000fd5b600061107182610b2b565b915061107c83610b2b565b9250827fffffffffffffffffffffffffffffffffffffffffffffffffffffffffffffffff038211156110b1576110b0611037565b5b82820190509291505056fea2646970667358221220bcec1286c7c29a8697f13fb22003cbf8bc3cb8316138bc9743f06ba1fa0beb1064736f6c634300080f0033",
  "immutableReferences": {},
  "source": "// SPDX-License-Identifier: MIT\npragma solidity ^0.8.0;\nimport \"./PropertyToken.sol\";\n\ncontract PropertyAuction {\n\n    // Auction details \n    uint256 public startBlock;\n    uint256 public endBlock;\n    uint256 public minBid;\n\n    // property seller\n    PropertyToken public tokenContract;\n    address public owner;\n    uint256 public propertyId;\n\n    // Bidding details\n    uint256 public topBid; // top bid value\n    address public topAddr; // top bidder address\n    mapping (address => uint256) public bids; // map of all bids\n    \n    constructor(\n        address _owner, \n        uint256 _startBlock, \n        uint256 _endBlock, \n        uint256 _minBid,\n        uint256 _prop\n    ) {\n        owner = _owner;\n        startBlock = _startBlock;\n        endBlock = _endBlock;\n        minBid = _minBid;\n        propertyId = _prop;\n        tokenContract = PropertyToken(msg.sender);\n    }\n\n    // Bidding function\n    // update top bidder as bids are placed\n    // signature - The public key signature that is given by commonwealth after certification\n    function PlaceBid() external payable returns(bool success) {\n        address sender = msg.sender;\n        uint256 nowBlock = block.number;\n        require(nowBlock > startBlock && nowBlock < endBlock, \"Cannot place bid\");\n        require(sender != owner, \"Owner cannot bid\");\n\n        // Ensures that provided signature is valid / certified\n        require(tokenContract.VerifySignature(sender), \"Invalid Signature\");\n\n        // If its their first bid, ensure it's > topBid, otherwise don't accept bid\n        // and let them bid as usual, add new ether deposit onto old ether deposit\n        uint256 value = msg.value;\n        if (bids[sender] == 0) {\n            require(value > topBid && value > minBid, \"Bid value too low\");\n        }\n\n        // Here, we're using the addition arithmetic\n        // because a person should be able to place\n        // multiple bids to outbid the competition.\n        // Similar to Gumtree / other auction services.\n        uint256 newBid = bids[sender] += msg.value;\n        if (newBid > topBid) {\n            topBid = newBid;\n            topAddr = sender;\n        }\n        return true;\n    }\n\n    // Property Claiming function\n    // simply check if top[msg.sender] != 0\n    function ClaimProperty() external returns(bool success) {\n        require(block.number > endBlock, \"Auction has not ended\");\n        require(msg.sender == topAddr || msg.sender == owner, \"Not Authorized\");\n        if (topBid != 0) {\n            // ensure that claimAsset can't be called multiple times\n            topBid = 0;\n            return tokenContract.TransferOwnership(propertyId);\n        }\n    }\n\n    // all unusccessful bidders can claim their ether back at anytime\n    function ClaimDeposit() external returns(bool success) {\n        address sender = msg.sender;\n        uint256 deposit = bids[sender];\n\n        // Ensure that the caller is actually a bidder\n        // Also ensure that the caller isn't the auction winner\n        if (deposit != 0 && sender != topAddr) {\n            bids[sender] = 0; // change to 0 immediately\n\n            (bool sent, ) = payable(sender).call{value: deposit}(\"\");\n            require(sent, \"Failed to send Ether\");\n            return true;\n        }\n    }\n    \n    // We need an 'external' function to allow factory contract\n    // to retrieve the address of the winner, to set new owner\n    function GetWinner() external view returns(address addr) {\n        return topAddr;\n    }\n\n    // We need an 'external' function to allow factory contract\n    // to verify that the auction was created by factory, and not 3rd party\n    function GetOwner() external view returns(address addr) {\n        return owner;\n    }\n}",
  "sourcePath": "/Users/michael/boogeyboogeyboogey/COMP6452-Blockchain-Boogaloo/contracts/PropertyAuction.sol",
  "compiler": {
    "name": "solc",
    "version": "0.8.15+commit.e14f2714.Emscripten.clang"
  },
  "schemaVersion": "3.4.6",
  "updatedAt": "2022-07-17T11:04:23.033Z",
  "devdoc": {
    "kind": "dev",
    "methods": {},
    "version": 1
  },
  "userdoc": {
    "kind": "user",
    "methods": {},
    "version": 1
  }
}