{
  "contractName": "PropertyOracle",
  "abi": [
    {
      "inputs": [
        {
          "internalType": "address",
          "name": "_cw",
          "type": "address"
        }
      ],
      "stateMutability": "nonpayable",
      "type": "constructor"
    },
    {
      "inputs": [],
      "name": "commonwealth",
      "outputs": [
        {
          "internalType": "address",
          "name": "",
          "type": "address"
        }
      ],
      "stateMutability": "view",
      "type": "function",
      "constant": true
    },
    {
      "inputs": [
        {
          "internalType": "address",
          "name": "userAddr",
          "type": "address"
        },
        {
          "internalType": "bytes",
          "name": "signature",
          "type": "bytes"
        }
      ],
      "name": "AddPublicSign",
      "outputs": [],
      "stateMutability": "nonpayable",
      "type": "function"
    },
    {
      "inputs": [
        {
          "internalType": "uint256",
          "name": "propId",
          "type": "uint256"
        },
        {
          "internalType": "string",
          "name": "encodedInfo",
          "type": "string"
        }
      ],
      "name": "AddPropertyInfo",
      "outputs": [
        {
          "internalType": "uint256",
          "name": "",
          "type": "uint256"
        }
      ],
      "stateMutability": "nonpayable",
      "type": "function"
    },
    {
      "inputs": [
        {
          "internalType": "uint256",
          "name": "propId",
          "type": "uint256"
        },
        {
          "internalType": "string",
          "name": "encodedInfo",
          "type": "string"
        }
      ],
      "name": "UpdatePropertyInfo",
      "outputs": [],
      "stateMutability": "nonpayable",
      "type": "function"
    },
    {
      "inputs": [
        {
          "internalType": "address",
          "name": "userAddr",
          "type": "address"
        }
      ],
      "name": "GetPublicSign",
      "outputs": [
        {
          "internalType": "bytes",
          "name": "sign",
          "type": "bytes"
        }
      ],
      "stateMutability": "view",
      "type": "function",
      "constant": true
    },
    {
      "inputs": [
        {
          "internalType": "uint256",
          "name": "propertyId",
          "type": "uint256"
        }
      ],
      "name": "GetPropertyInfo",
      "outputs": [
        {
          "internalType": "string",
          "name": "info",
          "type": "string"
        }
      ],
      "stateMutability": "view",
      "type": "function",
      "constant": true
    },
    {
      "inputs": [],
      "name": "GetPropertyCount",
      "outputs": [
        {
          "internalType": "uint256",
          "name": "count",
          "type": "uint256"
        }
      ],
      "stateMutability": "view",
      "type": "function",
      "constant": true
    },
    {
      "inputs": [],
      "name": "GetCommonwealth",
      "outputs": [
        {
          "internalType": "address",
          "name": "cw",
          "type": "address"
        }
      ],
      "stateMutability": "view",
      "type": "function",
      "constant": true
    }
  ],
  "bytecode": "0x60806040523480156200001157600080fd5b50604051620010b8380380620010b88339818101604052810190620000379190620000e8565b806000806101000a81548173ffffffffffffffffffffffffffffffffffffffff021916908373ffffffffffffffffffffffffffffffffffffffff160217905550506200011a565b600080fd5b600073ffffffffffffffffffffffffffffffffffffffff82169050919050565b6000620000b08262000083565b9050919050565b620000c281620000a3565b8114620000ce57600080fd5b50565b600081519050620000e281620000b7565b92915050565b6000602082840312156200010157620001006200007e565b5b60006200011184828501620000d1565b91505092915050565b610f8e806200012a6000396000f3fe608060405234801561001057600080fd5b50600436106100885760003560e01c8063be8e81671161005b578063be8e816714610113578063c6f3ecb514610131578063c70a43d414610161578063e36cc08e1461019157610088565b806374f8b52e1461008d5780639181c829146100bd5780639605a04c146100d9578063a957a100146100f7575b600080fd5b6100a760048036038101906100a2919061063d565b6101af565b6040516100b49190610703565b60405180910390f35b6100d760048036038101906100d2919061085a565b610280565b005b6100e161035f565b6040516100ee91906108c5565b60405180910390f35b610111600480360381019061010c91906109b7565b610388565b005b61011b61043b565b6040516101289190610a22565b60405180910390f35b61014b600480360381019061014691906109b7565b610445565b6040516101589190610a22565b60405180910390f35b61017b60048036038101906101769190610a3d565b610502565b6040516101889190610abf565b60405180910390f35b6101996105a7565b6040516101a691906108c5565b60405180910390f35b6060600160008373ffffffffffffffffffffffffffffffffffffffff1673ffffffffffffffffffffffffffffffffffffffff16815260200190815260200160002080546101fb90610b10565b80601f016020809104026020016040519081016040528092919081815260200182805461022790610b10565b80156102745780601f1061024957610100808354040283529160200191610274565b820191906000526020600020905b81548152906001019060200180831161025757829003601f168201915b50505050509050919050565b60008054906101000a900473ffffffffffffffffffffffffffffffffffffffff1673ffffffffffffffffffffffffffffffffffffffff163373ffffffffffffffffffffffffffffffffffffffff161461030e576040517f08c379a000000000000000000000000000000000000000000000000000000000815260040161030590610b8d565b60405180910390fd5b80600160008473ffffffffffffffffffffffffffffffffffffffff1673ffffffffffffffffffffffffffffffffffffffff168152602001908152602001600020908161035a9190610d59565b505050565b60008060009054906101000a900473ffffffffffffffffffffffffffffffffffffffff16905090565b60008054906101000a900473ffffffffffffffffffffffffffffffffffffffff1673ffffffffffffffffffffffffffffffffffffffff163373ffffffffffffffffffffffffffffffffffffffff1614610416576040517f08c379a000000000000000000000000000000000000000000000000000000000815260040161040d90610b8d565b60405180910390fd5b806003600084815260200190815260200160002090816104369190610e86565b505050565b6000600254905090565b60008060009054906101000a900473ffffffffffffffffffffffffffffffffffffffff1673ffffffffffffffffffffffffffffffffffffffff163373ffffffffffffffffffffffffffffffffffffffff16146104d6576040517f08c379a00000000000000000000000000000000000000000000000000000000081526004016104cd90610b8d565b60405180910390fd5b816003600085815260200190815260200160002090816104f69190610e86565b50600254905092915050565b606060036000838152602001908152602001600020805461052290610b10565b80601f016020809104026020016040519081016040528092919081815260200182805461054e90610b10565b801561059b5780601f106105705761010080835404028352916020019161059b565b820191906000526020600020905b81548152906001019060200180831161057e57829003601f168201915b50505050509050919050565b60008054906101000a900473ffffffffffffffffffffffffffffffffffffffff1681565b6000604051905090565b600080fd5b600080fd5b600073ffffffffffffffffffffffffffffffffffffffff82169050919050565b600061060a826105df565b9050919050565b61061a816105ff565b811461062557600080fd5b50565b60008135905061063781610611565b92915050565b600060208284031215610653576106526105d5565b5b600061066184828501610628565b91505092915050565b600081519050919050565b600082825260208201905092915050565b60005b838110156106a4578082015181840152602081019050610689565b838111156106b3576000848401525b50505050565b6000601f19601f8301169050919050565b60006106d58261066a565b6106df8185610675565b93506106ef818560208601610686565b6106f8816106b9565b840191505092915050565b6000602082019050818103600083015261071d81846106ca565b905092915050565b600080fd5b600080fd5b7f4e487b7100000000000000000000000000000000000000000000000000000000600052604160045260246000fd5b610767826106b9565b810181811067ffffffffffffffff821117156107865761078561072f565b5b80604052505050565b60006107996105cb565b90506107a5828261075e565b919050565b600067ffffffffffffffff8211156107c5576107c461072f565b5b6107ce826106b9565b9050602081019050919050565b82818337600083830152505050565b60006107fd6107f8846107aa565b61078f565b9050828152602081018484840111156108195761081861072a565b5b6108248482856107db565b509392505050565b600082601f83011261084157610840610725565b5b81356108518482602086016107ea565b91505092915050565b60008060408385031215610871576108706105d5565b5b600061087f85828601610628565b925050602083013567ffffffffffffffff8111156108a05761089f6105da565b5b6108ac8582860161082c565b9150509250929050565b6108bf816105ff565b82525050565b60006020820190506108da60008301846108b6565b92915050565b6000819050919050565b6108f3816108e0565b81146108fe57600080fd5b50565b600081359050610910816108ea565b92915050565b600067ffffffffffffffff8211156109315761093061072f565b5b61093a826106b9565b9050602081019050919050565b600061095a61095584610916565b61078f565b9050828152602081018484840111156109765761097561072a565b5b6109818482856107db565b509392505050565b600082601f83011261099e5761099d610725565b5b81356109ae848260208601610947565b91505092915050565b600080604083850312156109ce576109cd6105d5565b5b60006109dc85828601610901565b925050602083013567ffffffffffffffff8111156109fd576109fc6105da565b5b610a0985828601610989565b9150509250929050565b610a1c816108e0565b82525050565b6000602082019050610a376000830184610a13565b92915050565b600060208284031215610a5357610a526105d5565b5b6000610a6184828501610901565b91505092915050565b600081519050919050565b600082825260208201905092915050565b6000610a9182610a6a565b610a9b8185610a75565b9350610aab818560208601610686565b610ab4816106b9565b840191505092915050565b60006020820190508181036000830152610ad98184610a86565b905092915050565b7f4e487b7100000000000000000000000000000000000000000000000000000000600052602260045260246000fd5b60006002820490506001821680610b2857607f821691505b602082108103610b3b57610b3a610ae1565b5b50919050565b7f4e6f7420417574686f72697a6564000000000000000000000000000000000000600082015250565b6000610b77600e83610a75565b9150610b8282610b41565b602082019050919050565b60006020820190508181036000830152610ba681610b6a565b9050919050565b60008190508160005260206000209050919050565b60006020601f8301049050919050565b600082821b905092915050565b600060088302610c0f7fffffffffffffffffffffffffffffffffffffffffffffffffffffffffffffffff82610bd2565b610c198683610bd2565b95508019841693508086168417925050509392505050565b6000819050919050565b6000610c56610c51610c4c846108e0565b610c31565b6108e0565b9050919050565b6000819050919050565b610c7083610c3b565b610c84610c7c82610c5d565b848454610bdf565b825550505050565b600090565b610c99610c8c565b610ca4818484610c67565b505050565b5b81811015610cc857610cbd600082610c91565b600181019050610caa565b5050565b601f821115610d0d57610cde81610bad565b610ce784610bc2565b81016020851015610cf6578190505b610d0a610d0285610bc2565b830182610ca9565b50505b505050565b600082821c905092915050565b6000610d3060001984600802610d12565b1980831691505092915050565b6000610d498383610d1f565b9150826002028217905092915050565b610d628261066a565b67ffffffffffffffff811115610d7b57610d7a61072f565b5b610d858254610b10565b610d90828285610ccc565b600060209050601f831160018114610dc35760008415610db1578287015190505b610dbb8582610d3d565b865550610e23565b601f198416610dd186610bad565b60005b82811015610df957848901518255600182019150602085019450602081019050610dd4565b86831015610e165784890151610e12601f891682610d1f565b8355505b6001600288020188555050505b505050505050565b60008190508160005260206000209050919050565b601f821115610e8157610e5281610e2b565b610e5b84610bc2565b81016020851015610e6a578190505b610e7e610e7685610bc2565b830182610ca9565b50505b505050565b610e8f82610a6a565b67ffffffffffffffff811115610ea857610ea761072f565b5b610eb28254610b10565b610ebd828285610e40565b600060209050601f831160018114610ef05760008415610ede578287015190505b610ee88582610d3d565b865550610f50565b601f198416610efe86610e2b565b60005b82811015610f2657848901518255600182019150602085019450602081019050610f01565b86831015610f435784890151610f3f601f891682610d1f565b8355505b6001600288020188555050505b50505050505056fea26469706673582212203819084ed97a9be6a895cc4c8ff9a4e6bc27d69e735a368973555bb426e3515364736f6c634300080f0033",
  "immutableReferences": {},
  "source": "// SPDX-License-Identifier: MIT\r\npragma solidity ^0.8.0;\r\n\r\ncontract PropertyOracle {\r\n\r\n    // Oracle Data\r\n    address public commonwealth;\r\n    modifier authorized() {\r\n            require(msg.sender == commonwealth, \"Not Authorized\");\r\n            _;\r\n    }\r\n\r\n    // User Data\r\n    mapping (address => bytes) private publicSign; // map of all public signatures\r\n\r\n    // Total property count\r\n    uint256 private propertyCount;\r\n    mapping (uint256 => string) private propertyInfo; // map of all property info (tokenURI)\r\n\r\n    constructor(\r\n        address _cw\r\n    ) {\r\n        commonwealth = _cw;\r\n    }\r\n\r\n    function AddPublicSign(address userAddr, bytes memory signature) authorized external {\r\n        publicSign[userAddr] = signature;\r\n    }\r\n\r\n    function AddPropertyInfo(uint256 propId, string memory encodedInfo) authorized external returns(uint256) {\r\n        propertyInfo[propId] = encodedInfo;\r\n        return propertyCount;\r\n    }\r\n\r\n    function UpdatePropertyInfo(uint256 propId, string memory encodedInfo) authorized external {\r\n        propertyInfo[propId] = encodedInfo;\r\n    }\r\n\r\n    function GetPublicSign(address userAddr) external view returns(bytes memory sign) {\r\n        return publicSign[userAddr];\r\n    }\r\n\r\n    function GetPropertyInfo(uint256 propertyId) external view returns(string memory info) {\r\n        return propertyInfo[propertyId];\r\n    }\r\n\r\n    function GetPropertyCount() external view returns(uint256 count) {\r\n        return propertyCount;\r\n    }\r\n\r\n    function GetCommonwealth() external view returns(address cw) {\r\n        return commonwealth;\r\n    }\r\n}",
  "sourcePath": "D:\\UNI\\6th year\\T2\\COMP6452\\Group Project\\COMP6452-Blockchain-Boogaloo\\contracts\\PropertyOracle.sol",
  "compiler": {
    "name": "solc",
    "version": "0.8.15+commit.e14f2714.Emscripten.clang"
  },
  "schemaVersion": "3.4.8",
  "updatedAt": "2022-07-18T04:17:01.698Z",
  "networkType": "ethereum",
  "devdoc": {
    "kind": "dev",
    "methods": {},
    "version": 1
  },
  "userdoc": {
    "kind": "user",
    "methods": {},
    "version": 1
  }
}