{
  "contractName": "PropertyToken",
  "abi": [
    {
      "inputs": [
        {
          "internalType": "address",
          "name": "_oracle",
          "type": "address"
        }
      ],
      "stateMutability": "nonpayable",
      "type": "constructor"
    },
    {
      "anonymous": false,
      "inputs": [
        {
          "indexed": true,
          "internalType": "address",
          "name": "owner",
          "type": "address"
        },
        {
          "indexed": true,
          "internalType": "address",
          "name": "approved",
          "type": "address"
        },
        {
          "indexed": true,
          "internalType": "uint256",
          "name": "tokenId",
          "type": "uint256"
        }
      ],
      "name": "Approval",
      "type": "event"
    },
    {
      "anonymous": false,
      "inputs": [
        {
          "indexed": true,
          "internalType": "address",
          "name": "owner",
          "type": "address"
        },
        {
          "indexed": true,
          "internalType": "address",
          "name": "operator",
          "type": "address"
        },
        {
          "indexed": false,
          "internalType": "bool",
          "name": "approved",
          "type": "bool"
        }
      ],
      "name": "ApprovalForAll",
      "type": "event"
    },
    {
      "anonymous": false,
      "inputs": [
        {
          "indexed": true,
          "internalType": "address",
          "name": "from",
          "type": "address"
        },
        {
          "indexed": true,
          "internalType": "address",
          "name": "to",
          "type": "address"
        },
        {
          "indexed": true,
          "internalType": "uint256",
          "name": "tokenId",
          "type": "uint256"
        }
      ],
      "name": "Transfer",
      "type": "event"
    },
    {
      "inputs": [
        {
          "internalType": "address",
          "name": "to",
          "type": "address"
        },
        {
          "internalType": "uint256",
          "name": "tokenId",
          "type": "uint256"
        }
      ],
      "name": "approve",
      "outputs": [],
      "stateMutability": "nonpayable",
      "type": "function"
    },
    {
      "inputs": [
        {
          "internalType": "address",
          "name": "owner",
          "type": "address"
        }
      ],
      "name": "balanceOf",
      "outputs": [
        {
          "internalType": "uint256",
          "name": "",
          "type": "uint256"
        }
      ],
      "stateMutability": "view",
      "type": "function",
      "constant": true
    },
    {
      "inputs": [
        {
          "internalType": "uint256",
          "name": "tokenId",
          "type": "uint256"
        }
      ],
      "name": "getApproved",
      "outputs": [
        {
          "internalType": "address",
          "name": "",
          "type": "address"
        }
      ],
      "stateMutability": "view",
      "type": "function",
      "constant": true
    },
    {
      "inputs": [
        {
          "internalType": "address",
          "name": "owner",
          "type": "address"
        },
        {
          "internalType": "address",
          "name": "operator",
          "type": "address"
        }
      ],
      "name": "isApprovedForAll",
      "outputs": [
        {
          "internalType": "bool",
          "name": "",
          "type": "bool"
        }
      ],
      "stateMutability": "view",
      "type": "function",
      "constant": true
    },
    {
      "inputs": [],
      "name": "name",
      "outputs": [
        {
          "internalType": "string",
          "name": "",
          "type": "string"
        }
      ],
      "stateMutability": "view",
      "type": "function",
      "constant": true
    },
    {
      "inputs": [
        {
          "internalType": "uint256",
          "name": "tokenId",
          "type": "uint256"
        }
      ],
      "name": "ownerOf",
      "outputs": [
        {
          "internalType": "address",
          "name": "",
          "type": "address"
        }
      ],
      "stateMutability": "view",
      "type": "function",
      "constant": true
    },
    {
      "inputs": [
        {
          "internalType": "address",
          "name": "from",
          "type": "address"
        },
        {
          "internalType": "address",
          "name": "to",
          "type": "address"
        },
        {
          "internalType": "uint256",
          "name": "tokenId",
          "type": "uint256"
        }
      ],
      "name": "safeTransferFrom",
      "outputs": [],
      "stateMutability": "nonpayable",
      "type": "function"
    },
    {
      "inputs": [
        {
          "internalType": "address",
          "name": "from",
          "type": "address"
        },
        {
          "internalType": "address",
          "name": "to",
          "type": "address"
        },
        {
          "internalType": "uint256",
          "name": "tokenId",
          "type": "uint256"
        },
        {
          "internalType": "bytes",
          "name": "data",
          "type": "bytes"
        }
      ],
      "name": "safeTransferFrom",
      "outputs": [],
      "stateMutability": "nonpayable",
      "type": "function"
    },
    {
      "inputs": [
        {
          "internalType": "address",
          "name": "operator",
          "type": "address"
        },
        {
          "internalType": "bool",
          "name": "approved",
          "type": "bool"
        }
      ],
      "name": "setApprovalForAll",
      "outputs": [],
      "stateMutability": "nonpayable",
      "type": "function"
    },
    {
      "inputs": [
        {
          "internalType": "bytes4",
          "name": "interfaceId",
          "type": "bytes4"
        }
      ],
      "name": "supportsInterface",
      "outputs": [
        {
          "internalType": "bool",
          "name": "",
          "type": "bool"
        }
      ],
      "stateMutability": "view",
      "type": "function",
      "constant": true
    },
    {
      "inputs": [],
      "name": "symbol",
      "outputs": [
        {
          "internalType": "string",
          "name": "",
          "type": "string"
        }
      ],
      "stateMutability": "view",
      "type": "function",
      "constant": true
    },
    {
      "inputs": [
        {
          "internalType": "uint256",
          "name": "tokenId",
          "type": "uint256"
        }
      ],
      "name": "tokenURI",
      "outputs": [
        {
          "internalType": "string",
          "name": "",
          "type": "string"
        }
      ],
      "stateMutability": "view",
      "type": "function",
      "constant": true
    },
    {
      "inputs": [
        {
          "internalType": "address",
          "name": "from",
          "type": "address"
        },
        {
          "internalType": "address",
          "name": "to",
          "type": "address"
        },
        {
          "internalType": "uint256",
          "name": "tokenId",
          "type": "uint256"
        }
      ],
      "name": "transferFrom",
      "outputs": [],
      "stateMutability": "nonpayable",
      "type": "function"
    },
    {
      "inputs": [
        {
          "internalType": "address",
          "name": "owner",
          "type": "address"
        }
      ],
      "name": "DigitiseProperty",
      "outputs": [
        {
          "internalType": "uint256",
          "name": "",
          "type": "uint256"
        }
      ],
      "stateMutability": "nonpayable",
      "type": "function"
    },
    {
      "inputs": [
        {
          "internalType": "address",
          "name": "signer",
          "type": "address"
        }
      ],
      "name": "VerifySignature",
      "outputs": [
        {
          "internalType": "bool",
          "name": "success",
          "type": "bool"
        }
      ],
      "stateMutability": "view",
      "type": "function",
      "constant": true
    },
    {
      "inputs": [
        {
          "internalType": "uint256",
          "name": "_start",
          "type": "uint256"
        },
        {
          "internalType": "uint256",
          "name": "_end",
          "type": "uint256"
        },
        {
          "internalType": "uint256",
          "name": "_min",
          "type": "uint256"
        },
        {
          "internalType": "uint256",
          "name": "_propId",
          "type": "uint256"
        }
      ],
      "name": "NewAuction",
      "outputs": [
        {
          "internalType": "contract PropertyAuction",
          "name": "addr",
          "type": "address"
        }
      ],
      "stateMutability": "nonpayable",
      "type": "function"
    },
    {
      "inputs": [
        {
          "internalType": "uint256",
          "name": "_propId",
          "type": "uint256"
        }
      ],
      "name": "TransferOwnership",
      "outputs": [
        {
          "internalType": "bool",
          "name": "success",
          "type": "bool"
        }
      ],
      "stateMutability": "view",
      "type": "function",
      "constant": true
    }
  ],
  "bytecode": "0x60806040523480156200001157600080fd5b5060405162002a7e38038062002a7e83398181016040528101906200003791906200024f565b6040518060400160405280600881526020017f50726f70657274790000000000000000000000000000000000000000000000008152506040518060400160405280600381526020017f50545900000000000000000000000000000000000000000000000000000000008152508160009081620000b49190620004fb565b508060019081620000c69190620004fb565b50505080600860006101000a81548173ffffffffffffffffffffffffffffffffffffffff021916908373ffffffffffffffffffffffffffffffffffffffff160217905550600860009054906101000a900473ffffffffffffffffffffffffffffffffffffffff1673ffffffffffffffffffffffffffffffffffffffff16639605a04c6040518163ffffffff1660e01b8152600401602060405180830381865afa15801562000178573d6000803e3d6000fd5b505050506040513d601f19601f820116820180604052508101906200019e91906200024f565b600760006101000a81548173ffffffffffffffffffffffffffffffffffffffff021916908373ffffffffffffffffffffffffffffffffffffffff16021790555050620005e2565b600080fd5b600073ffffffffffffffffffffffffffffffffffffffff82169050919050565b60006200021782620001ea565b9050919050565b62000229816200020a565b81146200023557600080fd5b50565b60008151905062000249816200021e565b92915050565b600060208284031215620002685762000267620001e5565b5b6000620002788482850162000238565b91505092915050565b600081519050919050565b7f4e487b7100000000000000000000000000000000000000000000000000000000600052604160045260246000fd5b7f4e487b7100000000000000000000000000000000000000000000000000000000600052602260045260246000fd5b600060028204905060018216806200030357607f821691505b602082108103620003195762000318620002bb565b5b50919050565b60008190508160005260206000209050919050565b60006020601f8301049050919050565b600082821b905092915050565b600060088302620003837fffffffffffffffffffffffffffffffffffffffffffffffffffffffffffffffff8262000344565b6200038f868362000344565b95508019841693508086168417925050509392505050565b6000819050919050565b6000819050919050565b6000620003dc620003d6620003d084620003a7565b620003b1565b620003a7565b9050919050565b6000819050919050565b620003f883620003bb565b620004106200040782620003e3565b84845462000351565b825550505050565b600090565b6200042762000418565b62000434818484620003ed565b505050565b5b818110156200045c57620004506000826200041d565b6001810190506200043a565b5050565b601f821115620004ab5762000475816200031f565b620004808462000334565b8101602085101562000490578190505b620004a86200049f8562000334565b83018262000439565b50505b505050565b600082821c905092915050565b6000620004d060001984600802620004b0565b1980831691505092915050565b6000620004eb8383620004bd565b9150826002028217905092915050565b620005068262000281565b67ffffffffffffffff8111156200052257620005216200028c565b5b6200052e8254620002ea565b6200053b82828562000460565b600060209050601f8311600181146200057357600084156200055e578287015190505b6200056a8582620004dd565b865550620005da565b601f19841662000583866200031f565b60005b82811015620005ad5784890151825560018201915060208501945060208101905062000586565b86831015620005cd5784890151620005c9601f891682620004bd565b8355505b6001600288020188555050505b505050505050565b61248c80620005f26000396000f3fe608060405234801561001057600080fd5b506004361061010b5760003560e01c806370a08231116100a2578063a3e9c29f11610071578063a3e9c29f146102dc578063b88d4fde1461030c578063c87b56dd14610328578063e985e9c514610358578063f6918d69146103885761010b565b806370a082311461024257806395d89b41146102725780639ac2b9a814610290578063a22cb465146102c05761010b565b8063095ea7b3116100de578063095ea7b3146101be57806323b872dd146101da57806342842e0e146101f65780636352211e146102125761010b565b80630173075c1461011057806301ffc9a71461014057806306fdde0314610170578063081812fc1461018e575b600080fd5b61012a600480360381019061012591906115ea565b6103b8565b6040516101379190611630565b60405180910390f35b61015a600480360381019061015591906116a3565b6103bf565b60405161016791906116eb565b60405180910390f35b6101786104a1565b604051610185919061179f565b60405180910390f35b6101a860048036038101906101a391906117ed565b610533565b6040516101b59190611829565b60405180910390f35b6101d860048036038101906101d39190611844565b610579565b005b6101f460048036038101906101ef9190611884565b610690565b005b610210600480360381019061020b9190611884565b6106f0565b005b61022c600480360381019061022791906117ed565b610710565b6040516102399190611829565b60405180910390f35b61025c600480360381019061025791906115ea565b6107c1565b6040516102699190611630565b60405180910390f35b61027a610878565b604051610287919061179f565b60405180910390f35b6102aa60048036038101906102a591906117ed565b61090a565b6040516102b791906116eb565b60405180910390f35b6102da60048036038101906102d59190611903565b610911565b005b6102f660048036038101906102f19190611943565b610927565b6040516103039190611a09565b60405180910390f35b61032660048036038101906103219190611b59565b610931565b005b610342600480360381019061033d91906117ed565b610993565b60405161034f919061179f565b60405180910390f35b610372600480360381019061036d9190611bdc565b610aa5565b60405161037f91906116eb565b60405180910390f35b6103a2600480360381019061039d91906115ea565b610b39565b6040516103af91906116eb565b60405180910390f35b6000919050565b60007f80ac58cd000000000000000000000000000000000000000000000000000000007bffffffffffffffffffffffffffffffffffffffffffffffffffffffff1916827bffffffffffffffffffffffffffffffffffffffffffffffffffffffff1916148061048a57507f5b5e139f000000000000000000000000000000000000000000000000000000007bffffffffffffffffffffffffffffffffffffffffffffffffffffffff1916827bffffffffffffffffffffffffffffffffffffffffffffffffffffffff1916145b8061049a575061049982610b40565b5b9050919050565b6060600080546104b090611c4b565b80601f01602080910402602001604051908101604052809291908181526020018280546104dc90611c4b565b80156105295780601f106104fe57610100808354040283529160200191610529565b820191906000526020600020905b81548152906001019060200180831161050c57829003601f168201915b5050505050905090565b600061053e82610baa565b6004600083815260200190815260200160002060009054906101000a900473ffffffffffffffffffffffffffffffffffffffff169050919050565b600061058482610710565b90508073ffffffffffffffffffffffffffffffffffffffff168373ffffffffffffffffffffffffffffffffffffffff16036105f4576040517f08c379a00000000000000000000000000000000000000000000000000000000081526004016105eb90611cee565b60405180910390fd5b8073ffffffffffffffffffffffffffffffffffffffff16610613610bf5565b73ffffffffffffffffffffffffffffffffffffffff16148061064257506106418161063c610bf5565b610aa5565b5b610681576040517f08c379a000000000000000000000000000000000000000000000000000000000815260040161067890611d80565b60405180910390fd5b61068b8383610bfd565b505050565b6106a161069b610bf5565b82610cb6565b6106e0576040517f08c379a00000000000000000000000000000000000000000000000000000000081526004016106d790611e12565b60405180910390fd5b6106eb838383610d4b565b505050565b61070b83838360405180602001604052806000815250610931565b505050565b6000806002600084815260200190815260200160002060009054906101000a900473ffffffffffffffffffffffffffffffffffffffff169050600073ffffffffffffffffffffffffffffffffffffffff168173ffffffffffffffffffffffffffffffffffffffff16036107b8576040517f08c379a00000000000000000000000000000000000000000000000000000000081526004016107af90611e7e565b60405180910390fd5b80915050919050565b60008073ffffffffffffffffffffffffffffffffffffffff168273ffffffffffffffffffffffffffffffffffffffff1603610831576040517f08c379a000000000000000000000000000000000000000000000000000000000815260040161082890611f10565b60405180910390fd5b600360008373ffffffffffffffffffffffffffffffffffffffff1673ffffffffffffffffffffffffffffffffffffffff168152602001908152602001600020549050919050565b60606001805461088790611c4b565b80601f01602080910402602001604051908101604052809291908181526020018280546108b390611c4b565b80156109005780601f106108d557610100808354040283529160200191610900565b820191906000526020600020905b8154815290600101906020018083116108e357829003601f168201915b5050505050905090565b6000919050565b61092361091c610bf5565b8383610fb1565b5050565b6000949350505050565b61094261093c610bf5565b83610cb6565b610981576040517f08c379a000000000000000000000000000000000000000000000000000000000815260040161097890611e12565b60405180910390fd5b61098d8484848461111d565b50505050565b606061099e82610baa565b60006006600084815260200190815260200160002080546109be90611c4b565b80601f01602080910402602001604051908101604052809291908181526020018280546109ea90611c4b565b8015610a375780601f10610a0c57610100808354040283529160200191610a37565b820191906000526020600020905b815481529060010190602001808311610a1a57829003601f168201915b505050505090506000610a48611179565b90506000815103610a5d578192505050610aa0565b600082511115610a92578082604051602001610a7a929190611f6c565b60405160208183030381529060405292505050610aa0565b610a9b84611190565b925050505b919050565b6000600560008473ffffffffffffffffffffffffffffffffffffffff1673ffffffffffffffffffffffffffffffffffffffff16815260200190815260200160002060008373ffffffffffffffffffffffffffffffffffffffff1673ffffffffffffffffffffffffffffffffffffffff16815260200190815260200160002060009054906101000a900460ff16905092915050565b6000919050565b60007f01ffc9a7000000000000000000000000000000000000000000000000000000007bffffffffffffffffffffffffffffffffffffffffffffffffffffffff1916827bffffffffffffffffffffffffffffffffffffffffffffffffffffffff1916149050919050565b610bb3816111f8565b610bf2576040517f08c379a0000000000000000000000000000000000000000000000000000000008152600401610be990611e7e565b60405180910390fd5b50565b600033905090565b816004600083815260200190815260200160002060006101000a81548173ffffffffffffffffffffffffffffffffffffffff021916908373ffffffffffffffffffffffffffffffffffffffff160217905550808273ffffffffffffffffffffffffffffffffffffffff16610c7083610710565b73ffffffffffffffffffffffffffffffffffffffff167f8c5be1e5ebec7d5bd14f71427d1e84f3dd0314c0f7b2291e5b200ac8c7c3b92560405160405180910390a45050565b600080610cc283610710565b90508073ffffffffffffffffffffffffffffffffffffffff168473ffffffffffffffffffffffffffffffffffffffff161480610d045750610d038185610aa5565b5b80610d4257508373ffffffffffffffffffffffffffffffffffffffff16610d2a84610533565b73ffffffffffffffffffffffffffffffffffffffff16145b91505092915050565b8273ffffffffffffffffffffffffffffffffffffffff16610d6b82610710565b73ffffffffffffffffffffffffffffffffffffffff1614610dc1576040517f08c379a0000000000000000000000000000000000000000000000000000000008152600401610db890612002565b60405180910390fd5b600073ffffffffffffffffffffffffffffffffffffffff168273ffffffffffffffffffffffffffffffffffffffff1603610e30576040517f08c379a0000000000000000000000000000000000000000000000000000000008152600401610e2790612094565b60405180910390fd5b610e3b838383611264565b610e46600082610bfd565b6001600360008573ffffffffffffffffffffffffffffffffffffffff1673ffffffffffffffffffffffffffffffffffffffff1681526020019081526020016000206000828254610e9691906120e3565b925050819055506001600360008473ffffffffffffffffffffffffffffffffffffffff1673ffffffffffffffffffffffffffffffffffffffff1681526020019081526020016000206000828254610eed9190612117565b92505081905550816002600083815260200190815260200160002060006101000a81548173ffffffffffffffffffffffffffffffffffffffff021916908373ffffffffffffffffffffffffffffffffffffffff160217905550808273ffffffffffffffffffffffffffffffffffffffff168473ffffffffffffffffffffffffffffffffffffffff167fddf252ad1be2c89b69c2b068fc378daa952ba7f163c4a11628f55a4df523b3ef60405160405180910390a4610fac838383611269565b505050565b8173ffffffffffffffffffffffffffffffffffffffff168373ffffffffffffffffffffffffffffffffffffffff160361101f576040517f08c379a0000000000000000000000000000000000000000000000000000000008152600401611016906121b9565b60405180910390fd5b80600560008573ffffffffffffffffffffffffffffffffffffffff1673ffffffffffffffffffffffffffffffffffffffff16815260200190815260200160002060008473ffffffffffffffffffffffffffffffffffffffff1673ffffffffffffffffffffffffffffffffffffffff16815260200190815260200160002060006101000a81548160ff0219169083151502179055508173ffffffffffffffffffffffffffffffffffffffff168373ffffffffffffffffffffffffffffffffffffffff167f17307eab39ab6107e8899845ad3d59bd9653f200f220920489ca2b5937696c318360405161111091906116eb565b60405180910390a3505050565b611128848484610d4b565b6111348484848461126e565b611173576040517f08c379a000000000000000000000000000000000000000000000000000000000815260040161116a9061224b565b60405180910390fd5b50505050565b606060405180602001604052806000815250905090565b606061119b82610baa565b60006111a5611179565b905060008151116111c557604051806020016040528060008152506111f0565b806111cf846113f5565b6040516020016111e0929190611f6c565b6040516020818303038152906040525b915050919050565b60008073ffffffffffffffffffffffffffffffffffffffff166002600084815260200190815260200160002060009054906101000a900473ffffffffffffffffffffffffffffffffffffffff1673ffffffffffffffffffffffffffffffffffffffff1614159050919050565b505050565b505050565b600061128f8473ffffffffffffffffffffffffffffffffffffffff16611555565b156113e8578373ffffffffffffffffffffffffffffffffffffffff1663150b7a026112b8610bf5565b8786866040518563ffffffff1660e01b81526004016112da94939291906122c0565b6020604051808303816000875af192505050801561131657506040513d601f19601f820116820180604052508101906113139190612321565b60015b611398573d8060008114611346576040519150601f19603f3d011682016040523d82523d6000602084013e61134b565b606091505b506000815103611390576040517f08c379a00000000000000000000000000000000000000000000000000000000081526004016113879061224b565b60405180910390fd5b805181602001fd5b63150b7a0260e01b7bffffffffffffffffffffffffffffffffffffffffffffffffffffffff1916817bffffffffffffffffffffffffffffffffffffffffffffffffffffffff1916149150506113ed565b600190505b949350505050565b60606000820361143c576040518060400160405280600181526020017f30000000000000000000000000000000000000000000000000000000000000008152509050611550565b600082905060005b6000821461146e5780806114579061234e565b915050600a8261146791906123c5565b9150611444565b60008167ffffffffffffffff81111561148a57611489611a2e565b5b6040519080825280601f01601f1916602001820160405280156114bc5781602001600182028036833780820191505090505b5090505b60008514611549576001826114d591906120e3565b9150600a856114e491906123f6565b60306114f09190612117565b60f81b81838151811061150657611505612427565b5b60200101907effffffffffffffffffffffffffffffffffffffffffffffffffffffffffffff1916908160001a905350600a8561154291906123c5565b94506114c0565b8093505050505b919050565b6000808273ffffffffffffffffffffffffffffffffffffffff163b119050919050565b6000604051905090565b600080fd5b600080fd5b600073ffffffffffffffffffffffffffffffffffffffff82169050919050565b60006115b78261158c565b9050919050565b6115c7816115ac565b81146115d257600080fd5b50565b6000813590506115e4816115be565b92915050565b600060208284031215611600576115ff611582565b5b600061160e848285016115d5565b91505092915050565b6000819050919050565b61162a81611617565b82525050565b60006020820190506116456000830184611621565b92915050565b60007fffffffff0000000000000000000000000000000000000000000000000000000082169050919050565b6116808161164b565b811461168b57600080fd5b50565b60008135905061169d81611677565b92915050565b6000602082840312156116b9576116b8611582565b5b60006116c78482850161168e565b91505092915050565b60008115159050919050565b6116e5816116d0565b82525050565b600060208201905061170060008301846116dc565b92915050565b600081519050919050565b600082825260208201905092915050565b60005b83811015611740578082015181840152602081019050611725565b8381111561174f576000848401525b50505050565b6000601f19601f8301169050919050565b600061177182611706565b61177b8185611711565b935061178b818560208601611722565b61179481611755565b840191505092915050565b600060208201905081810360008301526117b98184611766565b905092915050565b6117ca81611617565b81146117d557600080fd5b50565b6000813590506117e7816117c1565b92915050565b60006020828403121561180357611802611582565b5b6000611811848285016117d8565b91505092915050565b611823816115ac565b82525050565b600060208201905061183e600083018461181a565b92915050565b6000806040838503121561185b5761185a611582565b5b6000611869858286016115d5565b925050602061187a858286016117d8565b9150509250929050565b60008060006060848603121561189d5761189c611582565b5b60006118ab868287016115d5565b93505060206118bc868287016115d5565b92505060406118cd868287016117d8565b9150509250925092565b6118e0816116d0565b81146118eb57600080fd5b50565b6000813590506118fd816118d7565b92915050565b6000806040838503121561191a57611919611582565b5b6000611928858286016115d5565b9250506020611939858286016118ee565b9150509250929050565b6000806000806080858703121561195d5761195c611582565b5b600061196b878288016117d8565b945050602061197c878288016117d8565b935050604061198d878288016117d8565b925050606061199e878288016117d8565b91505092959194509250565b6000819050919050565b60006119cf6119ca6119c58461158c565b6119aa565b61158c565b9050919050565b60006119e1826119b4565b9050919050565b60006119f3826119d6565b9050919050565b611a03816119e8565b82525050565b6000602082019050611a1e60008301846119fa565b92915050565b600080fd5b600080fd5b7f4e487b7100000000000000000000000000000000000000000000000000000000600052604160045260246000fd5b611a6682611755565b810181811067ffffffffffffffff82111715611a8557611a84611a2e565b5b80604052505050565b6000611a98611578565b9050611aa48282611a5d565b919050565b600067ffffffffffffffff821115611ac457611ac3611a2e565b5b611acd82611755565b9050602081019050919050565b82818337600083830152505050565b6000611afc611af784611aa9565b611a8e565b905082815260208101848484011115611b1857611b17611a29565b5b611b23848285611ada565b509392505050565b600082601f830112611b4057611b3f611a24565b5b8135611b50848260208601611ae9565b91505092915050565b60008060008060808587031215611b7357611b72611582565b5b6000611b81878288016115d5565b9450506020611b92878288016115d5565b9350506040611ba3878288016117d8565b925050606085013567ffffffffffffffff811115611bc457611bc3611587565b5b611bd087828801611b2b565b91505092959194509250565b60008060408385031215611bf357611bf2611582565b5b6000611c01858286016115d5565b9250506020611c12858286016115d5565b9150509250929050565b7f4e487b7100000000000000000000000000000000000000000000000000000000600052602260045260246000fd5b60006002820490506001821680611c6357607f821691505b602082108103611c7657611c75611c1c565b5b50919050565b7f4552433732313a20617070726f76616c20746f2063757272656e74206f776e6560008201527f7200000000000000000000000000000000000000000000000000000000000000602082015250565b6000611cd8602183611711565b9150611ce382611c7c565b604082019050919050565b60006020820190508181036000830152611d0781611ccb565b9050919050565b7f4552433732313a20617070726f76652063616c6c6572206973206e6f7420746f60008201527f6b656e206f776e6572206e6f7220617070726f76656420666f7220616c6c0000602082015250565b6000611d6a603e83611711565b9150611d7582611d0e565b604082019050919050565b60006020820190508181036000830152611d9981611d5d565b9050919050565b7f4552433732313a2063616c6c6572206973206e6f7420746f6b656e206f776e6560008201527f72206e6f7220617070726f766564000000000000000000000000000000000000602082015250565b6000611dfc602e83611711565b9150611e0782611da0565b604082019050919050565b60006020820190508181036000830152611e2b81611def565b9050919050565b7f4552433732313a20696e76616c696420746f6b656e2049440000000000000000600082015250565b6000611e68601883611711565b9150611e7382611e32565b602082019050919050565b60006020820190508181036000830152611e9781611e5b565b9050919050565b7f4552433732313a2061646472657373207a65726f206973206e6f74206120766160008201527f6c6964206f776e65720000000000000000000000000000000000000000000000602082015250565b6000611efa602983611711565b9150611f0582611e9e565b604082019050919050565b60006020820190508181036000830152611f2981611eed565b9050919050565b600081905092915050565b6000611f4682611706565b611f508185611f30565b9350611f60818560208601611722565b80840191505092915050565b6000611f788285611f3b565b9150611f848284611f3b565b91508190509392505050565b7f4552433732313a207472616e736665722066726f6d20696e636f72726563742060008201527f6f776e6572000000000000000000000000000000000000000000000000000000602082015250565b6000611fec602583611711565b9150611ff782611f90565b604082019050919050565b6000602082019050818103600083015261201b81611fdf565b9050919050565b7f4552433732313a207472616e7366657220746f20746865207a65726f2061646460008201527f7265737300000000000000000000000000000000000000000000000000000000602082015250565b600061207e602483611711565b915061208982612022565b604082019050919050565b600060208201905081810360008301526120ad81612071565b9050919050565b7f4e487b7100000000000000000000000000000000000000000000000000000000600052601160045260246000fd5b60006120ee82611617565b91506120f983611617565b92508282101561210c5761210b6120b4565b5b828203905092915050565b600061212282611617565b915061212d83611617565b9250827fffffffffffffffffffffffffffffffffffffffffffffffffffffffffffffffff03821115612162576121616120b4565b5b828201905092915050565b7f4552433732313a20617070726f766520746f2063616c6c657200000000000000600082015250565b60006121a3601983611711565b91506121ae8261216d565b602082019050919050565b600060208201905081810360008301526121d281612196565b9050919050565b7f4552433732313a207472616e7366657220746f206e6f6e20455243373231526560008201527f63656976657220696d706c656d656e7465720000000000000000000000000000602082015250565b6000612235603283611711565b9150612240826121d9565b604082019050919050565b6000602082019050818103600083015261226481612228565b9050919050565b600081519050919050565b600082825260208201905092915050565b60006122928261226b565b61229c8185612276565b93506122ac818560208601611722565b6122b581611755565b840191505092915050565b60006080820190506122d5600083018761181a565b6122e2602083018661181a565b6122ef6040830185611621565b81810360608301526123018184612287565b905095945050505050565b60008151905061231b81611677565b92915050565b60006020828403121561233757612336611582565b5b60006123458482850161230c565b91505092915050565b600061235982611617565b91507fffffffffffffffffffffffffffffffffffffffffffffffffffffffffffffffff820361238b5761238a6120b4565b5b600182019050919050565b7f4e487b7100000000000000000000000000000000000000000000000000000000600052601260045260246000fd5b60006123d082611617565b91506123db83611617565b9250826123eb576123ea612396565b5b828204905092915050565b600061240182611617565b915061240c83611617565b92508261241c5761241b612396565b5b828206905092915050565b7f4e487b7100000000000000000000000000000000000000000000000000000000600052603260045260246000fdfea2646970667358221220b117e6601ee16fe497cf5067fa52b88b9cc222a40f63080c5decc845c6d8064e64736f6c634300080f0033",
  "immutableReferences": {},
  "source": "// SPDX-License-Identifier: MIT\npragma solidity ^0.8.0;\nimport \"./PropertyAuction.sol\";\nimport \"./PropertyOracle.sol\";\nimport \"../node_modules/@openzeppelin/contracts/token/ERC721/extensions/ERC721URIStorage.sol\";\n\n/*\n(Useful doc to eventually use)\nkey words when writing doc (RFC 2119)\nMUST, MUST NOT, REQUIRED, SHALL, \nSHALL NOT, SHOULD NOT, RECOMMENDED, \nMAY,OPTIONAL \n*/\n\ncontract PropertyToken is ERC721URIStorage {\n\n    // Address of contract creator\n    address private commonwealth;\n\n    // Address of oracle contract\n    PropertyOracle private oracle;\n\n    // Mapping of all properties and their auctions\n    /*\n        To Implement\n    */\n\n    // Constructor for ERC721 contract and Property contract\n    constructor(\n        address _oracle\n    ) ERC721(\"Property\", \"PTY\") {\n        oracle = PropertyOracle(_oracle);\n        commonwealth = oracle.GetCommonwealth();\n    }\n\n\n    function DigitiseProperty(address owner) external returns(uint256) {\n        // To Implement\n    }\n\n\n    function VerifySignature(address signer) external view returns(bool success) {\n        // To Implement\n    }\n\n\n    function NewAuction(uint256 _start, uint256 _end, uint256 _min, uint256 _propId) external returns(PropertyAuction addr) {\n        // To Implement\n    }\n\n\n    function TransferOwnership(uint256 _propId) external view returns(bool success) {\n        // To Implement\n    }\n}",
  "sourcePath": "/home/kanishka/Documents/GitHub/COMP6452-Blockchain-Boogaloo/contracts/PropertyToken.sol",
  "compiler": {
    "name": "solc",
    "version": "0.8.15+commit.e14f2714.Emscripten.clang"
  },
  "schemaVersion": "3.4.8",
  "updatedAt": "2022-07-05T06:36:56.691Z",
  "networkType": "ethereum",
  "devdoc": {
    "kind": "dev",
    "methods": {
      "approve(address,uint256)": {
        "details": "See {IERC721-approve}."
      },
      "balanceOf(address)": {
        "details": "See {IERC721-balanceOf}."
      },
      "getApproved(uint256)": {
        "details": "See {IERC721-getApproved}."
      },
      "isApprovedForAll(address,address)": {
        "details": "See {IERC721-isApprovedForAll}."
      },
      "name()": {
        "details": "See {IERC721Metadata-name}."
      },
      "ownerOf(uint256)": {
        "details": "See {IERC721-ownerOf}."
      },
      "safeTransferFrom(address,address,uint256)": {
        "details": "See {IERC721-safeTransferFrom}."
      },
      "safeTransferFrom(address,address,uint256,bytes)": {
        "details": "See {IERC721-safeTransferFrom}."
      },
      "setApprovalForAll(address,bool)": {
        "details": "See {IERC721-setApprovalForAll}."
      },
      "supportsInterface(bytes4)": {
        "details": "See {IERC165-supportsInterface}."
      },
      "symbol()": {
        "details": "See {IERC721Metadata-symbol}."
      },
      "tokenURI(uint256)": {
        "details": "See {IERC721Metadata-tokenURI}."
      },
      "transferFrom(address,address,uint256)": {
        "details": "See {IERC721-transferFrom}."
      }
    },
    "version": 1
  },
  "userdoc": {
    "kind": "user",
    "methods": {},
    "version": 1
  }
}