{
  "contractName": "PropertyToken",
  "abi": [
    {
      "inputs": [
        {
          "internalType": "address",
          "name": "_oracle",
          "type": "address"
        }
      ],
      "stateMutability": "nonpayable",
      "type": "constructor"
    },
    {
      "anonymous": false,
      "inputs": [
        {
          "indexed": true,
          "internalType": "address",
          "name": "owner",
          "type": "address"
        },
        {
          "indexed": true,
          "internalType": "address",
          "name": "approved",
          "type": "address"
        },
        {
          "indexed": true,
          "internalType": "uint256",
          "name": "tokenId",
          "type": "uint256"
        }
      ],
      "name": "Approval",
      "type": "event"
    },
    {
      "anonymous": false,
      "inputs": [
        {
          "indexed": true,
          "internalType": "address",
          "name": "owner",
          "type": "address"
        },
        {
          "indexed": true,
          "internalType": "address",
          "name": "operator",
          "type": "address"
        },
        {
          "indexed": false,
          "internalType": "bool",
          "name": "approved",
          "type": "bool"
        }
      ],
      "name": "ApprovalForAll",
      "type": "event"
    },
    {
      "anonymous": false,
      "inputs": [
        {
          "indexed": true,
          "internalType": "address",
          "name": "from",
          "type": "address"
        },
        {
          "indexed": true,
          "internalType": "address",
          "name": "to",
          "type": "address"
        },
        {
          "indexed": true,
          "internalType": "uint256",
          "name": "tokenId",
          "type": "uint256"
        }
      ],
      "name": "Transfer",
      "type": "event"
    },
    {
      "inputs": [
        {
          "internalType": "address",
          "name": "to",
          "type": "address"
        },
        {
          "internalType": "uint256",
          "name": "tokenId",
          "type": "uint256"
        }
      ],
      "name": "approve",
      "outputs": [],
      "stateMutability": "nonpayable",
      "type": "function"
    },
    {
      "inputs": [
        {
          "internalType": "uint256",
          "name": "",
          "type": "uint256"
        }
      ],
      "name": "auctions",
      "outputs": [
        {
          "internalType": "contract PropertyAuction",
          "name": "",
          "type": "address"
        }
      ],
      "stateMutability": "view",
      "type": "function"
    },
    {
      "inputs": [
        {
          "internalType": "address",
          "name": "owner",
          "type": "address"
        }
      ],
      "name": "balanceOf",
      "outputs": [
        {
          "internalType": "uint256",
          "name": "",
          "type": "uint256"
        }
      ],
      "stateMutability": "view",
      "type": "function"
    },
    {
      "inputs": [
        {
          "internalType": "uint256",
          "name": "tokenId",
          "type": "uint256"
        }
      ],
      "name": "getApproved",
      "outputs": [
        {
          "internalType": "address",
          "name": "",
          "type": "address"
        }
      ],
      "stateMutability": "view",
      "type": "function"
    },
    {
      "inputs": [
        {
          "internalType": "address",
          "name": "owner",
          "type": "address"
        },
        {
          "internalType": "address",
          "name": "operator",
          "type": "address"
        }
      ],
      "name": "isApprovedForAll",
      "outputs": [
        {
          "internalType": "bool",
          "name": "",
          "type": "bool"
        }
      ],
      "stateMutability": "view",
      "type": "function"
    },
    {
      "inputs": [],
      "name": "name",
      "outputs": [
        {
          "internalType": "string",
          "name": "",
          "type": "string"
        }
      ],
      "stateMutability": "view",
      "type": "function"
    },
    {
      "inputs": [
        {
          "internalType": "uint256",
          "name": "tokenId",
          "type": "uint256"
        }
      ],
      "name": "ownerOf",
      "outputs": [
        {
          "internalType": "address",
          "name": "",
          "type": "address"
        }
      ],
      "stateMutability": "view",
      "type": "function"
    },
    {
      "inputs": [
        {
          "internalType": "address",
          "name": "from",
          "type": "address"
        },
        {
          "internalType": "address",
          "name": "to",
          "type": "address"
        },
        {
          "internalType": "uint256",
          "name": "tokenId",
          "type": "uint256"
        }
      ],
      "name": "safeTransferFrom",
      "outputs": [],
      "stateMutability": "nonpayable",
      "type": "function"
    },
    {
      "inputs": [
        {
          "internalType": "address",
          "name": "from",
          "type": "address"
        },
        {
          "internalType": "address",
          "name": "to",
          "type": "address"
        },
        {
          "internalType": "uint256",
          "name": "tokenId",
          "type": "uint256"
        },
        {
          "internalType": "bytes",
          "name": "data",
          "type": "bytes"
        }
      ],
      "name": "safeTransferFrom",
      "outputs": [],
      "stateMutability": "nonpayable",
      "type": "function"
    },
    {
      "inputs": [
        {
          "internalType": "address",
          "name": "operator",
          "type": "address"
        },
        {
          "internalType": "bool",
          "name": "approved",
          "type": "bool"
        }
      ],
      "name": "setApprovalForAll",
      "outputs": [],
      "stateMutability": "nonpayable",
      "type": "function"
    },
    {
      "inputs": [
        {
          "internalType": "bytes4",
          "name": "interfaceId",
          "type": "bytes4"
        }
      ],
      "name": "supportsInterface",
      "outputs": [
        {
          "internalType": "bool",
          "name": "",
          "type": "bool"
        }
      ],
      "stateMutability": "view",
      "type": "function"
    },
    {
      "inputs": [],
      "name": "symbol",
      "outputs": [
        {
          "internalType": "string",
          "name": "",
          "type": "string"
        }
      ],
      "stateMutability": "view",
      "type": "function"
    },
    {
      "inputs": [
        {
          "internalType": "uint256",
          "name": "tokenId",
          "type": "uint256"
        }
      ],
      "name": "tokenURI",
      "outputs": [
        {
          "internalType": "string",
          "name": "",
          "type": "string"
        }
      ],
      "stateMutability": "view",
      "type": "function"
    },
    {
      "inputs": [
        {
          "internalType": "address",
          "name": "from",
          "type": "address"
        },
        {
          "internalType": "address",
          "name": "to",
          "type": "address"
        },
        {
          "internalType": "uint256",
          "name": "tokenId",
          "type": "uint256"
        }
      ],
      "name": "transferFrom",
      "outputs": [],
      "stateMutability": "nonpayable",
      "type": "function"
    },
    {
      "inputs": [
        {
          "internalType": "address",
          "name": "owner",
          "type": "address"
        },
        {
          "internalType": "uint256",
          "name": "newItemId",
          "type": "uint256"
        }
      ],
      "name": "DigitiseProperty",
      "outputs": [],
      "stateMutability": "nonpayable",
      "type": "function"
    },
    {
      "inputs": [
        {
          "internalType": "address",
          "name": "userAddr",
          "type": "address"
        }
      ],
      "name": "VerifySignature",
      "outputs": [
        {
          "internalType": "bool",
          "name": "success",
          "type": "bool"
        }
      ],
      "stateMutability": "view",
      "type": "function"
    },
    {
      "inputs": [
        {
          "internalType": "uint256",
          "name": "_start",
          "type": "uint256"
        },
        {
          "internalType": "uint256",
          "name": "_end",
          "type": "uint256"
        },
        {
          "internalType": "uint256",
          "name": "_min",
          "type": "uint256"
        },
        {
          "internalType": "uint256",
          "name": "_propId",
          "type": "uint256"
        }
      ],
      "name": "NewAuction",
      "outputs": [
        {
          "internalType": "contract PropertyAuction",
          "name": "addr",
          "type": "address"
        }
      ],
      "stateMutability": "nonpayable",
      "type": "function"
    },
    {
      "inputs": [
        {
          "internalType": "uint256",
          "name": "_propId",
          "type": "uint256"
        }
      ],
      "name": "TransferOwnership",
      "outputs": [
        {
          "internalType": "bool",
          "name": "success",
          "type": "bool"
        }
      ],
      "stateMutability": "nonpayable",
      "type": "function"
    }
  ],
  "bytecode": "0x60806040523480156200001157600080fd5b50604051620055c9380380620055c983398181016040528101906200003791906200024f565b6040518060400160405280600881526020017f50726f70657274790000000000000000000000000000000000000000000000008152506040518060400160405280600381526020017f50545900000000000000000000000000000000000000000000000000000000008152508160009081620000b49190620004fb565b508060019081620000c69190620004fb565b50505080600860006101000a81548173ffffffffffffffffffffffffffffffffffffffff021916908373ffffffffffffffffffffffffffffffffffffffff160217905550600860009054906101000a900473ffffffffffffffffffffffffffffffffffffffff1673ffffffffffffffffffffffffffffffffffffffff16639605a04c6040518163ffffffff1660e01b8152600401602060405180830381865afa15801562000178573d6000803e3d6000fd5b505050506040513d601f19601f820116820180604052508101906200019e91906200024f565b600760006101000a81548173ffffffffffffffffffffffffffffffffffffffff021916908373ffffffffffffffffffffffffffffffffffffffff16021790555050620005e2565b600080fd5b600073ffffffffffffffffffffffffffffffffffffffff82169050919050565b60006200021782620001ea565b9050919050565b62000229816200020a565b81146200023557600080fd5b50565b60008151905062000249816200021e565b92915050565b600060208284031215620002685762000267620001e5565b5b6000620002788482850162000238565b91505092915050565b600081519050919050565b7f4e487b7100000000000000000000000000000000000000000000000000000000600052604160045260246000fd5b7f4e487b7100000000000000000000000000000000000000000000000000000000600052602260045260246000fd5b600060028204905060018216806200030357607f821691505b602082108103620003195762000318620002bb565b5b50919050565b60008190508160005260206000209050919050565b60006020601f8301049050919050565b600082821b905092915050565b600060088302620003837fffffffffffffffffffffffffffffffffffffffffffffffffffffffffffffffff8262000344565b6200038f868362000344565b95508019841693508086168417925050509392505050565b6000819050919050565b6000819050919050565b6000620003dc620003d6620003d084620003a7565b620003b1565b620003a7565b9050919050565b6000819050919050565b620003f883620003bb565b620004106200040782620003e3565b84845462000351565b825550505050565b600090565b6200042762000418565b62000434818484620003ed565b505050565b5b818110156200045c57620004506000826200041d565b6001810190506200043a565b5050565b601f821115620004ab5762000475816200031f565b620004808462000334565b8101602085101562000490578190505b620004a86200049f8562000334565b83018262000439565b50505b505050565b600082821c905092915050565b6000620004d060001984600802620004b0565b1980831691505092915050565b6000620004eb8383620004bd565b9150826002028217905092915050565b620005068262000281565b67ffffffffffffffff8111156200052257620005216200028c565b5b6200052e8254620002ea565b6200053b82828562000460565b600060209050601f8311600181146200057357600084156200055e578287015190505b6200056a8582620004dd565b865550620005da565b601f19841662000583866200031f565b60005b82811015620005ad5784890151825560018201915060208501945060208101905062000586565b86831015620005cd5784890151620005c9601f891682620004bd565b8355505b6001600288020188555050505b505050505050565b614fd780620005f26000396000f3fe60806040523480156200001157600080fd5b5060043610620001305760003560e01c806370a0823111620000b1578063a3e9c29f116200007b578063a3e9c29f146200035d578063b88d4fde1462000393578063c87b56dd14620003b3578063e985e9c514620003e9578063f6918d69146200041f5762000130565b806370a0823114620002af57806395d89b4114620002e55780639ac2b9a81462000307578063a22cb465146200033d5762000130565b8063095ea7b311620000ff578063095ea7b314620001e357806323b872dd146200020357806342842e0e1462000223578063571a26a014620002435780636352211e14620002795762000130565b806301ffc9a71462000135578063055a72be146200016b57806306fdde03146200018b578063081812fc14620001ad575b600080fd5b6200015360048036038101906200014d91906200216d565b62000455565b604051620001629190620021bc565b60405180910390f35b62000189600480360381019062000183919062002279565b6200053b565b005b620001956200068f565b604051620001a4919062002364565b60405180910390f35b620001cb6004803603810190620001c5919062002388565b62000729565b604051620001da9190620023cb565b60405180910390f35b620002016004803603810190620001fb919062002279565b62000771565b005b6200022160048036038101906200021b9190620023e8565b62000899565b005b6200024160048036038101906200023b9190620023e8565b62000902565b005b6200026160048036038101906200025b919062002388565b62000924565b604051620002709190620024af565b60405180910390f35b62000297600480360381019062000291919062002388565b62000957565b604051620002a69190620023cb565b60405180910390f35b620002cd6004803603810190620002c79190620024cc565b62000a0b565b604051620002dc91906200250f565b60405180910390f35b620002ef62000ac5565b604051620002fe919062002364565b60405180910390f35b6200032560048036038101906200031f919062002388565b62000b5f565b604051620003349190620021bc565b60405180910390f35b6200035b60048036038101906200035591906200255d565b62000d1e565b005b6200037b6004803603810190620003759190620025a4565b62000d38565b6040516200038a9190620024af565b60405180910390f35b620003b16004803603810190620003ab919062002767565b62000fc3565b005b620003d16004803603810190620003cb919062002388565b6200102e565b604051620003e0919062002364565b60405180910390f35b620004076004803603810190620004019190620027f8565b62001154565b604051620004169190620021bc565b60405180910390f35b6200043d6004803603810190620004379190620024cc565b620011e8565b6040516200044c9190620021bc565b60405180910390f35b60007f80ac58cd000000000000000000000000000000000000000000000000000000007bffffffffffffffffffffffffffffffffffffffffffffffffffffffff1916827bffffffffffffffffffffffffffffffffffffffffffffffffffffffff191614806200052157507f5b5e139f000000000000000000000000000000000000000000000000000000007bffffffffffffffffffffffffffffffffffffffffffffffffffffffff1916827bffffffffffffffffffffffffffffffffffffffffffffffffffffffff1916145b806200053457506200053382620013fa565b5b9050919050565b600760009054906101000a900473ffffffffffffffffffffffffffffffffffffffff1673ffffffffffffffffffffffffffffffffffffffff163373ffffffffffffffffffffffffffffffffffffffff1614620005ce576040517f08c379a0000000000000000000000000000000000000000000000000000000008152600401620005c5906200288f565b60405180910390fd5b620005da828262001464565b6200068b81600860009054906101000a900473ffffffffffffffffffffffffffffffffffffffff1673ffffffffffffffffffffffffffffffffffffffff1663c70a43d4846040518263ffffffff1660e01b81526004016200063c91906200250f565b600060405180830381865afa1580156200065a573d6000803e3d6000fd5b505050506040513d6000823e3d601f19601f8201168201806040525081019062000685919062002965565b6200164b565b5050565b606060008054620006a090620029e5565b80601f0160208091040260200160405190810160405280929190818152602001828054620006ce90620029e5565b80156200071f5780601f10620006f3576101008083540402835291602001916200071f565b820191906000526020600020905b8154815290600101906020018083116200070157829003601f168201915b5050505050905090565b60006200073682620016bf565b6004600083815260200190815260200160002060009054906101000a900473ffffffffffffffffffffffffffffffffffffffff169050919050565b60006200077e8262000957565b90508073ffffffffffffffffffffffffffffffffffffffff168373ffffffffffffffffffffffffffffffffffffffff1603620007f1576040517f08c379a0000000000000000000000000000000000000000000000000000000008152600401620007e89062002a90565b60405180910390fd5b8073ffffffffffffffffffffffffffffffffffffffff16620008126200170f565b73ffffffffffffffffffffffffffffffffffffffff16148062000846575062000845816200083f6200170f565b62001154565b5b62000888576040517f08c379a00000000000000000000000000000000000000000000000000000000081526004016200087f9062002b28565b60405180910390fd5b62000894838362001717565b505050565b620008ae620008a76200170f565b82620017d2565b620008f0576040517f08c379a0000000000000000000000000000000000000000000000000000000008152600401620008e79062002bc0565b60405180910390fd5b620008fd8383836200186f565b505050565b6200091f8383836040518060200160405280600081525062000fc3565b505050565b60096020528060005260406000206000915054906101000a900473ffffffffffffffffffffffffffffffffffffffff1681565b6000806002600084815260200190815260200160002060009054906101000a900473ffffffffffffffffffffffffffffffffffffffff169050600073ffffffffffffffffffffffffffffffffffffffff168173ffffffffffffffffffffffffffffffffffffffff160362000a02576040517f08c379a0000000000000000000000000000000000000000000000000000000008152600401620009f99062002c32565b60405180910390fd5b80915050919050565b60008073ffffffffffffffffffffffffffffffffffffffff168273ffffffffffffffffffffffffffffffffffffffff160362000a7e576040517f08c379a000000000000000000000000000000000000000000000000000000000815260040162000a759062002cca565b60405180910390fd5b600360008373ffffffffffffffffffffffffffffffffffffffff1673ffffffffffffffffffffffffffffffffffffffff168152602001908152602001600020549050919050565b60606001805462000ad690620029e5565b80601f016020809104026020016040519081016040528092919081815260200182805462000b0490620029e5565b801562000b555780601f1062000b295761010080835404028352916020019162000b55565b820191906000526020600020905b81548152906001019060200180831162000b3757829003601f168201915b5050505050905090565b6000806009600084815260200190815260200160002060009054906101000a900473ffffffffffffffffffffffffffffffffffffffff16905060008190508073ffffffffffffffffffffffffffffffffffffffff163373ffffffffffffffffffffffffffffffffffffffff161462000bd657600080fd5b600073ffffffffffffffffffffffffffffffffffffffff168173ffffffffffffffffffffffffffffffffffffffff160362000c48576040517f08c379a000000000000000000000000000000000000000000000000000000000815260040162000c3f9062002d3c565b60405180910390fd5b8073ffffffffffffffffffffffffffffffffffffffff1662000c6a8562000957565b73ffffffffffffffffffffffffffffffffffffffff160362000d165760008273ffffffffffffffffffffffffffffffffffffffff16639f6c4e6c6040518163ffffffff1660e01b8152600401602060405180830381865afa15801562000cd4573d6000803e3d6000fd5b505050506040513d601f19601f8201168201806040525081019062000cfa919062002d75565b905062000d0982828762000899565b6001935050505062000d19565b50505b919050565b62000d3462000d2c6200170f565b838362001ae7565b5050565b6000803390508073ffffffffffffffffffffffffffffffffffffffff1662000d608462000957565b73ffffffffffffffffffffffffffffffffffffffff161462000db9576040517f08c379a000000000000000000000000000000000000000000000000000000000815260040162000db09062002df7565b60405180910390fd5b600073ffffffffffffffffffffffffffffffffffffffff166009600085815260200190815260200160002060009054906101000a900473ffffffffffffffffffffffffffffffffffffffff1673ffffffffffffffffffffffffffffffffffffffff16630ae50a396040518163ffffffff1660e01b8152600401602060405180830381865afa15801562000e50573d6000803e3d6000fd5b505050506040513d601f19601f8201168201806040525081019062000e76919062002d75565b73ffffffffffffffffffffffffffffffffffffffff161462000ecf576040517f08c379a000000000000000000000000000000000000000000000000000000000815260040162000ec69062002e69565b60405180910390fd5b84861062000f14576040517f08c379a000000000000000000000000000000000000000000000000000000000815260040162000f0b9062002edb565b60405180910390fd5b6000818787878760405162000f2990620020ee565b62000f3995949392919062002efd565b604051809103906000f08015801562000f56573d6000803e3d6000fd5b50905062000f6682828662000899565b806009600086815260200190815260200160002060006101000a81548173ffffffffffffffffffffffffffffffffffffffff021916908373ffffffffffffffffffffffffffffffffffffffff160217905592505050949350505050565b62000fd862000fd16200170f565b83620017d2565b6200101a576040517f08c379a0000000000000000000000000000000000000000000000000000000008152600401620010119062002bc0565b60405180910390fd5b620010288484848462001c58565b50505050565b60606200103b82620016bf565b60006006600084815260200190815260200160002080546200105d90620029e5565b80601f01602080910402602001604051908101604052809291908181526020018280546200108b90620029e5565b8015620010dc5780601f10620010b057610100808354040283529160200191620010dc565b820191906000526020600020905b815481529060010190602001808311620010be57829003601f168201915b505050505090506000620010ef62001cbb565b90506000815103620011065781925050506200114f565b6000825111156200113f5780826040516020016200112692919062002f9c565b604051602081830303815290604052925050506200114f565b6200114a8462001cd2565b925050505b919050565b6000600560008473ffffffffffffffffffffffffffffffffffffffff1673ffffffffffffffffffffffffffffffffffffffff16815260200190815260200160002060008373ffffffffffffffffffffffffffffffffffffffff1673ffffffffffffffffffffffffffffffffffffffff16815260200190815260200160002060009054906101000a900460ff16905092915050565b600080600860009054906101000a900473ffffffffffffffffffffffffffffffffffffffff1673ffffffffffffffffffffffffffffffffffffffff166374f8b52e846040518263ffffffff1660e01b8152600401620012489190620023cb565b600060405180830381865afa15801562001266573d6000803e3d6000fd5b505050506040513d6000823e3d601f19601f8201168201806040525081019062001291919062003042565b9050600083604051602001620012a8919062003183565b60405160208183030381529060405280519060200120604051602001620012d0919062003239565b60405160208183030381529060405280519060200120905060418251146200132f576040517f08c379a00000000000000000000000000000000000000000000000000000000081526004016200132690620032b3565b60405180910390fd5b60008060006020850151915060408501519050606085015160001a92506001848484846040516000815260200160405260405162001371949392919062003304565b6020604051602081039080840390855afa15801562001394573d6000803e3d6000fd5b5050506020604051035173ffffffffffffffffffffffffffffffffffffffff16600760009054906101000a900473ffffffffffffffffffffffffffffffffffffffff1673ffffffffffffffffffffffffffffffffffffffff161495505050505050919050565b60007f01ffc9a7000000000000000000000000000000000000000000000000000000007bffffffffffffffffffffffffffffffffffffffffffffffffffffffff1916827bffffffffffffffffffffffffffffffffffffffffffffffffffffffff1916149050919050565b600073ffffffffffffffffffffffffffffffffffffffff168273ffffffffffffffffffffffffffffffffffffffff1603620014d6576040517f08c379a0000000000000000000000000000000000000000000000000000000008152600401620014cd90620033a1565b60405180910390fd5b620014e18162001d44565b1562001524576040517f08c379a00000000000000000000000000000000000000000000000000000000081526004016200151b9062003413565b60405180910390fd5b620015326000838362001db0565b6001600360008473ffffffffffffffffffffffffffffffffffffffff1673ffffffffffffffffffffffffffffffffffffffff168152602001908152602001600020600082825462001584919062003464565b92505081905550816002600083815260200190815260200160002060006101000a81548173ffffffffffffffffffffffffffffffffffffffff021916908373ffffffffffffffffffffffffffffffffffffffff160217905550808273ffffffffffffffffffffffffffffffffffffffff16600073ffffffffffffffffffffffffffffffffffffffff167fddf252ad1be2c89b69c2b068fc378daa952ba7f163c4a11628f55a4df523b3ef60405160405180910390a4620016476000838362001db5565b5050565b620016568262001d44565b62001698576040517f08c379a00000000000000000000000000000000000000000000000000000000081526004016200168f9062003537565b60405180910390fd5b80600660008481526020019081526020016000209081620016ba919062003721565b505050565b620016ca8162001d44565b6200170c576040517f08c379a0000000000000000000000000000000000000000000000000000000008152600401620017039062002c32565b60405180910390fd5b50565b600033905090565b816004600083815260200190815260200160002060006101000a81548173ffffffffffffffffffffffffffffffffffffffff021916908373ffffffffffffffffffffffffffffffffffffffff160217905550808273ffffffffffffffffffffffffffffffffffffffff166200178c8362000957565b73ffffffffffffffffffffffffffffffffffffffff167f8c5be1e5ebec7d5bd14f71427d1e84f3dd0314c0f7b2291e5b200ac8c7c3b92560405160405180910390a45050565b600080620017e08362000957565b90508073ffffffffffffffffffffffffffffffffffffffff168473ffffffffffffffffffffffffffffffffffffffff16148062001825575062001824818562001154565b5b806200186657508373ffffffffffffffffffffffffffffffffffffffff166200184e8462000729565b73ffffffffffffffffffffffffffffffffffffffff16145b91505092915050565b8273ffffffffffffffffffffffffffffffffffffffff16620018918262000957565b73ffffffffffffffffffffffffffffffffffffffff1614620018ea576040517f08c379a0000000000000000000000000000000000000000000000000000000008152600401620018e1906200387e565b60405180910390fd5b600073ffffffffffffffffffffffffffffffffffffffff168273ffffffffffffffffffffffffffffffffffffffff16036200195c576040517f08c379a0000000000000000000000000000000000000000000000000000000008152600401620019539062003916565b60405180910390fd5b6200196983838362001db0565b6200197660008262001717565b6001600360008573ffffffffffffffffffffffffffffffffffffffff1673ffffffffffffffffffffffffffffffffffffffff1681526020019081526020016000206000828254620019c8919062003938565b925050819055506001600360008473ffffffffffffffffffffffffffffffffffffffff1673ffffffffffffffffffffffffffffffffffffffff168152602001908152602001600020600082825462001a21919062003464565b92505081905550816002600083815260200190815260200160002060006101000a81548173ffffffffffffffffffffffffffffffffffffffff021916908373ffffffffffffffffffffffffffffffffffffffff160217905550808273ffffffffffffffffffffffffffffffffffffffff168473ffffffffffffffffffffffffffffffffffffffff167fddf252ad1be2c89b69c2b068fc378daa952ba7f163c4a11628f55a4df523b3ef60405160405180910390a462001ae283838362001db5565b505050565b8173ffffffffffffffffffffffffffffffffffffffff168373ffffffffffffffffffffffffffffffffffffffff160362001b58576040517f08c379a000000000000000000000000000000000000000000000000000000000815260040162001b4f90620039c3565b60405180910390fd5b80600560008573ffffffffffffffffffffffffffffffffffffffff1673ffffffffffffffffffffffffffffffffffffffff16815260200190815260200160002060008473ffffffffffffffffffffffffffffffffffffffff1673ffffffffffffffffffffffffffffffffffffffff16815260200190815260200160002060006101000a81548160ff0219169083151502179055508173ffffffffffffffffffffffffffffffffffffffff168373ffffffffffffffffffffffffffffffffffffffff167f17307eab39ab6107e8899845ad3d59bd9653f200f220920489ca2b5937696c318360405162001c4b9190620021bc565b60405180910390a3505050565b62001c658484846200186f565b62001c738484848462001dba565b62001cb5576040517f08c379a000000000000000000000000000000000000000000000000000000000815260040162001cac9062003a5b565b60405180910390fd5b50505050565b606060405180602001604052806000815250905090565b606062001cdf82620016bf565b600062001ceb62001cbb565b9050600081511162001d0d576040518060200160405280600081525062001d3c565b8062001d198462001f52565b60405160200162001d2c92919062002f9c565b6040516020818303038152906040525b915050919050565b60008073ffffffffffffffffffffffffffffffffffffffff166002600084815260200190815260200160002060009054906101000a900473ffffffffffffffffffffffffffffffffffffffff1673ffffffffffffffffffffffffffffffffffffffff1614159050919050565b505050565b505050565b600062001ddd8473ffffffffffffffffffffffffffffffffffffffff16620020cb565b1562001f45578373ffffffffffffffffffffffffffffffffffffffff1663150b7a0262001e096200170f565b8786866040518563ffffffff1660e01b815260040162001e2d949392919062003ada565b6020604051808303816000875af192505050801562001e6c57506040513d601f19601f8201168201806040525081019062001e69919062003b45565b60015b62001ef4573d806000811462001e9f576040519150601f19603f3d011682016040523d82523d6000602084013e62001ea4565b606091505b50600081510362001eec576040517f08c379a000000000000000000000000000000000000000000000000000000000815260040162001ee39062003a5b565b60405180910390fd5b805181602001fd5b63150b7a0260e01b7bffffffffffffffffffffffffffffffffffffffffffffffffffffffff1916817bffffffffffffffffffffffffffffffffffffffffffffffffffffffff19161491505062001f4a565b600190505b949350505050565b60606000820362001f9b576040518060400160405280600181526020017f30000000000000000000000000000000000000000000000000000000000000008152509050620020c6565b600082905060005b6000821462001fd357808062001fb99062003b77565b915050600a8262001fcb919062003bf3565b915062001fa3565b60008167ffffffffffffffff81111562001ff25762001ff162002620565b5b6040519080825280601f01601f191660200182016040528015620020255781602001600182028036833780820191505090505b5090505b60008514620020bf5760018262002041919062003938565b9150600a8562002052919062003c2b565b603062002060919062003464565b60f81b81838151811062002079576200207862003c63565b5b60200101907effffffffffffffffffffffffffffffffffffffffffffffffffffffffffffff1916908160001a905350600a85620020b7919062003bf3565b945062002029565b8093505050505b919050565b6000808273ffffffffffffffffffffffffffffffffffffffff163b119050919050565b61130f8062003c9383390190565b6000604051905090565b600080fd5b600080fd5b60007fffffffff0000000000000000000000000000000000000000000000000000000082169050919050565b620021478162002110565b81146200215357600080fd5b50565b60008135905062002167816200213c565b92915050565b60006020828403121562002186576200218562002106565b5b6000620021968482850162002156565b91505092915050565b60008115159050919050565b620021b6816200219f565b82525050565b6000602082019050620021d36000830184620021ab565b92915050565b600073ffffffffffffffffffffffffffffffffffffffff82169050919050565b60006200220682620021d9565b9050919050565b6200221881620021f9565b81146200222457600080fd5b50565b60008135905062002238816200220d565b92915050565b6000819050919050565b62002253816200223e565b81146200225f57600080fd5b50565b600081359050620022738162002248565b92915050565b6000806040838503121562002293576200229262002106565b5b6000620022a38582860162002227565b9250506020620022b68582860162002262565b9150509250929050565b600081519050919050565b600082825260208201905092915050565b60005b83811015620022fc578082015181840152602081019050620022df565b838111156200230c576000848401525b50505050565b6000601f19601f8301169050919050565b60006200233082620022c0565b6200233c8185620022cb565b93506200234e818560208601620022dc565b620023598162002312565b840191505092915050565b6000602082019050818103600083015262002380818462002323565b905092915050565b600060208284031215620023a157620023a062002106565b5b6000620023b18482850162002262565b91505092915050565b620023c581620021f9565b82525050565b6000602082019050620023e26000830184620023ba565b92915050565b60008060006060848603121562002404576200240362002106565b5b6000620024148682870162002227565b9350506020620024278682870162002227565b92505060406200243a8682870162002262565b9150509250925092565b6000819050919050565b60006200246f620024696200246384620021d9565b62002444565b620021d9565b9050919050565b600062002483826200244e565b9050919050565b6000620024978262002476565b9050919050565b620024a9816200248a565b82525050565b6000602082019050620024c660008301846200249e565b92915050565b600060208284031215620024e557620024e462002106565b5b6000620024f58482850162002227565b91505092915050565b62002509816200223e565b82525050565b6000602082019050620025266000830184620024fe565b92915050565b62002537816200219f565b81146200254357600080fd5b50565b60008135905062002557816200252c565b92915050565b6000806040838503121562002577576200257662002106565b5b6000620025878582860162002227565b92505060206200259a8582860162002546565b9150509250929050565b60008060008060808587031215620025c157620025c062002106565b5b6000620025d18782880162002262565b9450506020620025e48782880162002262565b9350506040620025f78782880162002262565b92505060606200260a8782880162002262565b91505092959194509250565b600080fd5b600080fd5b7f4e487b7100000000000000000000000000000000000000000000000000000000600052604160045260246000fd5b6200265a8262002312565b810181811067ffffffffffffffff821117156200267c576200267b62002620565b5b80604052505050565b600062002691620020fc565b90506200269f82826200264f565b919050565b600067ffffffffffffffff821115620026c257620026c162002620565b5b620026cd8262002312565b9050602081019050919050565b82818337600083830152505050565b600062002700620026fa84620026a4565b62002685565b9050828152602081018484840111156200271f576200271e6200261b565b5b6200272c848285620026da565b509392505050565b600082601f8301126200274c576200274b62002616565b5b81356200275e848260208601620026e9565b91505092915050565b6000806000806080858703121562002784576200278362002106565b5b6000620027948782880162002227565b9450506020620027a78782880162002227565b9350506040620027ba8782880162002262565b925050606085013567ffffffffffffffff811115620027de57620027dd6200210b565b5b620027ec8782880162002734565b91505092959194509250565b6000806040838503121562002812576200281162002106565b5b6000620028228582860162002227565b9250506020620028358582860162002227565b9150509250929050565b7f4e6f7420436f6d6d6f6e7765616c746800000000000000000000000000000000600082015250565b600062002877601083620022cb565b915062002884826200283f565b602082019050919050565b60006020820190508181036000830152620028aa8162002868565b9050919050565b600067ffffffffffffffff821115620028cf57620028ce62002620565b5b620028da8262002312565b9050602081019050919050565b6000620028fe620028f884620028b1565b62002685565b9050828152602081018484840111156200291d576200291c6200261b565b5b6200292a848285620022dc565b509392505050565b600082601f8301126200294a576200294962002616565b5b81516200295c848260208601620028e7565b91505092915050565b6000602082840312156200297e576200297d62002106565b5b600082015167ffffffffffffffff8111156200299f576200299e6200210b565b5b620029ad8482850162002932565b91505092915050565b7f4e487b7100000000000000000000000000000000000000000000000000000000600052602260045260246000fd5b60006002820490506001821680620029fe57607f821691505b60208210810362002a145762002a13620029b6565b5b50919050565b7f4552433732313a20617070726f76616c20746f2063757272656e74206f776e6560008201527f7200000000000000000000000000000000000000000000000000000000000000602082015250565b600062002a78602183620022cb565b915062002a858262002a1a565b604082019050919050565b6000602082019050818103600083015262002aab8162002a69565b9050919050565b7f4552433732313a20617070726f76652063616c6c6572206973206e6f7420746f60008201527f6b656e206f776e6572206e6f7220617070726f76656420666f7220616c6c0000602082015250565b600062002b10603e83620022cb565b915062002b1d8262002ab2565b604082019050919050565b6000602082019050818103600083015262002b438162002b01565b9050919050565b7f4552433732313a2063616c6c6572206973206e6f7420746f6b656e206f776e6560008201527f72206e6f7220617070726f766564000000000000000000000000000000000000602082015250565b600062002ba8602e83620022cb565b915062002bb58262002b4a565b604082019050919050565b6000602082019050818103600083015262002bdb8162002b99565b9050919050565b7f4552433732313a20696e76616c696420746f6b656e2049440000000000000000600082015250565b600062002c1a601883620022cb565b915062002c278262002be2565b602082019050919050565b6000602082019050818103600083015262002c4d8162002c0b565b9050919050565b7f4552433732313a2061646472657373207a65726f206973206e6f74206120766160008201527f6c6964206f776e65720000000000000000000000000000000000000000000000602082015250565b600062002cb2602983620022cb565b915062002cbf8262002c54565b604082019050919050565b6000602082019050818103600083015262002ce58162002ca3565b9050919050565b7f496e76616c69642041756374696f6e0000000000000000000000000000000000600082015250565b600062002d24600f83620022cb565b915062002d318262002cec565b602082019050919050565b6000602082019050818103600083015262002d578162002d15565b9050919050565b60008151905062002d6f816200220d565b92915050565b60006020828403121562002d8e5762002d8d62002106565b5b600062002d9e8482850162002d5e565b91505092915050565b7f446f65736e2774204f776e20546869732050726f706572747900000000000000600082015250565b600062002ddf601983620022cb565b915062002dec8262002da7565b602082019050919050565b6000602082019050818103600083015262002e128162002dd0565b9050919050565b7f416c726561647920696e2041756374696f6e0000000000000000000000000000600082015250565b600062002e51601283620022cb565b915062002e5e8262002e19565b602082019050919050565b6000602082019050818103600083015262002e848162002e42565b9050919050565b7f4261642041756374696f6e205265717565737400000000000000000000000000600082015250565b600062002ec3601383620022cb565b915062002ed08262002e8b565b602082019050919050565b6000602082019050818103600083015262002ef68162002eb4565b9050919050565b600060a08201905062002f146000830188620023ba565b62002f236020830187620024fe565b62002f326040830186620024fe565b62002f416060830185620024fe565b62002f506080830184620024fe565b9695505050505050565b600081905092915050565b600062002f7282620022c0565b62002f7e818562002f5a565b935062002f90818560208601620022dc565b80840191505092915050565b600062002faa828562002f65565b915062002fb8828462002f65565b91508190509392505050565b600062002fdb62002fd584620026a4565b62002685565b90508281526020810184848401111562002ffa5762002ff96200261b565b5b62003007848285620022dc565b509392505050565b600082601f83011262003027576200302662002616565b5b81516200303984826020860162002fc4565b91505092915050565b6000602082840312156200305b576200305a62002106565b5b600082015167ffffffffffffffff8111156200307c576200307b6200210b565b5b6200308a848285016200300f565b91505092915050565b7f54686520466f6c6c6f77696e672045746820416464726573733a200000000000600082015250565b6000620030cb601b8362002f5a565b9150620030d88262003093565b601b82019050919050565b60008160601b9050919050565b6000620030fd82620030e3565b9050919050565b60006200311182620030f0565b9050919050565b6200312d6200312782620021f9565b62003104565b82525050565b7f2049732043657274696669656420546f2050617274696369706174652e000000600082015250565b60006200316b601d8362002f5a565b9150620031788262003133565b601d82019050919050565b60006200319082620030bc565b91506200319e828462003118565b601482019150620031af826200315c565b915081905092915050565b7f19457468657265756d205369676e6564204d6573736167653a0a333200000000600082015250565b6000620031f2601c8362002f5a565b9150620031ff82620031ba565b601c82019050919050565b6000819050919050565b6000819050919050565b620032336200322d826200320a565b62003214565b82525050565b60006200324682620031e3565b91506200325482846200321e565b60208201915081905092915050565b7f496e76616c6964205369676e617475726520466f726d61740000000000000000600082015250565b60006200329b601883620022cb565b9150620032a88262003263565b602082019050919050565b60006020820190508181036000830152620032ce816200328c565b9050919050565b620032e0816200320a565b82525050565b600060ff82169050919050565b620032fe81620032e6565b82525050565b60006080820190506200331b6000830187620032d5565b6200332a6020830186620032f3565b620033396040830185620032d5565b620033486060830184620032d5565b95945050505050565b7f4552433732313a206d696e7420746f20746865207a65726f2061646472657373600082015250565b600062003389602083620022cb565b9150620033968262003351565b602082019050919050565b60006020820190508181036000830152620033bc816200337a565b9050919050565b7f4552433732313a20746f6b656e20616c7265616479206d696e74656400000000600082015250565b6000620033fb601c83620022cb565b91506200340882620033c3565b602082019050919050565b600060208201905081810360008301526200342e81620033ec565b9050919050565b7f4e487b7100000000000000000000000000000000000000000000000000000000600052601160045260246000fd5b600062003471826200223e565b91506200347e836200223e565b9250827fffffffffffffffffffffffffffffffffffffffffffffffffffffffffffffffff03821115620034b657620034b562003435565b5b828201905092915050565b7f45524337323155524953746f726167653a2055524920736574206f66206e6f6e60008201527f6578697374656e7420746f6b656e000000000000000000000000000000000000602082015250565b60006200351f602e83620022cb565b91506200352c82620034c1565b604082019050919050565b60006020820190508181036000830152620035528162003510565b9050919050565b60008190508160005260206000209050919050565b60006020601f8301049050919050565b600082821b905092915050565b600060088302620035bd7fffffffffffffffffffffffffffffffffffffffffffffffffffffffffffffffff826200357e565b620035c986836200357e565b95508019841693508086168417925050509392505050565b600062003602620035fc620035f6846200223e565b62002444565b6200223e565b9050919050565b6000819050919050565b6200361e83620035e1565b620036366200362d8262003609565b8484546200358b565b825550505050565b600090565b6200364d6200363e565b6200365a81848462003613565b505050565b5b8181101562003682576200367660008262003643565b60018101905062003660565b5050565b601f821115620036d1576200369b8162003559565b620036a6846200356e565b81016020851015620036b6578190505b620036ce620036c5856200356e565b8301826200365f565b50505b505050565b600082821c905092915050565b6000620036f660001984600802620036d6565b1980831691505092915050565b6000620037118383620036e3565b9150826002028217905092915050565b6200372c82620022c0565b67ffffffffffffffff81111562003748576200374762002620565b5b620037548254620029e5565b6200376182828562003686565b600060209050601f83116001811462003799576000841562003784578287015190505b62003790858262003703565b86555062003800565b601f198416620037a98662003559565b60005b82811015620037d357848901518255600182019150602085019450602081019050620037ac565b86831015620037f35784890151620037ef601f891682620036e3565b8355505b6001600288020188555050505b505050505050565b7f4552433732313a207472616e736665722066726f6d20696e636f72726563742060008201527f6f776e6572000000000000000000000000000000000000000000000000000000602082015250565b600062003866602583620022cb565b9150620038738262003808565b604082019050919050565b60006020820190508181036000830152620038998162003857565b9050919050565b7f4552433732313a207472616e7366657220746f20746865207a65726f2061646460008201527f7265737300000000000000000000000000000000000000000000000000000000602082015250565b6000620038fe602483620022cb565b91506200390b82620038a0565b604082019050919050565b600060208201905081810360008301526200393181620038ef565b9050919050565b600062003945826200223e565b915062003952836200223e565b92508282101562003968576200396762003435565b5b828203905092915050565b7f4552433732313a20617070726f766520746f2063616c6c657200000000000000600082015250565b6000620039ab601983620022cb565b9150620039b88262003973565b602082019050919050565b60006020820190508181036000830152620039de816200399c565b9050919050565b7f4552433732313a207472616e7366657220746f206e6f6e20455243373231526560008201527f63656976657220696d706c656d656e7465720000000000000000000000000000602082015250565b600062003a43603283620022cb565b915062003a5082620039e5565b604082019050919050565b6000602082019050818103600083015262003a768162003a34565b9050919050565b600081519050919050565b600082825260208201905092915050565b600062003aa68262003a7d565b62003ab2818562003a88565b935062003ac4818560208601620022dc565b62003acf8162002312565b840191505092915050565b600060808201905062003af16000830187620023ba565b62003b006020830186620023ba565b62003b0f6040830185620024fe565b818103606083015262003b23818462003a99565b905095945050505050565b60008151905062003b3f816200213c565b92915050565b60006020828403121562003b5e5762003b5d62002106565b5b600062003b6e8482850162003b2e565b91505092915050565b600062003b84826200223e565b91507fffffffffffffffffffffffffffffffffffffffffffffffffffffffffffffffff820362003bb95762003bb862003435565b5b600182019050919050565b7f4e487b7100000000000000000000000000000000000000000000000000000000600052601260045260246000fd5b600062003c00826200223e565b915062003c0d836200223e565b92508262003c205762003c1f62003bc4565b5b828204905092915050565b600062003c38826200223e565b915062003c45836200223e565b92508262003c585762003c5762003bc4565b5b828206905092915050565b7f4e487b7100000000000000000000000000000000000000000000000000000000600052603260045260246000fdfe60806040523480156200001157600080fd5b506040516200130f3803806200130f833981810160405281019062000037919062000185565b84600460006101000a81548173ffffffffffffffffffffffffffffffffffffffff021916908373ffffffffffffffffffffffffffffffffffffffff1602179055508360008190555082600181905550816002819055508060058190555033600360006101000a81548173ffffffffffffffffffffffffffffffffffffffff021916908373ffffffffffffffffffffffffffffffffffffffff16021790555050505050506200020d565b600080fd5b600073ffffffffffffffffffffffffffffffffffffffff82169050919050565b60006200011282620000e5565b9050919050565b620001248162000105565b81146200013057600080fd5b50565b600081519050620001448162000119565b92915050565b6000819050919050565b6200015f816200014a565b81146200016b57600080fd5b50565b6000815190506200017f8162000154565b92915050565b600080600080600060a08688031215620001a457620001a3620000e0565b5b6000620001b48882890162000133565b9550506020620001c7888289016200016e565b9450506040620001da888289016200016e565b9350506060620001ed888289016200016e565b925050608062000200888289016200016e565b9150509295509295909350565b6110f2806200021d6000396000f3fe6080604052600436106100dd5760003560e01c806362ea82db1161007f5780638da5cb5b116100595780638da5cb5b146102a25780639f6c4e6c146102cd578063dc201dc2146102f8578063ee7a3b8e14610316576100dd565b806362ea82db1461020f578063636bf7301461024c5780636a0eba9614610277576100dd565b80630ae50a39116100bb5780630ae50a39146101635780633e109a191461018e57806348cd4cb1146101b957806355a373d6146101e4576100dd565b806305be0cd1146100e25780630706ee181461010d578063083c632314610138575b600080fd5b3480156100ee57600080fd5b506100f7610341565b6040516101049190610b10565b60405180910390f35b34801561011957600080fd5b5061012261052c565b60405161012f9190610b10565b60405180910390f35b34801561014457600080fd5b5061014d6106dd565b60405161015a9190610b44565b60405180910390f35b34801561016f57600080fd5b506101786106e3565b6040516101859190610ba0565b60405180910390f35b34801561019a57600080fd5b506101a361070d565b6040516101b09190610b44565b60405180910390f35b3480156101c557600080fd5b506101ce610713565b6040516101db9190610b44565b60405180910390f35b3480156101f057600080fd5b506101f9610719565b6040516102069190610c1a565b60405180910390f35b34801561021b57600080fd5b5061023660048036038101906102319190610c66565b61073f565b6040516102439190610b44565b60405180910390f35b34801561025857600080fd5b50610261610757565b60405161026e9190610b44565b60405180910390f35b34801561028357600080fd5b5061028c61075d565b6040516102999190610ba0565b60405180910390f35b3480156102ae57600080fd5b506102b7610783565b6040516102c49190610ba0565b60405180910390f35b3480156102d957600080fd5b506102e26107a9565b6040516102ef9190610ba0565b60405180910390f35b6103006107d3565b60405161030d9190610b10565b60405180910390f35b34801561032257600080fd5b5061032b610aef565b6040516103389190610b44565b60405180910390f35b60006001544311610387576040517f08c379a000000000000000000000000000000000000000000000000000000000815260040161037e90610cf0565b60405180910390fd5b600760009054906101000a900473ffffffffffffffffffffffffffffffffffffffff1673ffffffffffffffffffffffffffffffffffffffff163373ffffffffffffffffffffffffffffffffffffffff1614806104305750600460009054906101000a900473ffffffffffffffffffffffffffffffffffffffff1673ffffffffffffffffffffffffffffffffffffffff163373ffffffffffffffffffffffffffffffffffffffff16145b61046f576040517f08c379a000000000000000000000000000000000000000000000000000000000815260040161046690610d5c565b60405180910390fd5b600060065414610528576000600681905550600360009054906101000a900473ffffffffffffffffffffffffffffffffffffffff1673ffffffffffffffffffffffffffffffffffffffff16639ac2b9a86005546040518263ffffffff1660e01b81526004016104de9190610b44565b6020604051808303816000875af11580156104fd573d6000803e3d6000fd5b505050506040513d601f19601f820116820180604052508101906105219190610da8565b9050610529565b5b90565b6000803390506000600860008373ffffffffffffffffffffffffffffffffffffffff1673ffffffffffffffffffffffffffffffffffffffff168152602001908152602001600020549050600081141580156105d55750600760009054906101000a900473ffffffffffffffffffffffffffffffffffffffff1673ffffffffffffffffffffffffffffffffffffffff168273ffffffffffffffffffffffffffffffffffffffff1614155b156106d7576000600860008473ffffffffffffffffffffffffffffffffffffffff1673ffffffffffffffffffffffffffffffffffffffff1681526020019081526020016000208190555060008273ffffffffffffffffffffffffffffffffffffffff168260405161064590610e06565b60006040518083038185875af1925050503d8060008114610682576040519150601f19603f3d011682016040523d82523d6000602084013e610687565b606091505b50509050806106cb576040517f08c379a00000000000000000000000000000000000000000000000000000000081526004016106c290610e67565b60405180910390fd5b600193505050506106da565b50505b90565b60015481565b6000600460009054906101000a900473ffffffffffffffffffffffffffffffffffffffff16905090565b60025481565b60005481565b600360009054906101000a900473ffffffffffffffffffffffffffffffffffffffff1681565b60086020528060005260406000206000915090505481565b60065481565b600760009054906101000a900473ffffffffffffffffffffffffffffffffffffffff1681565b600460009054906101000a900473ffffffffffffffffffffffffffffffffffffffff1681565b6000600760009054906101000a900473ffffffffffffffffffffffffffffffffffffffff16905090565b6000803390506000439050600054811180156107f0575060015481105b61082f576040517f08c379a000000000000000000000000000000000000000000000000000000000815260040161082690610ed3565b60405180910390fd5b600460009054906101000a900473ffffffffffffffffffffffffffffffffffffffff1673ffffffffffffffffffffffffffffffffffffffff168273ffffffffffffffffffffffffffffffffffffffff16036108bf576040517f08c379a00000000000000000000000000000000000000000000000000000000081526004016108b690610f3f565b60405180910390fd5b600360009054906101000a900473ffffffffffffffffffffffffffffffffffffffff1673ffffffffffffffffffffffffffffffffffffffff1663f6918d69836040518263ffffffff1660e01b815260040161091a9190610ba0565b602060405180830381865afa158015610937573d6000803e3d6000fd5b505050506040513d601f19601f8201168201806040525081019061095b9190610da8565b61099a576040517f08c379a000000000000000000000000000000000000000000000000000000000815260040161099190610fab565b60405180910390fd5b60003490506000600860008573ffffffffffffffffffffffffffffffffffffffff1673ffffffffffffffffffffffffffffffffffffffff1681526020019081526020016000205403610a3857600654811180156109f8575060025481115b610a37576040517f08c379a0000000000000000000000000000000000000000000000000000000008152600401610a2e90611017565b60405180910390fd5b5b600034600860008673ffffffffffffffffffffffffffffffffffffffff1673ffffffffffffffffffffffffffffffffffffffff1681526020019081526020016000206000828254610a899190611066565b9250508190559050600654811115610ae4578060068190555083600760006101000a81548173ffffffffffffffffffffffffffffffffffffffff021916908373ffffffffffffffffffffffffffffffffffffffff1602179055505b600194505050505090565b60055481565b60008115159050919050565b610b0a81610af5565b82525050565b6000602082019050610b256000830184610b01565b92915050565b6000819050919050565b610b3e81610b2b565b82525050565b6000602082019050610b596000830184610b35565b92915050565b600073ffffffffffffffffffffffffffffffffffffffff82169050919050565b6000610b8a82610b5f565b9050919050565b610b9a81610b7f565b82525050565b6000602082019050610bb56000830184610b91565b92915050565b6000819050919050565b6000610be0610bdb610bd684610b5f565b610bbb565b610b5f565b9050919050565b6000610bf282610bc5565b9050919050565b6000610c0482610be7565b9050919050565b610c1481610bf9565b82525050565b6000602082019050610c2f6000830184610c0b565b92915050565b600080fd5b610c4381610b7f565b8114610c4e57600080fd5b50565b600081359050610c6081610c3a565b92915050565b600060208284031215610c7c57610c7b610c35565b5b6000610c8a84828501610c51565b91505092915050565b600082825260208201905092915050565b7f41756374696f6e20686173206e6f7420656e6465640000000000000000000000600082015250565b6000610cda601583610c93565b9150610ce582610ca4565b602082019050919050565b60006020820190508181036000830152610d0981610ccd565b9050919050565b7f4e6f7420417574686f72697a6564000000000000000000000000000000000000600082015250565b6000610d46600e83610c93565b9150610d5182610d10565b602082019050919050565b60006020820190508181036000830152610d7581610d39565b9050919050565b610d8581610af5565b8114610d9057600080fd5b50565b600081519050610da281610d7c565b92915050565b600060208284031215610dbe57610dbd610c35565b5b6000610dcc84828501610d93565b91505092915050565b600081905092915050565b50565b6000610df0600083610dd5565b9150610dfb82610de0565b600082019050919050565b6000610e1182610de3565b9150819050919050565b7f4661696c656420746f2073656e64204574686572000000000000000000000000600082015250565b6000610e51601483610c93565b9150610e5c82610e1b565b602082019050919050565b60006020820190508181036000830152610e8081610e44565b9050919050565b7f43616e6e6f7420706c6163652062696400000000000000000000000000000000600082015250565b6000610ebd601083610c93565b9150610ec882610e87565b602082019050919050565b60006020820190508181036000830152610eec81610eb0565b9050919050565b7f4f776e65722063616e6e6f742062696400000000000000000000000000000000600082015250565b6000610f29601083610c93565b9150610f3482610ef3565b602082019050919050565b60006020820190508181036000830152610f5881610f1c565b9050919050565b7f496e76616c6964205369676e6174757265000000000000000000000000000000600082015250565b6000610f95601183610c93565b9150610fa082610f5f565b602082019050919050565b60006020820190508181036000830152610fc481610f88565b9050919050565b7f4269642076616c756520746f6f206c6f77000000000000000000000000000000600082015250565b6000611001601183610c93565b915061100c82610fcb565b602082019050919050565b6000602082019050818103600083015261103081610ff4565b9050919050565b7f4e487b7100000000000000000000000000000000000000000000000000000000600052601160045260246000fd5b600061107182610b2b565b915061107c83610b2b565b9250827fffffffffffffffffffffffffffffffffffffffffffffffffffffffffffffffff038211156110b1576110b0611037565b5b82820190509291505056fea2646970667358221220bcec1286c7c29a8697f13fb22003cbf8bc3cb8316138bc9743f06ba1fa0beb1064736f6c634300080f0033a2646970667358221220fe29d3a4bcb1319eddce7662ace23fc44fbf1a621f8b4dfe1d5d9e8b8608521964736f6c634300080f0033",
  "immutableReferences": {},
  "source": "// SPDX-License-Identifier: MIT\npragma solidity ^0.8.0;\nimport \"./PropertyAuction.sol\";\nimport \"./PropertyOracle.sol\";\nimport \"../node_modules/@openzeppelin/contracts/token/ERC721/extensions/ERC721URIStorage.sol\";\n\n/*\n(Useful doc to eventually use)\nkey words when writing doc (RFC 2119)\nMUST, MUST NOT, REQUIRED, SHALL, \nSHALL NOT, SHOULD NOT, RECOMMENDED, \nMAY,OPTIONAL \n*/\n\ncontract PropertyToken is ERC721URIStorage {\n\n    // Address of contract creator\n    address private commonwealth;\n\n    // Address of oracle contract\n    PropertyOracle private oracle;\n\n    // Mapping of all properties and their auctions\n    mapping (uint256 => PropertyAuction) public auctions;\n\n    // Constructor for ERC721 contract and Property contract\n    constructor(\n        address _oracle\n    ) ERC721(\"Property\", \"PTY\") {\n        oracle = PropertyOracle(_oracle);\n        commonwealth = oracle.GetCommonwealth();\n    }\n\n\n    function DigitiseProperty(address owner, uint256 newItemId) external {\n        require(msg.sender == commonwealth, \"Not Commonwealth\");\n\n        // mint NFT to represent property\n        // GetPropertyInfo will return the base64 JSON URI\n        _mint(owner, newItemId);\n        _setTokenURI(newItemId, oracle.GetPropertyInfo(newItemId));\n    }\n\n\n    function VerifySignature(address userAddr) external view returns(bool success) {\n        // verification of signature occurs....\n        bytes memory signature = oracle.GetPublicSign(userAddr);\n\n        // step 1: create signed message verification\n        bytes32 signedMessageVerification = keccak256(abi.encodePacked(\n            \"\\x19Ethereum Signed Message:\\n32\",\n            keccak256(abi.encodePacked(\n                \"The Following Eth Address: \",\n                /// @notice To dynamically ensure that the certificate is owned by the investor calling the function\n                userAddr,\n                \" Is Certified To Participate.\"\n            ))\n        ));\n\n        // step 2: ensure correct format for signature:\n        require(signature.length == 65, \"Invalid Signature Format\");\n        \n        // step 3: derive _publicKey from byte segments\n        uint8 v;\n        bytes32 r;\n        bytes32 s;\n        assembly {\n            /// @notice After skipping the first 32 bytes of message length, value for r stored in next 32 bytes.\n            r := mload(add(signature, 32))\n            /// @notice Skip another 32 bytes of data length that holds r, to get the value of s\n            s := mload(add(signature, 64))\n            /// @notice Skip another 32 bytes of data length that holds r and s, to get the value of v\n            v := byte(0, mload(add(signature, 96)))\n        }\n\n        // step 4: return true, the user is certified, can participate in bid, else cannot\n        /// @notice This acts as proof that the investor a) controls the address in the certificate and b) the certificate is valid\n        return commonwealth == ecrecover(signedMessageVerification, v, r, s);\n    }\n\n\n    function NewAuction(uint256 _start, uint256 _end, uint256 _min, uint256 _propId) external returns(PropertyAuction addr) {\n        // Verify property ownership\n        // Verify if property already auctioned\n        // Verify provided timings make sense\n        address sender = msg.sender;\n        require(ownerOf(_propId) == sender, \"Doesn't Own This Property\");\n        require(auctions[_propId].GetOwner() == address(0), \"Already in Auction\");\n        require(_start < _end, \"Bad Auction Request\");\n\n        PropertyAuction newAuction = new PropertyAuction(\n            sender,\n            _start,\n            _end,\n            _min,\n            _propId\n        );\n\n        transferFrom(sender, address(newAuction), _propId);\n        return auctions[_propId] = newAuction;\n    }\n\n\n    function TransferOwnership(uint256 _propId) external returns(bool success) {\n        // Get auction and property ownership information\n        PropertyAuction auction = auctions[_propId];\n        address currentOwner = address(auction);\n        \n        // Verify that auction is valid (created by this contract)\n        require(msg.sender == currentOwner);\n        // Verify that the auction has been setup properly\n        require (currentOwner != address(0), \"Invalid Auction\");\n        \n        // Check that owner owns the property listed on the auction\n        if (ownerOf(_propId) == currentOwner) {\n            // use ERC721 interface to call transferFrom()\n            address winner = auction.GetWinner();\n            transferFrom(currentOwner, winner, _propId);\n            return true;\n        }\n    }\n}",
  "sourcePath": "/Users/michael/boogeyboogeyboogey/COMP6452-Blockchain-Boogaloo/contracts/PropertyToken.sol",
  "compiler": {
    "name": "solc",
    "version": "0.8.15+commit.e14f2714.Emscripten.clang"
  },
  "schemaVersion": "3.4.6",
  "updatedAt": "2022-07-17T11:04:23.050Z",
  "devdoc": {
    "kind": "dev",
    "methods": {
      "approve(address,uint256)": {
        "details": "See {IERC721-approve}."
      },
      "balanceOf(address)": {
        "details": "See {IERC721-balanceOf}."
      },
      "getApproved(uint256)": {
        "details": "See {IERC721-getApproved}."
      },
      "isApprovedForAll(address,address)": {
        "details": "See {IERC721-isApprovedForAll}."
      },
      "name()": {
        "details": "See {IERC721Metadata-name}."
      },
      "ownerOf(uint256)": {
        "details": "See {IERC721-ownerOf}."
      },
      "safeTransferFrom(address,address,uint256)": {
        "details": "See {IERC721-safeTransferFrom}."
      },
      "safeTransferFrom(address,address,uint256,bytes)": {
        "details": "See {IERC721-safeTransferFrom}."
      },
      "setApprovalForAll(address,bool)": {
        "details": "See {IERC721-setApprovalForAll}."
      },
      "supportsInterface(bytes4)": {
        "details": "See {IERC165-supportsInterface}."
      },
      "symbol()": {
        "details": "See {IERC721Metadata-symbol}."
      },
      "tokenURI(uint256)": {
        "details": "See {IERC721Metadata-tokenURI}."
      },
      "transferFrom(address,address,uint256)": {
        "details": "See {IERC721-transferFrom}."
      }
    },
    "version": 1
  },
  "userdoc": {
    "kind": "user",
    "methods": {},
    "version": 1
  }
}