{
  "contractName": "PropertyOracle",
  "abi": [
    {
      "inputs": [
        {
          "internalType": "address",
          "name": "_cw",
          "type": "address"
        }
      ],
      "stateMutability": "nonpayable",
      "type": "constructor"
    },
    {
      "inputs": [],
      "name": "commonwealth",
      "outputs": [
        {
          "internalType": "address",
          "name": "",
          "type": "address"
        }
      ],
      "stateMutability": "view",
      "type": "function"
    },
    {
      "inputs": [
        {
          "internalType": "address",
          "name": "userAddr",
          "type": "address"
        },
        {
          "internalType": "bytes",
          "name": "signature",
          "type": "bytes"
        }
      ],
      "name": "AddPublicSign",
      "outputs": [],
      "stateMutability": "nonpayable",
      "type": "function"
    },
    {
      "inputs": [
        {
          "internalType": "string",
          "name": "encodedInfo",
          "type": "string"
        }
      ],
      "name": "AddPropertyInfo",
      "outputs": [
        {
          "internalType": "uint256",
          "name": "",
          "type": "uint256"
        }
      ],
      "stateMutability": "nonpayable",
      "type": "function"
    },
    {
      "inputs": [
        {
          "internalType": "uint256",
          "name": "propId",
          "type": "uint256"
        },
        {
          "internalType": "string",
          "name": "encodedInfo",
          "type": "string"
        }
      ],
      "name": "UpdatePropertyInfo",
      "outputs": [],
      "stateMutability": "nonpayable",
      "type": "function"
    },
    {
      "inputs": [
        {
          "internalType": "address",
          "name": "userAddr",
          "type": "address"
        }
      ],
      "name": "GetPublicSign",
      "outputs": [
        {
          "internalType": "bytes",
          "name": "sign",
          "type": "bytes"
        }
      ],
      "stateMutability": "view",
      "type": "function"
    },
    {
      "inputs": [
        {
          "internalType": "uint256",
          "name": "propertyId",
          "type": "uint256"
        }
      ],
      "name": "GetPropertyInfo",
      "outputs": [
        {
          "internalType": "string",
          "name": "info",
          "type": "string"
        }
      ],
      "stateMutability": "view",
      "type": "function"
    },
    {
      "inputs": [],
      "name": "GetPropertyCount",
      "outputs": [
        {
          "internalType": "uint256",
          "name": "count",
          "type": "uint256"
        }
      ],
      "stateMutability": "view",
      "type": "function"
    },
    {
      "inputs": [],
      "name": "GetCommonwealth",
      "outputs": [
        {
          "internalType": "address",
          "name": "cw",
          "type": "address"
        }
      ],
      "stateMutability": "view",
      "type": "function"
    }
  ],
  "bytecode": "0x60806040523480156200001157600080fd5b506040516200118b3803806200118b8339818101604052810190620000379190620000e8565b806000806101000a81548173ffffffffffffffffffffffffffffffffffffffff021916908373ffffffffffffffffffffffffffffffffffffffff160217905550506200011a565b600080fd5b600073ffffffffffffffffffffffffffffffffffffffff82169050919050565b6000620000b08262000083565b9050919050565b620000c281620000a3565b8114620000ce57600080fd5b50565b600081519050620000e281620000b7565b92915050565b6000602082840312156200010157620001006200007e565b5b60006200011184828501620000d1565b91505092915050565b611061806200012a6000396000f3fe608060405234801561001057600080fd5b50600436106100885760003560e01c8063a957a1001161005b578063a957a10014610127578063be8e816714610143578063c70a43d414610161578063e36cc08e1461019157610088565b8063713f99941461008d57806374f8b52e146100bd5780639181c829146100ed5780639605a04c14610109575b600080fd5b6100a760048036038101906100a29190610738565b6101af565b6040516100b4919061079a565b60405180910390f35b6100d760048036038101906100d29190610813565b61027f565b6040516100e491906108c8565b60405180910390f35b6101076004803603810190610102919061098b565b610350565b005b61011161042f565b60405161011e91906109f6565b60405180910390f35b610141600480360381019061013c9190610a3d565b610458565b005b61014b61050b565b604051610158919061079a565b60405180910390f35b61017b60048036038101906101769190610a99565b610515565b6040516101889190610b1b565b60405180910390f35b6101996105ba565b6040516101a691906109f6565b60405180910390f35b60008060009054906101000a900473ffffffffffffffffffffffffffffffffffffffff1673ffffffffffffffffffffffffffffffffffffffff163373ffffffffffffffffffffffffffffffffffffffff1614610240576040517f08c379a000000000000000000000000000000000000000000000000000000000815260040161023790610b89565b60405180910390fd5b816003600060026000815461025490610bd8565b919050819055815260200190815260200160002090816102749190610e2c565b506002549050919050565b6060600160008373ffffffffffffffffffffffffffffffffffffffff1673ffffffffffffffffffffffffffffffffffffffff16815260200190815260200160002080546102cb90610c4f565b80601f01602080910402602001604051908101604052809291908181526020018280546102f790610c4f565b80156103445780601f1061031957610100808354040283529160200191610344565b820191906000526020600020905b81548152906001019060200180831161032757829003601f168201915b50505050509050919050565b60008054906101000a900473ffffffffffffffffffffffffffffffffffffffff1673ffffffffffffffffffffffffffffffffffffffff163373ffffffffffffffffffffffffffffffffffffffff16146103de576040517f08c379a00000000000000000000000000000000000000000000000000000000081526004016103d590610b89565b60405180910390fd5b80600160008473ffffffffffffffffffffffffffffffffffffffff1673ffffffffffffffffffffffffffffffffffffffff168152602001908152602001600020908161042a9190610f59565b505050565b60008060009054906101000a900473ffffffffffffffffffffffffffffffffffffffff16905090565b60008054906101000a900473ffffffffffffffffffffffffffffffffffffffff1673ffffffffffffffffffffffffffffffffffffffff163373ffffffffffffffffffffffffffffffffffffffff16146104e6576040517f08c379a00000000000000000000000000000000000000000000000000000000081526004016104dd90610b89565b60405180910390fd5b806003600084815260200190815260200160002090816105069190610e2c565b505050565b6000600254905090565b606060036000838152602001908152602001600020805461053590610c4f565b80601f016020809104026020016040519081016040528092919081815260200182805461056190610c4f565b80156105ae5780601f10610583576101008083540402835291602001916105ae565b820191906000526020600020905b81548152906001019060200180831161059157829003601f168201915b50505050509050919050565b60008054906101000a900473ffffffffffffffffffffffffffffffffffffffff1681565b6000604051905090565b600080fd5b600080fd5b600080fd5b600080fd5b6000601f19601f8301169050919050565b7f4e487b7100000000000000000000000000000000000000000000000000000000600052604160045260246000fd5b610645826105fc565b810181811067ffffffffffffffff821117156106645761066361060d565b5b80604052505050565b60006106776105de565b9050610683828261063c565b919050565b600067ffffffffffffffff8211156106a3576106a261060d565b5b6106ac826105fc565b9050602081019050919050565b82818337600083830152505050565b60006106db6106d684610688565b61066d565b9050828152602081018484840111156106f7576106f66105f7565b5b6107028482856106b9565b509392505050565b600082601f83011261071f5761071e6105f2565b5b813561072f8482602086016106c8565b91505092915050565b60006020828403121561074e5761074d6105e8565b5b600082013567ffffffffffffffff81111561076c5761076b6105ed565b5b6107788482850161070a565b91505092915050565b6000819050919050565b61079481610781565b82525050565b60006020820190506107af600083018461078b565b92915050565b600073ffffffffffffffffffffffffffffffffffffffff82169050919050565b60006107e0826107b5565b9050919050565b6107f0816107d5565b81146107fb57600080fd5b50565b60008135905061080d816107e7565b92915050565b600060208284031215610829576108286105e8565b5b6000610837848285016107fe565b91505092915050565b600081519050919050565b600082825260208201905092915050565b60005b8381101561087a57808201518184015260208101905061085f565b83811115610889576000848401525b50505050565b600061089a82610840565b6108a4818561084b565b93506108b481856020860161085c565b6108bd816105fc565b840191505092915050565b600060208201905081810360008301526108e2818461088f565b905092915050565b600067ffffffffffffffff8211156109055761090461060d565b5b61090e826105fc565b9050602081019050919050565b600061092e610929846108ea565b61066d565b90508281526020810184848401111561094a576109496105f7565b5b6109558482856106b9565b509392505050565b600082601f830112610972576109716105f2565b5b813561098284826020860161091b565b91505092915050565b600080604083850312156109a2576109a16105e8565b5b60006109b0858286016107fe565b925050602083013567ffffffffffffffff8111156109d1576109d06105ed565b5b6109dd8582860161095d565b9150509250929050565b6109f0816107d5565b82525050565b6000602082019050610a0b60008301846109e7565b92915050565b610a1a81610781565b8114610a2557600080fd5b50565b600081359050610a3781610a11565b92915050565b60008060408385031215610a5457610a536105e8565b5b6000610a6285828601610a28565b925050602083013567ffffffffffffffff811115610a8357610a826105ed565b5b610a8f8582860161070a565b9150509250929050565b600060208284031215610aaf57610aae6105e8565b5b6000610abd84828501610a28565b91505092915050565b600081519050919050565b600082825260208201905092915050565b6000610aed82610ac6565b610af78185610ad1565b9350610b0781856020860161085c565b610b10816105fc565b840191505092915050565b60006020820190508181036000830152610b358184610ae2565b905092915050565b7f4e6f7420417574686f72697a6564000000000000000000000000000000000000600082015250565b6000610b73600e83610ad1565b9150610b7e82610b3d565b602082019050919050565b60006020820190508181036000830152610ba281610b66565b9050919050565b7f4e487b7100000000000000000000000000000000000000000000000000000000600052601160045260246000fd5b6000610be382610781565b91507fffffffffffffffffffffffffffffffffffffffffffffffffffffffffffffffff8203610c1557610c14610ba9565b5b600182019050919050565b7f4e487b7100000000000000000000000000000000000000000000000000000000600052602260045260246000fd5b60006002820490506001821680610c6757607f821691505b602082108103610c7a57610c79610c20565b5b50919050565b60008190508160005260206000209050919050565b60006020601f8301049050919050565b600082821b905092915050565b600060088302610ce27fffffffffffffffffffffffffffffffffffffffffffffffffffffffffffffffff82610ca5565b610cec8683610ca5565b95508019841693508086168417925050509392505050565b6000819050919050565b6000610d29610d24610d1f84610781565b610d04565b610781565b9050919050565b6000819050919050565b610d4383610d0e565b610d57610d4f82610d30565b848454610cb2565b825550505050565b600090565b610d6c610d5f565b610d77818484610d3a565b505050565b5b81811015610d9b57610d90600082610d64565b600181019050610d7d565b5050565b601f821115610de057610db181610c80565b610dba84610c95565b81016020851015610dc9578190505b610ddd610dd585610c95565b830182610d7c565b50505b505050565b600082821c905092915050565b6000610e0360001984600802610de5565b1980831691505092915050565b6000610e1c8383610df2565b9150826002028217905092915050565b610e3582610ac6565b67ffffffffffffffff811115610e4e57610e4d61060d565b5b610e588254610c4f565b610e63828285610d9f565b600060209050601f831160018114610e965760008415610e84578287015190505b610e8e8582610e10565b865550610ef6565b601f198416610ea486610c80565b60005b82811015610ecc57848901518255600182019150602085019450602081019050610ea7565b86831015610ee95784890151610ee5601f891682610df2565b8355505b6001600288020188555050505b505050505050565b60008190508160005260206000209050919050565b601f821115610f5457610f2581610efe565b610f2e84610c95565b81016020851015610f3d578190505b610f51610f4985610c95565b830182610d7c565b50505b505050565b610f6282610840565b67ffffffffffffffff811115610f7b57610f7a61060d565b5b610f858254610c4f565b610f90828285610f13565b600060209050601f831160018114610fc35760008415610fb1578287015190505b610fbb8582610e10565b865550611023565b601f198416610fd186610efe565b60005b82811015610ff957848901518255600182019150602085019450602081019050610fd4565b868310156110165784890151611012601f891682610df2565b8355505b6001600288020188555050505b50505050505056fea2646970667358221220a66151078a47100309b49426e948448b52485c3edb96a0bbd1678b0c9237e5d964736f6c634300080f0033",
  "immutableReferences": {},
  "source": "// SPDX-License-Identifier: MIT\npragma solidity ^0.8.0;\n\ncontract PropertyOracle {\n\n    // Oracle Data\n    address public commonwealth;\n    modifier authorized() {\n            require(msg.sender == commonwealth, \"Not Authorized\");\n            _;\n    }\n\n    // User Data\n    mapping (address => bytes) private publicSign; // map of all public signatures\n\n    // Total property count\n    uint256 private propertyCount;\n    mapping (uint256 => string) private propertyInfo; // map of all property info (tokenURI)\n\n    constructor(\n        address _cw\n    ) {\n        commonwealth = _cw;\n    }\n\n    function AddPublicSign(address userAddr, bytes memory signature) authorized external {\n        publicSign[userAddr] = signature;\n    }\n\n    function AddPropertyInfo(string memory encodedInfo) authorized external returns(uint256) {\n        propertyInfo[++propertyCount] = encodedInfo;\n        return propertyCount;\n    }\n\n    function UpdatePropertyInfo(uint256 propId, string memory encodedInfo) authorized external {\n        propertyInfo[propId] = encodedInfo;\n    }\n\n    function GetPublicSign(address userAddr) external view returns(bytes memory sign) {\n        return publicSign[userAddr];\n    }\n\n    function GetPropertyInfo(uint256 propertyId) external view returns(string memory info) {\n        return propertyInfo[propertyId];\n    }\n\n    function GetPropertyCount() external view returns(uint256 count) {\n        return propertyCount;\n    }\n\n    function GetCommonwealth() external view returns(address cw) {\n        return commonwealth;\n    }\n}",
  "sourcePath": "/Users/michael/boogeyboogeyboogey/COMP6452-Blockchain-Boogaloo/contracts/PropertyOracle.sol",
  "compiler": {
    "name": "solc",
    "version": "0.8.15+commit.e14f2714.Emscripten.clang"
  },
  "schemaVersion": "3.4.6",
  "updatedAt": "2022-07-17T11:04:23.044Z",
  "devdoc": {
    "kind": "dev",
    "methods": {},
    "version": 1
  },
  "userdoc": {
    "kind": "user",
    "methods": {},
    "version": 1
  }
}