{
  "contractName": "PropertyOracle",
  "abi": [
    {
      "inputs": [
        {
          "internalType": "address",
          "name": "_cw",
          "type": "address"
        }
      ],
      "stateMutability": "nonpayable",
      "type": "constructor"
    },
    {
      "inputs": [],
      "name": "commonwealth",
      "outputs": [
        {
          "internalType": "address",
          "name": "",
          "type": "address"
        }
      ],
      "stateMutability": "view",
      "type": "function",
      "constant": true
    },
    {
      "inputs": [
        {
          "internalType": "address",
          "name": "signer",
          "type": "address"
        },
        {
          "internalType": "bytes",
          "name": "signature",
          "type": "bytes"
        }
      ],
      "name": "AddPublicSignature",
      "outputs": [
        {
          "internalType": "bool",
          "name": "success",
          "type": "bool"
        }
      ],
      "stateMutability": "nonpayable",
      "type": "function"
    },
    {
      "inputs": [
        {
          "internalType": "string",
          "name": "encodedInfo",
          "type": "string"
        }
      ],
      "name": "AddPropertyInfo",
      "outputs": [
        {
          "internalType": "bool",
          "name": "success",
          "type": "bool"
        }
      ],
      "stateMutability": "nonpayable",
      "type": "function"
    },
    {
      "inputs": [
        {
          "internalType": "address",
          "name": "signer",
          "type": "address"
        }
      ],
      "name": "GetPublicSign",
      "outputs": [
        {
          "internalType": "bytes",
          "name": "sign",
          "type": "bytes"
        }
      ],
      "stateMutability": "view",
      "type": "function",
      "constant": true
    },
    {
      "inputs": [
        {
          "internalType": "uint256",
          "name": "propertyId",
          "type": "uint256"
        }
      ],
      "name": "GetPropertyInfo",
      "outputs": [
        {
          "internalType": "string",
          "name": "info",
          "type": "string"
        }
      ],
      "stateMutability": "view",
      "type": "function",
      "constant": true
    },
    {
      "inputs": [],
      "name": "GetPropertyCount",
      "outputs": [
        {
          "internalType": "uint256",
          "name": "count",
          "type": "uint256"
        }
      ],
      "stateMutability": "view",
      "type": "function",
      "constant": true
    },
    {
      "inputs": [],
      "name": "GetCommonwealth",
      "outputs": [
        {
          "internalType": "address",
          "name": "cw",
          "type": "address"
        }
      ],
      "stateMutability": "view",
      "type": "function",
      "constant": true
    }
  ],
  "bytecode": "0x608060405234801561001057600080fd5b5060405161086d38038061086d833981810160405281019061003291906100db565b806000806101000a81548173ffffffffffffffffffffffffffffffffffffffff021916908373ffffffffffffffffffffffffffffffffffffffff16021790555050610108565b600080fd5b600073ffffffffffffffffffffffffffffffffffffffff82169050919050565b60006100a88261007d565b9050919050565b6100b88161009d565b81146100c357600080fd5b50565b6000815190506100d5816100af565b92915050565b6000602082840312156100f1576100f0610078565b5b60006100ff848285016100c6565b91505092915050565b610756806101176000396000f3fe608060405234801561001057600080fd5b506004361061007d5760003560e01c8063be8e81671161005b578063be8e816714610100578063c70a43d41461011e578063c9f038391461014e578063e36cc08e1461017e5761007d565b8063713f99941461008257806374f8b52e146100b25780639605a04c146100e2575b600080fd5b61009c60048036038101906100979190610341565b61019c565b6040516100a991906103a5565b60405180910390f35b6100cc60048036038101906100c7919061041e565b6101a3565b6040516100d991906104d3565b60405180910390f35b6100ea6101aa565b6040516100f79190610504565b60405180910390f35b6101086101af565b6040516101159190610538565b60405180910390f35b6101386004803603810190610133919061057f565b6101b4565b6040516101459190610601565b60405180910390f35b610168600480360381019061016391906106c4565b6101bb565b60405161017591906103a5565b60405180910390f35b6101866101c3565b6040516101939190610504565b60405180910390f35b6000919050565b6060919050565b600090565b600090565b6060919050565b600092915050565b60008054906101000a900473ffffffffffffffffffffffffffffffffffffffff1681565b6000604051905090565b600080fd5b600080fd5b600080fd5b600080fd5b6000601f19601f8301169050919050565b7f4e487b7100000000000000000000000000000000000000000000000000000000600052604160045260246000fd5b61024e82610205565b810181811067ffffffffffffffff8211171561026d5761026c610216565b5b80604052505050565b60006102806101e7565b905061028c8282610245565b919050565b600067ffffffffffffffff8211156102ac576102ab610216565b5b6102b582610205565b9050602081019050919050565b82818337600083830152505050565b60006102e46102df84610291565b610276565b905082815260208101848484011115610300576102ff610200565b5b61030b8482856102c2565b509392505050565b600082601f830112610328576103276101fb565b5b81356103388482602086016102d1565b91505092915050565b600060208284031215610357576103566101f1565b5b600082013567ffffffffffffffff811115610375576103746101f6565b5b61038184828501610313565b91505092915050565b60008115159050919050565b61039f8161038a565b82525050565b60006020820190506103ba6000830184610396565b92915050565b600073ffffffffffffffffffffffffffffffffffffffff82169050919050565b60006103eb826103c0565b9050919050565b6103fb816103e0565b811461040657600080fd5b50565b600081359050610418816103f2565b92915050565b600060208284031215610434576104336101f1565b5b600061044284828501610409565b91505092915050565b600081519050919050565b600082825260208201905092915050565b60005b8381101561048557808201518184015260208101905061046a565b83811115610494576000848401525b50505050565b60006104a58261044b565b6104af8185610456565b93506104bf818560208601610467565b6104c881610205565b840191505092915050565b600060208201905081810360008301526104ed818461049a565b905092915050565b6104fe816103e0565b82525050565b600060208201905061051960008301846104f5565b92915050565b6000819050919050565b6105328161051f565b82525050565b600060208201905061054d6000830184610529565b92915050565b61055c8161051f565b811461056757600080fd5b50565b60008135905061057981610553565b92915050565b600060208284031215610595576105946101f1565b5b60006105a38482850161056a565b91505092915050565b600081519050919050565b600082825260208201905092915050565b60006105d3826105ac565b6105dd81856105b7565b93506105ed818560208601610467565b6105f681610205565b840191505092915050565b6000602082019050818103600083015261061b81846105c8565b905092915050565b600067ffffffffffffffff82111561063e5761063d610216565b5b61064782610205565b9050602081019050919050565b600061066761066284610623565b610276565b90508281526020810184848401111561068357610682610200565b5b61068e8482856102c2565b509392505050565b600082601f8301126106ab576106aa6101fb565b5b81356106bb848260208601610654565b91505092915050565b600080604083850312156106db576106da6101f1565b5b60006106e985828601610409565b925050602083013567ffffffffffffffff81111561070a576107096101f6565b5b61071685828601610696565b915050925092905056fea2646970667358221220e9de7bdc4dc54e7a5f9f49e0ee81b8e34c725bab090834365b12349e2375753364736f6c634300080f0033",
  "immutableReferences": {},
  "source": "// SPDX-License-Identifier: MIT\npragma solidity ^0.8.0;\n\ncontract PropertyOracle {\n\n    // Oracle Data\n    address public commonwealth;\n    /*\n        To Implement\n    */\n\n    // Total property count\n    /*\n        To Implement\n    */\n\n    constructor(\n        address _cw\n    ) {\n        commonwealth = _cw;\n    }\n\n    function AddPublicSignature(address signer, bytes memory signature) external returns(bool success) {\n        // To Implement\n    }\n\n    function AddPropertyInfo(string memory encodedInfo) external returns(bool success) {\n        // To Implement\n    }\n\n    function GetPublicSign(address signer) external view returns(bytes memory sign) {\n        // To Implement\n    }\n\n    function GetPropertyInfo(uint256 propertyId) external view returns(string memory info) {\n        // To Implement\n    }\n\n    function GetPropertyCount() external view returns(uint256 count) {\n        // To Implement\n    }\n\n    function GetCommonwealth() external view returns(address cw) {\n        // To Implement\n    }\n}",
  "sourcePath": "/home/kanishka/Documents/GitHub/COMP6452-Blockchain-Boogaloo/contracts/PropertyOracle.sol",
  "compiler": {
    "name": "solc",
    "version": "0.8.15+commit.e14f2714.Emscripten.clang"
  },
  "schemaVersion": "3.4.8",
  "updatedAt": "2022-07-05T06:36:56.681Z",
  "networkType": "ethereum",
  "devdoc": {
    "kind": "dev",
    "methods": {},
    "version": 1
  },
  "userdoc": {
    "kind": "user",
    "methods": {},
    "version": 1
  }
}