{
  "contractName": "PropertyToken",
  "abi": [
    {
      "inputs": [
        {
          "internalType": "address",
          "name": "_oracle",
          "type": "address"
        }
      ],
      "stateMutability": "nonpayable",
      "type": "constructor"
    },
    {
      "anonymous": false,
      "inputs": [
        {
          "indexed": true,
          "internalType": "address",
          "name": "owner",
          "type": "address"
        },
        {
          "indexed": true,
          "internalType": "address",
          "name": "approved",
          "type": "address"
        },
        {
          "indexed": true,
          "internalType": "uint256",
          "name": "tokenId",
          "type": "uint256"
        }
      ],
      "name": "Approval",
      "type": "event"
    },
    {
      "anonymous": false,
      "inputs": [
        {
          "indexed": true,
          "internalType": "address",
          "name": "owner",
          "type": "address"
        },
        {
          "indexed": true,
          "internalType": "address",
          "name": "operator",
          "type": "address"
        },
        {
          "indexed": false,
          "internalType": "bool",
          "name": "approved",
          "type": "bool"
        }
      ],
      "name": "ApprovalForAll",
      "type": "event"
    },
    {
      "anonymous": false,
      "inputs": [
        {
          "indexed": true,
          "internalType": "address",
          "name": "from",
          "type": "address"
        },
        {
          "indexed": true,
          "internalType": "address",
          "name": "to",
          "type": "address"
        },
        {
          "indexed": true,
          "internalType": "uint256",
          "name": "tokenId",
          "type": "uint256"
        }
      ],
      "name": "Transfer",
      "type": "event"
    },
    {
      "inputs": [
        {
          "internalType": "address",
          "name": "to",
          "type": "address"
        },
        {
          "internalType": "uint256",
          "name": "tokenId",
          "type": "uint256"
        }
      ],
      "name": "approve",
      "outputs": [],
      "stateMutability": "nonpayable",
      "type": "function"
    },
    {
      "inputs": [
        {
          "internalType": "uint256",
          "name": "",
          "type": "uint256"
        }
      ],
      "name": "auctions",
      "outputs": [
        {
          "internalType": "contract PropertyAuction",
          "name": "",
          "type": "address"
        }
      ],
      "stateMutability": "view",
      "type": "function"
    },
    {
      "inputs": [
        {
          "internalType": "address",
          "name": "owner",
          "type": "address"
        }
      ],
      "name": "balanceOf",
      "outputs": [
        {
          "internalType": "uint256",
          "name": "",
          "type": "uint256"
        }
      ],
      "stateMutability": "view",
      "type": "function"
    },
    {
      "inputs": [
        {
          "internalType": "uint256",
          "name": "tokenId",
          "type": "uint256"
        }
      ],
      "name": "getApproved",
      "outputs": [
        {
          "internalType": "address",
          "name": "",
          "type": "address"
        }
      ],
      "stateMutability": "view",
      "type": "function"
    },
    {
      "inputs": [
        {
          "internalType": "address",
          "name": "owner",
          "type": "address"
        },
        {
          "internalType": "address",
          "name": "operator",
          "type": "address"
        }
      ],
      "name": "isApprovedForAll",
      "outputs": [
        {
          "internalType": "bool",
          "name": "",
          "type": "bool"
        }
      ],
      "stateMutability": "view",
      "type": "function"
    },
    {
      "inputs": [],
      "name": "name",
      "outputs": [
        {
          "internalType": "string",
          "name": "",
          "type": "string"
        }
      ],
      "stateMutability": "view",
      "type": "function"
    },
    {
      "inputs": [
        {
          "internalType": "uint256",
          "name": "tokenId",
          "type": "uint256"
        }
      ],
      "name": "ownerOf",
      "outputs": [
        {
          "internalType": "address",
          "name": "",
          "type": "address"
        }
      ],
      "stateMutability": "view",
      "type": "function"
    },
    {
      "inputs": [
        {
          "internalType": "address",
          "name": "from",
          "type": "address"
        },
        {
          "internalType": "address",
          "name": "to",
          "type": "address"
        },
        {
          "internalType": "uint256",
          "name": "tokenId",
          "type": "uint256"
        }
      ],
      "name": "safeTransferFrom",
      "outputs": [],
      "stateMutability": "nonpayable",
      "type": "function"
    },
    {
      "inputs": [
        {
          "internalType": "address",
          "name": "from",
          "type": "address"
        },
        {
          "internalType": "address",
          "name": "to",
          "type": "address"
        },
        {
          "internalType": "uint256",
          "name": "tokenId",
          "type": "uint256"
        },
        {
          "internalType": "bytes",
          "name": "data",
          "type": "bytes"
        }
      ],
      "name": "safeTransferFrom",
      "outputs": [],
      "stateMutability": "nonpayable",
      "type": "function"
    },
    {
      "inputs": [
        {
          "internalType": "address",
          "name": "operator",
          "type": "address"
        },
        {
          "internalType": "bool",
          "name": "approved",
          "type": "bool"
        }
      ],
      "name": "setApprovalForAll",
      "outputs": [],
      "stateMutability": "nonpayable",
      "type": "function"
    },
    {
      "inputs": [
        {
          "internalType": "bytes4",
          "name": "interfaceId",
          "type": "bytes4"
        }
      ],
      "name": "supportsInterface",
      "outputs": [
        {
          "internalType": "bool",
          "name": "",
          "type": "bool"
        }
      ],
      "stateMutability": "view",
      "type": "function"
    },
    {
      "inputs": [],
      "name": "symbol",
      "outputs": [
        {
          "internalType": "string",
          "name": "",
          "type": "string"
        }
      ],
      "stateMutability": "view",
      "type": "function"
    },
    {
      "inputs": [
        {
          "internalType": "uint256",
          "name": "tokenId",
          "type": "uint256"
        }
      ],
      "name": "tokenURI",
      "outputs": [
        {
          "internalType": "string",
          "name": "",
          "type": "string"
        }
      ],
      "stateMutability": "view",
      "type": "function"
    },
    {
      "inputs": [
        {
          "internalType": "address",
          "name": "from",
          "type": "address"
        },
        {
          "internalType": "address",
          "name": "to",
          "type": "address"
        },
        {
          "internalType": "uint256",
          "name": "tokenId",
          "type": "uint256"
        }
      ],
      "name": "transferFrom",
      "outputs": [],
      "stateMutability": "nonpayable",
      "type": "function"
    },
    {
      "inputs": [
        {
          "internalType": "address",
          "name": "owner",
          "type": "address"
        }
      ],
      "name": "DigitiseProperty",
      "outputs": [
        {
          "internalType": "uint256",
          "name": "",
          "type": "uint256"
        }
      ],
      "stateMutability": "nonpayable",
      "type": "function"
    },
    {
      "inputs": [
        {
          "internalType": "address",
          "name": "userAddr",
          "type": "address"
        }
      ],
      "name": "VerifySignature",
      "outputs": [
        {
          "internalType": "bool",
          "name": "success",
          "type": "bool"
        }
      ],
      "stateMutability": "view",
      "type": "function"
    },
    {
      "inputs": [
        {
          "internalType": "uint256",
          "name": "_start",
          "type": "uint256"
        },
        {
          "internalType": "uint256",
          "name": "_end",
          "type": "uint256"
        },
        {
          "internalType": "uint256",
          "name": "_min",
          "type": "uint256"
        },
        {
          "internalType": "uint256",
          "name": "_propId",
          "type": "uint256"
        }
      ],
      "name": "NewAuction",
      "outputs": [
        {
          "internalType": "contract PropertyAuction",
          "name": "addr",
          "type": "address"
        }
      ],
      "stateMutability": "nonpayable",
      "type": "function"
    },
    {
      "inputs": [
        {
          "internalType": "uint256",
          "name": "_propId",
          "type": "uint256"
        }
      ],
      "name": "TransferOwnership",
      "outputs": [
        {
          "internalType": "bool",
          "name": "success",
          "type": "bool"
        }
      ],
      "stateMutability": "nonpayable",
      "type": "function"
    }
  ],
  "bytecode": "0x60806040523480156200001157600080fd5b50604051620057163803806200571683398181016040528101906200003791906200024f565b6040518060400160405280600881526020017f50726f70657274790000000000000000000000000000000000000000000000008152506040518060400160405280600381526020017f50545900000000000000000000000000000000000000000000000000000000008152508160009081620000b49190620004fb565b508060019081620000c69190620004fb565b50505080600860006101000a81548173ffffffffffffffffffffffffffffffffffffffff021916908373ffffffffffffffffffffffffffffffffffffffff160217905550600860009054906101000a900473ffffffffffffffffffffffffffffffffffffffff1673ffffffffffffffffffffffffffffffffffffffff16639605a04c6040518163ffffffff1660e01b8152600401602060405180830381865afa15801562000178573d6000803e3d6000fd5b505050506040513d601f19601f820116820180604052508101906200019e91906200024f565b600760006101000a81548173ffffffffffffffffffffffffffffffffffffffff021916908373ffffffffffffffffffffffffffffffffffffffff16021790555050620005e2565b600080fd5b600073ffffffffffffffffffffffffffffffffffffffff82169050919050565b60006200021782620001ea565b9050919050565b62000229816200020a565b81146200023557600080fd5b50565b60008151905062000249816200021e565b92915050565b600060208284031215620002685762000267620001e5565b5b6000620002788482850162000238565b91505092915050565b600081519050919050565b7f4e487b7100000000000000000000000000000000000000000000000000000000600052604160045260246000fd5b7f4e487b7100000000000000000000000000000000000000000000000000000000600052602260045260246000fd5b600060028204905060018216806200030357607f821691505b602082108103620003195762000318620002bb565b5b50919050565b60008190508160005260206000209050919050565b60006020601f8301049050919050565b600082821b905092915050565b600060088302620003837fffffffffffffffffffffffffffffffffffffffffffffffffffffffffffffffff8262000344565b6200038f868362000344565b95508019841693508086168417925050509392505050565b6000819050919050565b6000819050919050565b6000620003dc620003d6620003d084620003a7565b620003b1565b620003a7565b9050919050565b6000819050919050565b620003f883620003bb565b620004106200040782620003e3565b84845462000351565b825550505050565b600090565b6200042762000418565b62000434818484620003ed565b505050565b5b818110156200045c57620004506000826200041d565b6001810190506200043a565b5050565b601f821115620004ab5762000475816200031f565b620004808462000334565b8101602085101562000490578190505b620004a86200049f8562000334565b83018262000439565b50505b505050565b600082821c905092915050565b6000620004d060001984600802620004b0565b1980831691505092915050565b6000620004eb8383620004bd565b9150826002028217905092915050565b620005068262000281565b67ffffffffffffffff8111156200052257620005216200028c565b5b6200052e8254620002ea565b6200053b82828562000460565b600060209050601f8311600181146200057357600084156200055e578287015190505b6200056a8582620004dd565b865550620005da565b601f19841662000583866200031f565b60005b82811015620005ad5784890151825560018201915060208501945060208101905062000586565b86831015620005cd5784890151620005c9601f891682620004bd565b8355505b6001600288020188555050505b505050505050565b61512480620005f26000396000f3fe60806040523480156200001157600080fd5b5060043610620001305760003560e01c806370a0823111620000b1578063a3e9c29f116200007b578063a3e9c29f1462000373578063b88d4fde14620003a9578063c87b56dd14620003c9578063e985e9c514620003ff578063f6918d6914620004355762000130565b806370a0823114620002c557806395d89b4114620002fb5780639ac2b9a8146200031d578063a22cb46514620003535762000130565b8063095ea7b311620000ff578063095ea7b314620001f957806323b872dd146200021957806342842e0e1462000239578063571a26a014620002595780636352211e146200028f5762000130565b80630173075c146200013557806301ffc9a7146200016b57806306fdde0314620001a1578063081812fc14620001c3575b600080fd5b6200015360048036038101906200014d919062002288565b6200046b565b604051620001629190620022d5565b60405180910390f35b6200018960048036038101906200018391906200234f565b6200065e565b6040516200019891906200239e565b60405180910390f35b620001ab62000744565b604051620001ba91906200245f565b60405180910390f35b620001e16004803603810190620001db9190620024b4565b620007de565b604051620001f09190620024f7565b60405180910390f35b62000217600480360381019062000211919062002514565b62000826565b005b6200023760048036038101906200023191906200255b565b6200094e565b005b6200025760048036038101906200025191906200255b565b620009b7565b005b620002776004803603810190620002719190620024b4565b620009d9565b60405162000286919062002622565b60405180910390f35b620002ad6004803603810190620002a79190620024b4565b62000a0c565b604051620002bc9190620024f7565b60405180910390f35b620002e36004803603810190620002dd919062002288565b62000ac0565b604051620002f29190620022d5565b60405180910390f35b6200030562000b7a565b6040516200031491906200245f565b60405180910390f35b6200033b6004803603810190620003359190620024b4565b62000c14565b6040516200034a91906200239e565b60405180910390f35b6200037160048036038101906200036b919062002670565b62000e44565b005b6200039160048036038101906200038b9190620026b7565b62000e5e565b604051620003a0919062002622565b60405180910390f35b620003c76004803603810190620003c191906200287a565b620010d6565b005b620003e76004803603810190620003e19190620024b4565b62001141565b604051620003f691906200245f565b60405180910390f35b6200041d60048036038101906200041791906200290b565b62001267565b6040516200042c91906200239e565b60405180910390f35b6200045360048036038101906200044d919062002288565b620012fb565b6040516200046291906200239e565b60405180910390f35b6000600760009054906101000a900473ffffffffffffffffffffffffffffffffffffffff1673ffffffffffffffffffffffffffffffffffffffff163373ffffffffffffffffffffffffffffffffffffffff161462000500576040517f08c379a0000000000000000000000000000000000000000000000000000000008152600401620004f790620029a2565b60405180910390fd5b6000600860009054906101000a900473ffffffffffffffffffffffffffffffffffffffff1673ffffffffffffffffffffffffffffffffffffffff1663be8e81676040518163ffffffff1660e01b8152600401602060405180830381865afa15801562000570573d6000803e3d6000fd5b505050506040513d601f19601f82011682018060405250810190620005969190620029db565b9050620005a483826200150d565b6200065581600860009054906101000a900473ffffffffffffffffffffffffffffffffffffffff1673ffffffffffffffffffffffffffffffffffffffff1663c70a43d4846040518263ffffffff1660e01b8152600401620006069190620022d5565b600060405180830381865afa15801562000624573d6000803e3d6000fd5b505050506040513d6000823e3d601f19601f820116820180604052508101906200064f919062002ac1565b620016f4565b80915050919050565b60007f80ac58cd000000000000000000000000000000000000000000000000000000007bffffffffffffffffffffffffffffffffffffffffffffffffffffffff1916827bffffffffffffffffffffffffffffffffffffffffffffffffffffffff191614806200072a57507f5b5e139f000000000000000000000000000000000000000000000000000000007bffffffffffffffffffffffffffffffffffffffffffffffffffffffff1916827bffffffffffffffffffffffffffffffffffffffffffffffffffffffff1916145b806200073d57506200073c8262001768565b5b9050919050565b606060008054620007559062002b41565b80601f0160208091040260200160405190810160405280929190818152602001828054620007839062002b41565b8015620007d45780601f10620007a857610100808354040283529160200191620007d4565b820191906000526020600020905b815481529060010190602001808311620007b657829003601f168201915b5050505050905090565b6000620007eb82620017d2565b6004600083815260200190815260200160002060009054906101000a900473ffffffffffffffffffffffffffffffffffffffff169050919050565b6000620008338262000a0c565b90508073ffffffffffffffffffffffffffffffffffffffff168373ffffffffffffffffffffffffffffffffffffffff1603620008a6576040517f08c379a00000000000000000000000000000000000000000000000000000000081526004016200089d9062002bec565b60405180910390fd5b8073ffffffffffffffffffffffffffffffffffffffff16620008c762001822565b73ffffffffffffffffffffffffffffffffffffffff161480620008fb5750620008fa81620008f462001822565b62001267565b5b6200093d576040517f08c379a0000000000000000000000000000000000000000000000000000000008152600401620009349062002c84565b60405180910390fd5b6200094983836200182a565b505050565b620009636200095c62001822565b82620018e5565b620009a5576040517f08c379a00000000000000000000000000000000000000000000000000000000081526004016200099c9062002d1c565b60405180910390fd5b620009b283838362001982565b505050565b620009d483838360405180602001604052806000815250620010d6565b505050565b60096020528060005260406000206000915054906101000a900473ffffffffffffffffffffffffffffffffffffffff1681565b6000806002600084815260200190815260200160002060009054906101000a900473ffffffffffffffffffffffffffffffffffffffff169050600073ffffffffffffffffffffffffffffffffffffffff168173ffffffffffffffffffffffffffffffffffffffff160362000ab7576040517f08c379a000000000000000000000000000000000000000000000000000000000815260040162000aae9062002d8e565b60405180910390fd5b80915050919050565b60008073ffffffffffffffffffffffffffffffffffffffff168273ffffffffffffffffffffffffffffffffffffffff160362000b33576040517f08c379a000000000000000000000000000000000000000000000000000000000815260040162000b2a9062002e26565b60405180910390fd5b600360008373ffffffffffffffffffffffffffffffffffffffff1673ffffffffffffffffffffffffffffffffffffffff168152602001908152602001600020549050919050565b60606001805462000b8b9062002b41565b80601f016020809104026020016040519081016040528092919081815260200182805462000bb99062002b41565b801562000c0a5780601f1062000bde5761010080835404028352916020019162000c0a565b820191906000526020600020905b81548152906001019060200180831162000bec57829003601f168201915b5050505050905090565b6000806009600084815260200190815260200160002060009054906101000a900473ffffffffffffffffffffffffffffffffffffffff16905060008173ffffffffffffffffffffffffffffffffffffffff16630ae50a396040518163ffffffff1660e01b8152600401602060405180830381865afa15801562000c9b573d6000803e3d6000fd5b505050506040513d601f19601f8201168201806040525081019062000cc1919062002e5f565b90508173ffffffffffffffffffffffffffffffffffffffff163373ffffffffffffffffffffffffffffffffffffffff161462000cfc57600080fd5b600073ffffffffffffffffffffffffffffffffffffffff168173ffffffffffffffffffffffffffffffffffffffff160362000d6e576040517f08c379a000000000000000000000000000000000000000000000000000000000815260040162000d659062002ee1565b60405180910390fd5b8073ffffffffffffffffffffffffffffffffffffffff1662000d908562000a0c565b73ffffffffffffffffffffffffffffffffffffffff160362000e3c5760008273ffffffffffffffffffffffffffffffffffffffff16639f6c4e6c6040518163ffffffff1660e01b8152600401602060405180830381865afa15801562000dfa573d6000803e3d6000fd5b505050506040513d601f19601f8201168201806040525081019062000e20919062002e5f565b905062000e2f8282876200094e565b6001935050505062000e3f565b50505b919050565b62000e5a62000e5262001822565b838362001bfa565b5050565b6000803390508073ffffffffffffffffffffffffffffffffffffffff1662000e868462000a0c565b73ffffffffffffffffffffffffffffffffffffffff161462000edf576040517f08c379a000000000000000000000000000000000000000000000000000000000815260040162000ed69062002f53565b60405180910390fd5b600073ffffffffffffffffffffffffffffffffffffffff166009600085815260200190815260200160002060009054906101000a900473ffffffffffffffffffffffffffffffffffffffff1673ffffffffffffffffffffffffffffffffffffffff16630ae50a396040518163ffffffff1660e01b8152600401602060405180830381865afa15801562000f76573d6000803e3d6000fd5b505050506040513d601f19601f8201168201806040525081019062000f9c919062002e5f565b73ffffffffffffffffffffffffffffffffffffffff161462000ff5576040517f08c379a000000000000000000000000000000000000000000000000000000000815260040162000fec9062002fc5565b60405180910390fd5b8486106200103a576040517f08c379a0000000000000000000000000000000000000000000000000000000008152600401620010319062003037565b60405180910390fd5b80868686866040516200104d9062002201565b6200105d95949392919062003059565b604051809103906000f0801580156200107a573d6000803e3d6000fd5b506009600085815260200190815260200160002060006101000a81548173ffffffffffffffffffffffffffffffffffffffff021916908373ffffffffffffffffffffffffffffffffffffffff1602179055915050949350505050565b620010eb620010e462001822565b83620018e5565b6200112d576040517f08c379a0000000000000000000000000000000000000000000000000000000008152600401620011249062002d1c565b60405180910390fd5b6200113b8484848462001d6b565b50505050565b60606200114e82620017d2565b6000600660008481526020019081526020016000208054620011709062002b41565b80601f01602080910402602001604051908101604052809291908181526020018280546200119e9062002b41565b8015620011ef5780601f10620011c357610100808354040283529160200191620011ef565b820191906000526020600020905b815481529060010190602001808311620011d157829003601f168201915b5050505050905060006200120262001dce565b905060008151036200121957819250505062001262565b6000825111156200125257808260405160200162001239929190620030f8565b6040516020818303038152906040529250505062001262565b6200125d8462001de5565b925050505b919050565b6000600560008473ffffffffffffffffffffffffffffffffffffffff1673ffffffffffffffffffffffffffffffffffffffff16815260200190815260200160002060008373ffffffffffffffffffffffffffffffffffffffff1673ffffffffffffffffffffffffffffffffffffffff16815260200190815260200160002060009054906101000a900460ff16905092915050565b600080600860009054906101000a900473ffffffffffffffffffffffffffffffffffffffff1673ffffffffffffffffffffffffffffffffffffffff166374f8b52e846040518263ffffffff1660e01b81526004016200135b9190620024f7565b600060405180830381865afa15801562001379573d6000803e3d6000fd5b505050506040513d6000823e3d601f19601f82011682018060405250810190620013a491906200319e565b9050600083604051602001620013bb9190620032df565b60405160208183030381529060405280519060200120604051602001620013e3919062003395565b604051602081830303815290604052805190602001209050604182511462001442576040517f08c379a000000000000000000000000000000000000000000000000000000000815260040162001439906200340f565b60405180910390fd5b60008060006020850151915060408501519050606085015160001a92506001848484846040516000815260200160405260405162001484949392919062003460565b6020604051602081039080840390855afa158015620014a7573d6000803e3d6000fd5b5050506020604051035173ffffffffffffffffffffffffffffffffffffffff16600760009054906101000a900473ffffffffffffffffffffffffffffffffffffffff1673ffffffffffffffffffffffffffffffffffffffff161495505050505050919050565b600073ffffffffffffffffffffffffffffffffffffffff168273ffffffffffffffffffffffffffffffffffffffff16036200157f576040517f08c379a00000000000000000000000000000000000000000000000000000000081526004016200157690620034fd565b60405180910390fd5b6200158a8162001e57565b15620015cd576040517f08c379a0000000000000000000000000000000000000000000000000000000008152600401620015c4906200356f565b60405180910390fd5b620015db6000838362001ec3565b6001600360008473ffffffffffffffffffffffffffffffffffffffff1673ffffffffffffffffffffffffffffffffffffffff16815260200190815260200160002060008282546200162d9190620035c0565b92505081905550816002600083815260200190815260200160002060006101000a81548173ffffffffffffffffffffffffffffffffffffffff021916908373ffffffffffffffffffffffffffffffffffffffff160217905550808273ffffffffffffffffffffffffffffffffffffffff16600073ffffffffffffffffffffffffffffffffffffffff167fddf252ad1be2c89b69c2b068fc378daa952ba7f163c4a11628f55a4df523b3ef60405160405180910390a4620016f06000838362001ec8565b5050565b620016ff8262001e57565b62001741576040517f08c379a0000000000000000000000000000000000000000000000000000000008152600401620017389062003693565b60405180910390fd5b806006600084815260200190815260200160002090816200176391906200387d565b505050565b60007f01ffc9a7000000000000000000000000000000000000000000000000000000007bffffffffffffffffffffffffffffffffffffffffffffffffffffffff1916827bffffffffffffffffffffffffffffffffffffffffffffffffffffffff1916149050919050565b620017dd8162001e57565b6200181f576040517f08c379a0000000000000000000000000000000000000000000000000000000008152600401620018169062002d8e565b60405180910390fd5b50565b600033905090565b816004600083815260200190815260200160002060006101000a81548173ffffffffffffffffffffffffffffffffffffffff021916908373ffffffffffffffffffffffffffffffffffffffff160217905550808273ffffffffffffffffffffffffffffffffffffffff166200189f8362000a0c565b73ffffffffffffffffffffffffffffffffffffffff167f8c5be1e5ebec7d5bd14f71427d1e84f3dd0314c0f7b2291e5b200ac8c7c3b92560405160405180910390a45050565b600080620018f38362000a0c565b90508073ffffffffffffffffffffffffffffffffffffffff168473ffffffffffffffffffffffffffffffffffffffff16148062001938575062001937818562001267565b5b806200197957508373ffffffffffffffffffffffffffffffffffffffff166200196184620007de565b73ffffffffffffffffffffffffffffffffffffffff16145b91505092915050565b8273ffffffffffffffffffffffffffffffffffffffff16620019a48262000a0c565b73ffffffffffffffffffffffffffffffffffffffff1614620019fd576040517f08c379a0000000000000000000000000000000000000000000000000000000008152600401620019f490620039da565b60405180910390fd5b600073ffffffffffffffffffffffffffffffffffffffff168273ffffffffffffffffffffffffffffffffffffffff160362001a6f576040517f08c379a000000000000000000000000000000000000000000000000000000000815260040162001a669062003a72565b60405180910390fd5b62001a7c83838362001ec3565b62001a896000826200182a565b6001600360008573ffffffffffffffffffffffffffffffffffffffff1673ffffffffffffffffffffffffffffffffffffffff168152602001908152602001600020600082825462001adb919062003a94565b925050819055506001600360008473ffffffffffffffffffffffffffffffffffffffff1673ffffffffffffffffffffffffffffffffffffffff168152602001908152602001600020600082825462001b349190620035c0565b92505081905550816002600083815260200190815260200160002060006101000a81548173ffffffffffffffffffffffffffffffffffffffff021916908373ffffffffffffffffffffffffffffffffffffffff160217905550808273ffffffffffffffffffffffffffffffffffffffff168473ffffffffffffffffffffffffffffffffffffffff167fddf252ad1be2c89b69c2b068fc378daa952ba7f163c4a11628f55a4df523b3ef60405160405180910390a462001bf583838362001ec8565b505050565b8173ffffffffffffffffffffffffffffffffffffffff168373ffffffffffffffffffffffffffffffffffffffff160362001c6b576040517f08c379a000000000000000000000000000000000000000000000000000000000815260040162001c629062003b1f565b60405180910390fd5b80600560008573ffffffffffffffffffffffffffffffffffffffff1673ffffffffffffffffffffffffffffffffffffffff16815260200190815260200160002060008473ffffffffffffffffffffffffffffffffffffffff1673ffffffffffffffffffffffffffffffffffffffff16815260200190815260200160002060006101000a81548160ff0219169083151502179055508173ffffffffffffffffffffffffffffffffffffffff168373ffffffffffffffffffffffffffffffffffffffff167f17307eab39ab6107e8899845ad3d59bd9653f200f220920489ca2b5937696c318360405162001d5e91906200239e565b60405180910390a3505050565b62001d7884848462001982565b62001d868484848462001ecd565b62001dc8576040517f08c379a000000000000000000000000000000000000000000000000000000000815260040162001dbf9062003bb7565b60405180910390fd5b50505050565b606060405180602001604052806000815250905090565b606062001df282620017d2565b600062001dfe62001dce565b9050600081511162001e20576040518060200160405280600081525062001e4f565b8062001e2c8462002065565b60405160200162001e3f929190620030f8565b6040516020818303038152906040525b915050919050565b60008073ffffffffffffffffffffffffffffffffffffffff166002600084815260200190815260200160002060009054906101000a900473ffffffffffffffffffffffffffffffffffffffff1673ffffffffffffffffffffffffffffffffffffffff1614159050919050565b505050565b505050565b600062001ef08473ffffffffffffffffffffffffffffffffffffffff16620021de565b1562002058578373ffffffffffffffffffffffffffffffffffffffff1663150b7a0262001f1c62001822565b8786866040518563ffffffff1660e01b815260040162001f40949392919062003c36565b6020604051808303816000875af192505050801562001f7f57506040513d601f19601f8201168201806040525081019062001f7c919062003ca1565b60015b62002007573d806000811462001fb2576040519150601f19603f3d011682016040523d82523d6000602084013e62001fb7565b606091505b50600081510362001fff576040517f08c379a000000000000000000000000000000000000000000000000000000000815260040162001ff69062003bb7565b60405180910390fd5b805181602001fd5b63150b7a0260e01b7bffffffffffffffffffffffffffffffffffffffffffffffffffffffff1916817bffffffffffffffffffffffffffffffffffffffffffffffffffffffff1916149150506200205d565b600190505b949350505050565b606060008203620020ae576040518060400160405280600181526020017f30000000000000000000000000000000000000000000000000000000000000008152509050620021d9565b600082905060005b60008214620020e6578080620020cc9062003cd3565b915050600a82620020de919062003d4f565b9150620020b6565b60008167ffffffffffffffff81111562002105576200210462002733565b5b6040519080825280601f01601f191660200182016040528015620021385781602001600182028036833780820191505090505b5090505b60008514620021d25760018262002154919062003a94565b9150600a8562002165919062003d87565b6030620021739190620035c0565b60f81b8183815181106200218c576200218b62003dbf565b5b60200101907effffffffffffffffffffffffffffffffffffffffffffffffffffffffffffff1916908160001a905350600a85620021ca919062003d4f565b94506200213c565b8093505050505b919050565b6000808273ffffffffffffffffffffffffffffffffffffffff163b119050919050565b6113008062003def83390190565b6000604051905090565b600080fd5b600080fd5b600073ffffffffffffffffffffffffffffffffffffffff82169050919050565b6000620022508262002223565b9050919050565b620022628162002243565b81146200226e57600080fd5b50565b600081359050620022828162002257565b92915050565b600060208284031215620022a157620022a062002219565b5b6000620022b18482850162002271565b91505092915050565b6000819050919050565b620022cf81620022ba565b82525050565b6000602082019050620022ec6000830184620022c4565b92915050565b60007fffffffff0000000000000000000000000000000000000000000000000000000082169050919050565b6200232981620022f2565b81146200233557600080fd5b50565b60008135905062002349816200231e565b92915050565b60006020828403121562002368576200236762002219565b5b6000620023788482850162002338565b91505092915050565b60008115159050919050565b620023988162002381565b82525050565b6000602082019050620023b560008301846200238d565b92915050565b600081519050919050565b600082825260208201905092915050565b60005b83811015620023f7578082015181840152602081019050620023da565b8381111562002407576000848401525b50505050565b6000601f19601f8301169050919050565b60006200242b82620023bb565b620024378185620023c6565b935062002449818560208601620023d7565b62002454816200240d565b840191505092915050565b600060208201905081810360008301526200247b81846200241e565b905092915050565b6200248e81620022ba565b81146200249a57600080fd5b50565b600081359050620024ae8162002483565b92915050565b600060208284031215620024cd57620024cc62002219565b5b6000620024dd848285016200249d565b91505092915050565b620024f18162002243565b82525050565b60006020820190506200250e6000830184620024e6565b92915050565b600080604083850312156200252e576200252d62002219565b5b60006200253e8582860162002271565b925050602062002551858286016200249d565b9150509250929050565b60008060006060848603121562002577576200257662002219565b5b6000620025878682870162002271565b93505060206200259a8682870162002271565b9250506040620025ad868287016200249d565b9150509250925092565b6000819050919050565b6000620025e2620025dc620025d68462002223565b620025b7565b62002223565b9050919050565b6000620025f682620025c1565b9050919050565b60006200260a82620025e9565b9050919050565b6200261c81620025fd565b82525050565b600060208201905062002639600083018462002611565b92915050565b6200264a8162002381565b81146200265657600080fd5b50565b6000813590506200266a816200263f565b92915050565b600080604083850312156200268a576200268962002219565b5b60006200269a8582860162002271565b9250506020620026ad8582860162002659565b9150509250929050565b60008060008060808587031215620026d457620026d362002219565b5b6000620026e4878288016200249d565b9450506020620026f7878288016200249d565b93505060406200270a878288016200249d565b92505060606200271d878288016200249d565b91505092959194509250565b600080fd5b600080fd5b7f4e487b7100000000000000000000000000000000000000000000000000000000600052604160045260246000fd5b6200276d826200240d565b810181811067ffffffffffffffff821117156200278f576200278e62002733565b5b80604052505050565b6000620027a46200220f565b9050620027b2828262002762565b919050565b600067ffffffffffffffff821115620027d557620027d462002733565b5b620027e0826200240d565b9050602081019050919050565b82818337600083830152505050565b6000620028136200280d84620027b7565b62002798565b9050828152602081018484840111156200283257620028316200272e565b5b6200283f848285620027ed565b509392505050565b600082601f8301126200285f576200285e62002729565b5b813562002871848260208601620027fc565b91505092915050565b6000806000806080858703121562002897576200289662002219565b5b6000620028a78782880162002271565b9450506020620028ba8782880162002271565b9350506040620028cd878288016200249d565b925050606085013567ffffffffffffffff811115620028f157620028f06200221e565b5b620028ff8782880162002847565b91505092959194509250565b6000806040838503121562002925576200292462002219565b5b6000620029358582860162002271565b9250506020620029488582860162002271565b9150509250929050565b7f4e6f7420436f6d6d6f6e7765616c746800000000000000000000000000000000600082015250565b60006200298a601083620023c6565b9150620029978262002952565b602082019050919050565b60006020820190508181036000830152620029bd816200297b565b9050919050565b600081519050620029d58162002483565b92915050565b600060208284031215620029f457620029f362002219565b5b600062002a0484828501620029c4565b91505092915050565b600067ffffffffffffffff82111562002a2b5762002a2a62002733565b5b62002a36826200240d565b9050602081019050919050565b600062002a5a62002a548462002a0d565b62002798565b90508281526020810184848401111562002a795762002a786200272e565b5b62002a86848285620023d7565b509392505050565b600082601f83011262002aa65762002aa562002729565b5b815162002ab884826020860162002a43565b91505092915050565b60006020828403121562002ada5762002ad962002219565b5b600082015167ffffffffffffffff81111562002afb5762002afa6200221e565b5b62002b098482850162002a8e565b91505092915050565b7f4e487b7100000000000000000000000000000000000000000000000000000000600052602260045260246000fd5b6000600282049050600182168062002b5a57607f821691505b60208210810362002b705762002b6f62002b12565b5b50919050565b7f4552433732313a20617070726f76616c20746f2063757272656e74206f776e6560008201527f7200000000000000000000000000000000000000000000000000000000000000602082015250565b600062002bd4602183620023c6565b915062002be18262002b76565b604082019050919050565b6000602082019050818103600083015262002c078162002bc5565b9050919050565b7f4552433732313a20617070726f76652063616c6c6572206973206e6f7420746f60008201527f6b656e206f776e6572206e6f7220617070726f76656420666f7220616c6c0000602082015250565b600062002c6c603e83620023c6565b915062002c798262002c0e565b604082019050919050565b6000602082019050818103600083015262002c9f8162002c5d565b9050919050565b7f4552433732313a2063616c6c6572206973206e6f7420746f6b656e206f776e6560008201527f72206e6f7220617070726f766564000000000000000000000000000000000000602082015250565b600062002d04602e83620023c6565b915062002d118262002ca6565b604082019050919050565b6000602082019050818103600083015262002d378162002cf5565b9050919050565b7f4552433732313a20696e76616c696420746f6b656e2049440000000000000000600082015250565b600062002d76601883620023c6565b915062002d838262002d3e565b602082019050919050565b6000602082019050818103600083015262002da98162002d67565b9050919050565b7f4552433732313a2061646472657373207a65726f206973206e6f74206120766160008201527f6c6964206f776e65720000000000000000000000000000000000000000000000602082015250565b600062002e0e602983620023c6565b915062002e1b8262002db0565b604082019050919050565b6000602082019050818103600083015262002e418162002dff565b9050919050565b60008151905062002e598162002257565b92915050565b60006020828403121562002e785762002e7762002219565b5b600062002e888482850162002e48565b91505092915050565b7f496e76616c69642041756374696f6e0000000000000000000000000000000000600082015250565b600062002ec9600f83620023c6565b915062002ed68262002e91565b602082019050919050565b6000602082019050818103600083015262002efc8162002eba565b9050919050565b7f446f65736e2774204f776e20546869732050726f706572747900000000000000600082015250565b600062002f3b601983620023c6565b915062002f488262002f03565b602082019050919050565b6000602082019050818103600083015262002f6e8162002f2c565b9050919050565b7f416c726561647920696e2041756374696f6e0000000000000000000000000000600082015250565b600062002fad601283620023c6565b915062002fba8262002f75565b602082019050919050565b6000602082019050818103600083015262002fe08162002f9e565b9050919050565b7f4261642041756374696f6e205265717565737400000000000000000000000000600082015250565b60006200301f601383620023c6565b91506200302c8262002fe7565b602082019050919050565b60006020820190508181036000830152620030528162003010565b9050919050565b600060a082019050620030706000830188620024e6565b6200307f6020830187620022c4565b6200308e6040830186620022c4565b6200309d6060830185620022c4565b620030ac6080830184620022c4565b9695505050505050565b600081905092915050565b6000620030ce82620023bb565b620030da8185620030b6565b9350620030ec818560208601620023d7565b80840191505092915050565b6000620031068285620030c1565b9150620031148284620030c1565b91508190509392505050565b6000620031376200313184620027b7565b62002798565b9050828152602081018484840111156200315657620031556200272e565b5b62003163848285620023d7565b509392505050565b600082601f83011262003183576200318262002729565b5b81516200319584826020860162003120565b91505092915050565b600060208284031215620031b757620031b662002219565b5b600082015167ffffffffffffffff811115620031d857620031d76200221e565b5b620031e6848285016200316b565b91505092915050565b7f54686520466f6c6c6f77696e672045746820416464726573733a200000000000600082015250565b600062003227601b83620030b6565b91506200323482620031ef565b601b82019050919050565b60008160601b9050919050565b600062003259826200323f565b9050919050565b60006200326d826200324c565b9050919050565b62003289620032838262002243565b62003260565b82525050565b7f2049732043657274696669656420546f2050617274696369706174652e000000600082015250565b6000620032c7601d83620030b6565b9150620032d4826200328f565b601d82019050919050565b6000620032ec8262003218565b9150620032fa828462003274565b6014820191506200330b82620032b8565b915081905092915050565b7f19457468657265756d205369676e6564204d6573736167653a0a333200000000600082015250565b60006200334e601c83620030b6565b91506200335b8262003316565b601c82019050919050565b6000819050919050565b6000819050919050565b6200338f620033898262003366565b62003370565b82525050565b6000620033a2826200333f565b9150620033b082846200337a565b60208201915081905092915050565b7f496e76616c6964205369676e617475726520466f726d61740000000000000000600082015250565b6000620033f7601883620023c6565b91506200340482620033bf565b602082019050919050565b600060208201905081810360008301526200342a81620033e8565b9050919050565b6200343c8162003366565b82525050565b600060ff82169050919050565b6200345a8162003442565b82525050565b600060808201905062003477600083018762003431565b6200348660208301866200344f565b62003495604083018562003431565b620034a4606083018462003431565b95945050505050565b7f4552433732313a206d696e7420746f20746865207a65726f2061646472657373600082015250565b6000620034e5602083620023c6565b9150620034f282620034ad565b602082019050919050565b600060208201905081810360008301526200351881620034d6565b9050919050565b7f4552433732313a20746f6b656e20616c7265616479206d696e74656400000000600082015250565b600062003557601c83620023c6565b915062003564826200351f565b602082019050919050565b600060208201905081810360008301526200358a8162003548565b9050919050565b7f4e487b7100000000000000000000000000000000000000000000000000000000600052601160045260246000fd5b6000620035cd82620022ba565b9150620035da83620022ba565b9250827fffffffffffffffffffffffffffffffffffffffffffffffffffffffffffffffff0382111562003612576200361162003591565b5b828201905092915050565b7f45524337323155524953746f726167653a2055524920736574206f66206e6f6e60008201527f6578697374656e7420746f6b656e000000000000000000000000000000000000602082015250565b60006200367b602e83620023c6565b915062003688826200361d565b604082019050919050565b60006020820190508181036000830152620036ae816200366c565b9050919050565b60008190508160005260206000209050919050565b60006020601f8301049050919050565b600082821b905092915050565b600060088302620037197fffffffffffffffffffffffffffffffffffffffffffffffffffffffffffffffff82620036da565b620037258683620036da565b95508019841693508086168417925050509392505050565b60006200375e620037586200375284620022ba565b620025b7565b620022ba565b9050919050565b6000819050919050565b6200377a836200373d565b62003792620037898262003765565b848454620036e7565b825550505050565b600090565b620037a96200379a565b620037b68184846200376f565b505050565b5b81811015620037de57620037d26000826200379f565b600181019050620037bc565b5050565b601f8211156200382d57620037f781620036b5565b6200380284620036ca565b8101602085101562003812578190505b6200382a6200382185620036ca565b830182620037bb565b50505b505050565b600082821c905092915050565b6000620038526000198460080262003832565b1980831691505092915050565b60006200386d83836200383f565b9150826002028217905092915050565b6200388882620023bb565b67ffffffffffffffff811115620038a457620038a362002733565b5b620038b0825462002b41565b620038bd828285620037e2565b600060209050601f831160018114620038f55760008415620038e0578287015190505b620038ec85826200385f565b8655506200395c565b601f1984166200390586620036b5565b60005b828110156200392f5784890151825560018201915060208501945060208101905062003908565b868310156200394f57848901516200394b601f8916826200383f565b8355505b6001600288020188555050505b505050505050565b7f4552433732313a207472616e736665722066726f6d20696e636f72726563742060008201527f6f776e6572000000000000000000000000000000000000000000000000000000602082015250565b6000620039c2602583620023c6565b9150620039cf8262003964565b604082019050919050565b60006020820190508181036000830152620039f581620039b3565b9050919050565b7f4552433732313a207472616e7366657220746f20746865207a65726f2061646460008201527f7265737300000000000000000000000000000000000000000000000000000000602082015250565b600062003a5a602483620023c6565b915062003a6782620039fc565b604082019050919050565b6000602082019050818103600083015262003a8d8162003a4b565b9050919050565b600062003aa182620022ba565b915062003aae83620022ba565b92508282101562003ac45762003ac362003591565b5b828203905092915050565b7f4552433732313a20617070726f766520746f2063616c6c657200000000000000600082015250565b600062003b07601983620023c6565b915062003b148262003acf565b602082019050919050565b6000602082019050818103600083015262003b3a8162003af8565b9050919050565b7f4552433732313a207472616e7366657220746f206e6f6e20455243373231526560008201527f63656976657220696d706c656d656e7465720000000000000000000000000000602082015250565b600062003b9f603283620023c6565b915062003bac8262003b41565b604082019050919050565b6000602082019050818103600083015262003bd28162003b90565b9050919050565b600081519050919050565b600082825260208201905092915050565b600062003c028262003bd9565b62003c0e818562003be4565b935062003c20818560208601620023d7565b62003c2b816200240d565b840191505092915050565b600060808201905062003c4d6000830187620024e6565b62003c5c6020830186620024e6565b62003c6b6040830185620022c4565b818103606083015262003c7f818462003bf5565b905095945050505050565b60008151905062003c9b816200231e565b92915050565b60006020828403121562003cba5762003cb962002219565b5b600062003cca8482850162003c8a565b91505092915050565b600062003ce082620022ba565b91507fffffffffffffffffffffffffffffffffffffffffffffffffffffffffffffffff820362003d155762003d1462003591565b5b600182019050919050565b7f4e487b7100000000000000000000000000000000000000000000000000000000600052601260045260246000fd5b600062003d5c82620022ba565b915062003d6983620022ba565b92508262003d7c5762003d7b62003d20565b5b828204905092915050565b600062003d9482620022ba565b915062003da183620022ba565b92508262003db45762003db362003d20565b5b828206905092915050565b7f4e487b7100000000000000000000000000000000000000000000000000000000600052603260045260246000fdfe60806040523480156200001157600080fd5b506040516200130038038062001300833981810160405281019062000037919062000185565b84600460006101000a81548173ffffffffffffffffffffffffffffffffffffffff021916908373ffffffffffffffffffffffffffffffffffffffff1602179055508360008190555082600181905550816002819055508060058190555033600360006101000a81548173ffffffffffffffffffffffffffffffffffffffff021916908373ffffffffffffffffffffffffffffffffffffffff16021790555050505050506200020d565b600080fd5b600073ffffffffffffffffffffffffffffffffffffffff82169050919050565b60006200011282620000e5565b9050919050565b620001248162000105565b81146200013057600080fd5b50565b600081519050620001448162000119565b92915050565b6000819050919050565b6200015f816200014a565b81146200016b57600080fd5b50565b6000815190506200017f8162000154565b92915050565b600080600080600060a08688031215620001a457620001a3620000e0565b5b6000620001b48882890162000133565b9550506020620001c7888289016200016e565b9450506040620001da888289016200016e565b9350506060620001ed888289016200016e565b925050608062000200888289016200016e565b9150509295509295909350565b6110e3806200021d6000396000f3fe6080604052600436106100dd5760003560e01c806362ea82db1161007f5780638da5cb5b116100595780638da5cb5b146102a25780639f6c4e6c146102cd578063dc201dc2146102f8578063ee7a3b8e14610316576100dd565b806362ea82db1461020f578063636bf7301461024c5780636a0eba9614610277576100dd565b80630ae50a39116100bb5780630ae50a39146101635780633e109a191461018e57806348cd4cb1146101b957806355a373d6146101e4576100dd565b806305be0cd1146100e25780630706ee181461010d578063083c632314610138575b600080fd5b3480156100ee57600080fd5b506100f7610341565b6040516101049190610b01565b60405180910390f35b34801561011957600080fd5b5061012261052c565b60405161012f9190610b01565b60405180910390f35b34801561014457600080fd5b5061014d6106e1565b60405161015a9190610b35565b60405180910390f35b34801561016f57600080fd5b506101786106e7565b6040516101859190610b91565b60405180910390f35b34801561019a57600080fd5b506101a3610711565b6040516101b09190610b35565b60405180910390f35b3480156101c557600080fd5b506101ce610717565b6040516101db9190610b35565b60405180910390f35b3480156101f057600080fd5b506101f961071d565b6040516102069190610c0b565b60405180910390f35b34801561021b57600080fd5b5061023660048036038101906102319190610c57565b610743565b6040516102439190610b35565b60405180910390f35b34801561025857600080fd5b5061026161075b565b60405161026e9190610b35565b60405180910390f35b34801561028357600080fd5b5061028c610761565b6040516102999190610b91565b60405180910390f35b3480156102ae57600080fd5b506102b7610787565b6040516102c49190610b91565b60405180910390f35b3480156102d957600080fd5b506102e26107ad565b6040516102ef9190610b91565b60405180910390f35b6103006107d7565b60405161030d9190610b01565b60405180910390f35b34801561032257600080fd5b5061032b610ae0565b6040516103389190610b35565b60405180910390f35b60006001544311610387576040517f08c379a000000000000000000000000000000000000000000000000000000000815260040161037e90610ce1565b60405180910390fd5b600760009054906101000a900473ffffffffffffffffffffffffffffffffffffffff1673ffffffffffffffffffffffffffffffffffffffff163373ffffffffffffffffffffffffffffffffffffffff1614806104305750600460009054906101000a900473ffffffffffffffffffffffffffffffffffffffff1673ffffffffffffffffffffffffffffffffffffffff163373ffffffffffffffffffffffffffffffffffffffff16145b61046f576040517f08c379a000000000000000000000000000000000000000000000000000000000815260040161046690610d4d565b60405180910390fd5b600060065414610528576000600681905550600360009054906101000a900473ffffffffffffffffffffffffffffffffffffffff1673ffffffffffffffffffffffffffffffffffffffff16639ac2b9a86005546040518263ffffffff1660e01b81526004016104de9190610b35565b6020604051808303816000875af11580156104fd573d6000803e3d6000fd5b505050506040513d601f19601f820116820180604052508101906105219190610d99565b9050610529565b5b90565b60006001544311610572576040517f08c379a000000000000000000000000000000000000000000000000000000000815260040161056990610ce1565b60405180910390fd5b60003390506000600860008373ffffffffffffffffffffffffffffffffffffffff1673ffffffffffffffffffffffffffffffffffffffff1681526020019081526020016000205490506000811415801561061a5750600760009054906101000a900473ffffffffffffffffffffffffffffffffffffffff1673ffffffffffffffffffffffffffffffffffffffff168273ffffffffffffffffffffffffffffffffffffffff1614155b156106db576000905060008273ffffffffffffffffffffffffffffffffffffffff168260405161064990610df7565b60006040518083038185875af1925050503d8060008114610686576040519150601f19603f3d011682016040523d82523d6000602084013e61068b565b606091505b50509050806106cf576040517f08c379a00000000000000000000000000000000000000000000000000000000081526004016106c690610e58565b60405180910390fd5b600193505050506106de565b50505b90565b60015481565b6000600460009054906101000a900473ffffffffffffffffffffffffffffffffffffffff16905090565b60025481565b60005481565b600360009054906101000a900473ffffffffffffffffffffffffffffffffffffffff1681565b60086020528060005260406000206000915090505481565b60065481565b600760009054906101000a900473ffffffffffffffffffffffffffffffffffffffff1681565b600460009054906101000a900473ffffffffffffffffffffffffffffffffffffffff1681565b6000600760009054906101000a900473ffffffffffffffffffffffffffffffffffffffff16905090565b6000803390506000439050600054811180156107f4575060015481105b610833576040517f08c379a000000000000000000000000000000000000000000000000000000000815260040161082a90610ec4565b60405180910390fd5b600460009054906101000a900473ffffffffffffffffffffffffffffffffffffffff1673ffffffffffffffffffffffffffffffffffffffff168273ffffffffffffffffffffffffffffffffffffffff16036108c3576040517f08c379a00000000000000000000000000000000000000000000000000000000081526004016108ba90610f30565b60405180910390fd5b600360009054906101000a900473ffffffffffffffffffffffffffffffffffffffff1673ffffffffffffffffffffffffffffffffffffffff1663f6918d69836040518263ffffffff1660e01b815260040161091e9190610b91565b602060405180830381865afa15801561093b573d6000803e3d6000fd5b505050506040513d601f19601f8201168201806040525081019061095f9190610d99565b61099e576040517f08c379a000000000000000000000000000000000000000000000000000000000815260040161099590610f9c565b60405180910390fd5b6000600860008473ffffffffffffffffffffffffffffffffffffffff1673ffffffffffffffffffffffffffffffffffffffff1681526020019081526020016000205403610a2a576006543411610a29576040517f08c379a0000000000000000000000000000000000000000000000000000000008152600401610a2090611008565b60405180910390fd5b5b600034600860008573ffffffffffffffffffffffffffffffffffffffff1673ffffffffffffffffffffffffffffffffffffffff1681526020019081526020016000206000828254610a7b9190611057565b9250508190559050600654811115610ad6578060068190555082600760006101000a81548173ffffffffffffffffffffffffffffffffffffffff021916908373ffffffffffffffffffffffffffffffffffffffff1602179055505b6001935050505090565b60055481565b60008115159050919050565b610afb81610ae6565b82525050565b6000602082019050610b166000830184610af2565b92915050565b6000819050919050565b610b2f81610b1c565b82525050565b6000602082019050610b4a6000830184610b26565b92915050565b600073ffffffffffffffffffffffffffffffffffffffff82169050919050565b6000610b7b82610b50565b9050919050565b610b8b81610b70565b82525050565b6000602082019050610ba66000830184610b82565b92915050565b6000819050919050565b6000610bd1610bcc610bc784610b50565b610bac565b610b50565b9050919050565b6000610be382610bb6565b9050919050565b6000610bf582610bd8565b9050919050565b610c0581610bea565b82525050565b6000602082019050610c206000830184610bfc565b92915050565b600080fd5b610c3481610b70565b8114610c3f57600080fd5b50565b600081359050610c5181610c2b565b92915050565b600060208284031215610c6d57610c6c610c26565b5b6000610c7b84828501610c42565b91505092915050565b600082825260208201905092915050565b7f41756374696f6e20686173206e6f7420656e6465640000000000000000000000600082015250565b6000610ccb601583610c84565b9150610cd682610c95565b602082019050919050565b60006020820190508181036000830152610cfa81610cbe565b9050919050565b7f4e6f7420417574686f72697a6564000000000000000000000000000000000000600082015250565b6000610d37600e83610c84565b9150610d4282610d01565b602082019050919050565b60006020820190508181036000830152610d6681610d2a565b9050919050565b610d7681610ae6565b8114610d8157600080fd5b50565b600081519050610d9381610d6d565b92915050565b600060208284031215610daf57610dae610c26565b5b6000610dbd84828501610d84565b91505092915050565b600081905092915050565b50565b6000610de1600083610dc6565b9150610dec82610dd1565b600082019050919050565b6000610e0282610dd4565b9150819050919050565b7f4661696c656420746f2073656e64204574686572000000000000000000000000600082015250565b6000610e42601483610c84565b9150610e4d82610e0c565b602082019050919050565b60006020820190508181036000830152610e7181610e35565b9050919050565b7f43616e6e6f7420706c6163652062696400000000000000000000000000000000600082015250565b6000610eae601083610c84565b9150610eb982610e78565b602082019050919050565b60006020820190508181036000830152610edd81610ea1565b9050919050565b7f4f776e65722063616e6e6f742062696400000000000000000000000000000000600082015250565b6000610f1a601083610c84565b9150610f2582610ee4565b602082019050919050565b60006020820190508181036000830152610f4981610f0d565b9050919050565b7f496e76616c6964205369676e6174757265000000000000000000000000000000600082015250565b6000610f86601183610c84565b9150610f9182610f50565b602082019050919050565b60006020820190508181036000830152610fb581610f79565b9050919050565b7f4269642076616c756520746f6f206c6f77000000000000000000000000000000600082015250565b6000610ff2601183610c84565b9150610ffd82610fbc565b602082019050919050565b6000602082019050818103600083015261102181610fe5565b9050919050565b7f4e487b7100000000000000000000000000000000000000000000000000000000600052601160045260246000fd5b600061106282610b1c565b915061106d83610b1c565b9250827fffffffffffffffffffffffffffffffffffffffffffffffffffffffffffffffff038211156110a2576110a1611028565b5b82820190509291505056fea2646970667358221220bf554a2839c68894f52e441f2728fd6fb70ca95c8a728543a151a121f9c99f0964736f6c634300080f0033a2646970667358221220c847fc0efc1b278b74ae6bafb21fcfa040e9b3d66f7750f3e5980675e1098dda64736f6c634300080f0033",
  "immutableReferences": {},
  "source": "// SPDX-License-Identifier: MIT\npragma solidity ^0.8.0;\nimport \"./PropertyAuction.sol\";\nimport \"./PropertyOracle.sol\";\nimport \"../node_modules/@openzeppelin/contracts/token/ERC721/extensions/ERC721URIStorage.sol\";\n\n/*\n(Useful doc to eventually use)\nkey words when writing doc (RFC 2119)\nMUST, MUST NOT, REQUIRED, SHALL, \nSHALL NOT, SHOULD NOT, RECOMMENDED, \nMAY,OPTIONAL \n*/\n\ncontract PropertyToken is ERC721URIStorage {\n\n    // Address of contract creator\n    address private commonwealth;\n\n    // Address of oracle contract\n    PropertyOracle private oracle;\n\n    // Mapping of all properties and their auctions\n    mapping (uint256 => PropertyAuction) public auctions;\n\n    // Constructor for ERC721 contract and Property contract\n    constructor(\n        address _oracle\n    ) ERC721(\"Property\", \"PTY\") {\n        oracle = PropertyOracle(_oracle);\n        commonwealth = oracle.GetCommonwealth();\n    }\n\n\n    function DigitiseProperty(address owner) external returns(uint256) {\n        require(msg.sender == commonwealth, \"Not Commonwealth\");\n\n        // using the _mint functionality offered by ERC721 standard\n        // Make new NFT to represent property, with tokenURI being a base64 JSON (off-chain stuff)\n\n        uint256 newItemId = oracle.GetPropertyCount();\n        _mint(owner, newItemId);\n\n        // GetPropertyInfo will return the base64 JSON URI\n        _setTokenURI(newItemId, oracle.GetPropertyInfo(newItemId));\n        return newItemId;\n    }\n\n\n    function VerifySignature(address userAddr) external view returns(bool success) {\n        // verification of signature occurs....\n        bytes memory signature = oracle.GetPublicSign(userAddr);\n\n        // step 1: create signed message verification\n        bytes32 signedMessageVerification = keccak256(abi.encodePacked(\n            \"\\x19Ethereum Signed Message:\\n32\",\n            keccak256(abi.encodePacked(\n                \"The Following Eth Address: \",\n                /// @notice To dynamically ensure that the certificate is owned by the investor calling the function\n                userAddr,\n                \" Is Certified To Participate.\"\n            ))\n        ));\n\n        // step 2: ensure correct format for signature:\n        require(signature.length == 65, \"Invalid Signature Format\");\n        \n        // step 3: derive _publicKey from byte segments\n        uint8 v;\n        bytes32 r;\n        bytes32 s;\n        assembly {\n            /// @notice After skipping the first 32 bytes of message length, value for r stored in next 32 bytes.\n            r := mload(add(signature, 32))\n            /// @notice Skip another 32 bytes of data length that holds r, to get the value of s\n            s := mload(add(signature, 64))\n            /// @notice Skip another 32 bytes of data length that holds r and s, to get the value of v\n            v := byte(0, mload(add(signature, 96)))\n        }\n\n        // step 4: return true, the user is certified, can participate in bid, else cannot\n        /// @notice This acts as proof that the investor a) controls the address in the certificate and b) the certificate is valid\n        return commonwealth == ecrecover(signedMessageVerification, v, r, s);\n    }\n\n\n    function NewAuction(uint256 _start, uint256 _end, uint256 _min, uint256 _propId) external returns(PropertyAuction addr) {\n        // Verify property ownership\n        // Verify if property already auctioned\n        // Verify provided timings make sense\n        address sender = msg.sender;\n        require(ownerOf(_propId) == sender, \"Doesn't Own This Property\");\n        require(auctions[_propId].GetOwner() == address(0), \"Already in Auction\");\n        require(_start < _end, \"Bad Auction Request\");\n\n        return auctions[_propId] = new PropertyAuction(\n            sender,\n            _start,\n            _end,\n            _min,\n            _propId\n        );\n    }\n\n\n    function TransferOwnership(uint256 _propId) external returns(bool success) {\n        // Get auction and property ownership information\n        PropertyAuction auction = auctions[_propId];\n        address currentOwner = auction.GetOwner();\n        \n        // Verify that auction is valid (created by this contract)\n        require(msg.sender == address(auction));\n        // Verify that the auction has been setup properly\n        require (currentOwner != address(0), \"Invalid Auction\");\n        \n        // Check that owner owns the property listed on the auction\n        if (ownerOf(_propId) == currentOwner) {\n            // use ERC721 interface to call transferFrom()\n            address winner = auction.GetWinner();\n            transferFrom(currentOwner, winner, _propId);\n            return true;\n        }\n    }\n}",
  "sourcePath": "/home/kanishka/Documents/GitHub/COMP6452-Blockchain-Boogaloo/contracts/PropertyToken.sol",
  "compiler": {
    "name": "solc",
    "version": "0.8.15+commit.e14f2714.Emscripten.clang"
  },
  "schemaVersion": "3.4.8",
  "updatedAt": "2022-07-05T08:24:37.067Z",
  "devdoc": {
    "kind": "dev",
    "methods": {
      "approve(address,uint256)": {
        "details": "See {IERC721-approve}."
      },
      "balanceOf(address)": {
        "details": "See {IERC721-balanceOf}."
      },
      "getApproved(uint256)": {
        "details": "See {IERC721-getApproved}."
      },
      "isApprovedForAll(address,address)": {
        "details": "See {IERC721-isApprovedForAll}."
      },
      "name()": {
        "details": "See {IERC721Metadata-name}."
      },
      "ownerOf(uint256)": {
        "details": "See {IERC721-ownerOf}."
      },
      "safeTransferFrom(address,address,uint256)": {
        "details": "See {IERC721-safeTransferFrom}."
      },
      "safeTransferFrom(address,address,uint256,bytes)": {
        "details": "See {IERC721-safeTransferFrom}."
      },
      "setApprovalForAll(address,bool)": {
        "details": "See {IERC721-setApprovalForAll}."
      },
      "supportsInterface(bytes4)": {
        "details": "See {IERC165-supportsInterface}."
      },
      "symbol()": {
        "details": "See {IERC721Metadata-symbol}."
      },
      "tokenURI(uint256)": {
        "details": "See {IERC721Metadata-tokenURI}."
      },
      "transferFrom(address,address,uint256)": {
        "details": "See {IERC721-transferFrom}."
      }
    },
    "version": 1
  },
  "userdoc": {
    "kind": "user",
    "methods": {},
    "version": 1
  }
}